{
	"contracts/task3/BeggingContract.sol": {
		"BeggingContract": {
			"abi": [
				{
					"inputs": [],
					"stateMutability": "nonpayable",
					"type": "constructor"
				},
				{
					"anonymous": false,
					"inputs": [
						{
							"indexed": false,
							"internalType": "address",
							"name": "donator",
							"type": "address"
						},
						{
							"indexed": false,
							"internalType": "uint256",
							"name": "value",
							"type": "uint256"
						}
					],
					"name": "Donation",
					"type": "event"
				},
				{
					"inputs": [],
					"name": "TARGET_TIMESTAMP",
					"outputs": [
						{
							"internalType": "uint256",
							"name": "",
							"type": "uint256"
						}
					],
					"stateMutability": "view",
					"type": "function"
				},
				{
					"inputs": [],
					"name": "donate",
					"outputs": [],
					"stateMutability": "payable",
					"type": "function"
				},
				{
					"inputs": [
						{
							"internalType": "address",
							"name": "",
							"type": "address"
						}
					],
					"name": "donatorTotal",
					"outputs": [
						{
							"internalType": "uint256",
							"name": "",
							"type": "uint256"
						}
					],
					"stateMutability": "view",
					"type": "function"
				},
				{
					"inputs": [
						{
							"internalType": "address",
							"name": "donator",
							"type": "address"
						}
					],
					"name": "getDonation",
					"outputs": [
						{
							"internalType": "uint256",
							"name": "",
							"type": "uint256"
						}
					],
					"stateMutability": "view",
					"type": "function"
				},
				{
					"inputs": [],
					"name": "owner",
					"outputs": [
						{
							"internalType": "address",
							"name": "",
							"type": "address"
						}
					],
					"stateMutability": "view",
					"type": "function"
				},
				{
					"inputs": [
						{
							"internalType": "uint256",
							"name": "",
							"type": "uint256"
						}
					],
					"name": "top3Donators",
					"outputs": [
						{
							"internalType": "address",
							"name": "",
							"type": "address"
						}
					],
					"stateMutability": "view",
					"type": "function"
				},
				{
					"inputs": [],
					"name": "withdraw",
					"outputs": [],
					"stateMutability": "nonpayable",
					"type": "function"
				}
			],
			"devdoc": {
				"kind": "dev",
				"methods": {},
				"version": 1
			},
			"evm": {
				"assembly": "    /* \"contracts/task3/BeggingContract.sol\":106:3301  contract BeggingContract {... */\n  mstore(0x40, 0x80)\n    /* \"contracts/task3/BeggingContract.sol\":650:701  constructor() {... */\n  callvalue\n  dup1\n  iszero\n  tag_1\n  jumpi\n  revert(0x00, 0x00)\ntag_1:\n  pop\n    /* \"contracts/task3/BeggingContract.sol\":683:693  msg.sender */\n  caller\n    /* \"contracts/task3/BeggingContract.sol\":675:680  owner */\n  0x00\n  0x00\n    /* \"contracts/task3/BeggingContract.sol\":675:693  owner = msg.sender */\n  0x0100\n  exp\n  dup2\n  sload\n  dup2\n  0xffffffffffffffffffffffffffffffffffffffff\n  mul\n  not\n  and\n  swap1\n  dup4\n  0xffffffffffffffffffffffffffffffffffffffff\n  and\n  mul\n  or\n  swap1\n  sstore\n  pop\n    /* \"contracts/task3/BeggingContract.sol\":106:3301  contract BeggingContract {... */\n  dataSize(sub_0)\n  dup1\n  dataOffset(sub_0)\n  0x00\n  codecopy\n  0x00\n  return\nstop\n\nsub_0: assembly {\n        /* \"contracts/task3/BeggingContract.sol\":106:3301  contract BeggingContract {... */\n      mstore(0x40, 0x80)\n      jumpi(tag_1, lt(calldatasize, 0x04))\n      shr(0xe0, calldataload(0x00))\n      dup1\n      0x8da5cb5b\n      gt\n      tag_9\n      jumpi\n      dup1\n      0x8da5cb5b\n      eq\n      tag_5\n      jumpi\n      dup1\n      0x9c6fec9f\n      eq\n      tag_6\n      jumpi\n      dup1\n      0x9d06d145\n      eq\n      tag_7\n      jumpi\n      dup1\n      0xed88c68e\n      eq\n      tag_8\n      jumpi\n      jump(tag_1)\n    tag_9:\n      dup1\n      0x3ccfd60b\n      eq\n      tag_2\n      jumpi\n      dup1\n      0x410a1d32\n      eq\n      tag_3\n      jumpi\n      dup1\n      0x89b7ca12\n      eq\n      tag_4\n      jumpi\n    tag_1:\n      revert(0x00, 0x00)\n        /* \"contracts/task3/BeggingContract.sol\":3001:3105  function withdraw() external onlyOwner {... */\n    tag_2:\n      callvalue\n      dup1\n      iszero\n      tag_10\n      jumpi\n      revert(0x00, 0x00)\n    tag_10:\n      pop\n      tag_11\n      tag_12\n      jump\t// in\n    tag_11:\n      stop\n        /* \"contracts/task3/BeggingContract.sol\":3113:3298  function getDonation(address donator) external view returns(uint256) {... */\n    tag_3:\n      callvalue\n      dup1\n      iszero\n      tag_13\n      jumpi\n      revert(0x00, 0x00)\n    tag_13:\n      pop\n      tag_14\n      0x04\n      dup1\n      calldatasize\n      sub\n      dup2\n      add\n      swap1\n      tag_15\n      swap2\n      swap1\n      tag_16\n      jump\t// in\n    tag_15:\n      tag_17\n      jump\t// in\n    tag_14:\n      mload(0x40)\n      tag_18\n      swap2\n      swap1\n      tag_19\n      jump\t// in\n    tag_18:\n      mload(0x40)\n      dup1\n      swap2\n      sub\n      swap1\n      return\n        /* \"contracts/task3/BeggingContract.sol\":818:871  uint256 public constant TARGET_TIMESTAMP = 1735702861 */\n    tag_4:\n      callvalue\n      dup1\n      iszero\n      tag_20\n      jumpi\n      revert(0x00, 0x00)\n    tag_20:\n      pop\n      tag_21\n      tag_22\n      jump\t// in\n    tag_21:\n      mload(0x40)\n      tag_23\n      swap2\n      swap1\n      tag_19\n      jump\t// in\n    tag_23:\n      mload(0x40)\n      dup1\n      swap2\n      sub\n      swap1\n      return\n        /* \"contracts/task3/BeggingContract.sol\":138:158  address public owner */\n    tag_5:\n      callvalue\n      dup1\n      iszero\n      tag_24\n      jumpi\n      revert(0x00, 0x00)\n    tag_24:\n      pop\n      tag_25\n      tag_26\n      jump\t// in\n    tag_25:\n      mload(0x40)\n      tag_27\n      swap2\n      swap1\n      tag_28\n      jump\t// in\n    tag_27:\n      mload(0x40)\n      dup1\n      swap2\n      sub\n      swap1\n      return\n        /* \"contracts/task3/BeggingContract.sol\":573:603  address[3] public top3Donators */\n    tag_6:\n      callvalue\n      dup1\n      iszero\n      tag_29\n      jumpi\n      revert(0x00, 0x00)\n    tag_29:\n      pop\n      tag_30\n      0x04\n      dup1\n      calldatasize\n      sub\n      dup2\n      add\n      swap1\n      tag_31\n      swap2\n      swap1\n      tag_32\n      jump\t// in\n    tag_31:\n      tag_33\n      jump\t// in\n    tag_30:\n      mload(0x40)\n      tag_34\n      swap2\n      swap1\n      tag_28\n      jump\t// in\n    tag_34:\n      mload(0x40)\n      dup1\n      swap2\n      sub\n      swap1\n      return\n        /* \"contracts/task3/BeggingContract.sol\":165:212  mapping(address => uint256) public donatorTotal */\n    tag_7:\n      callvalue\n      dup1\n      iszero\n      tag_35\n      jumpi\n      revert(0x00, 0x00)\n    tag_35:\n      pop\n      tag_36\n      0x04\n      dup1\n      calldatasize\n      sub\n      dup2\n      add\n      swap1\n      tag_37\n      swap2\n      swap1\n      tag_16\n      jump\t// in\n    tag_37:\n      tag_38\n      jump\t// in\n    tag_36:\n      mload(0x40)\n      tag_39\n      swap2\n      swap1\n      tag_19\n      jump\t// in\n    tag_39:\n      mload(0x40)\n      dup1\n      swap2\n      sub\n      swap1\n      return\n        /* \"contracts/task3/BeggingContract.sol\":1027:2993  function donate() external payable timeLimit {... */\n    tag_8:\n      tag_40\n      tag_41\n      jump\t// in\n    tag_40:\n      stop\n        /* \"contracts/task3/BeggingContract.sol\":3001:3105  function withdraw() external onlyOwner {... */\n    tag_12:\n        /* \"contracts/task3/BeggingContract.sol\":763:768  owner */\n      0x00\n      0x00\n      swap1\n      sload\n      swap1\n      0x0100\n      exp\n      swap1\n      div\n      0xffffffffffffffffffffffffffffffffffffffff\n      and\n        /* \"contracts/task3/BeggingContract.sol\":749:768  msg.sender == owner */\n      0xffffffffffffffffffffffffffffffffffffffff\n      and\n        /* \"contracts/task3/BeggingContract.sol\":749:759  msg.sender */\n      caller\n        /* \"contracts/task3/BeggingContract.sol\":749:768  msg.sender == owner */\n      0xffffffffffffffffffffffffffffffffffffffff\n      and\n      eq\n        /* \"contracts/task3/BeggingContract.sol\":741:790  require(msg.sender == owner, \"you are not owner\") */\n      tag_43\n      jumpi\n      mload(0x40)\n      0x08c379a000000000000000000000000000000000000000000000000000000000\n      dup2\n      mstore\n      0x04\n      add\n      tag_44\n      swap1\n      tag_45\n      jump\t// in\n    tag_44:\n      mload(0x40)\n      dup1\n      swap2\n      sub\n      swap1\n      revert\n    tag_43:\n        /* \"contracts/task3/BeggingContract.sol\":3059:3064  owner */\n      0x00\n      0x00\n      swap1\n      sload\n      swap1\n      0x0100\n      exp\n      swap1\n      div\n      0xffffffffffffffffffffffffffffffffffffffff\n      and\n        /* \"contracts/task3/BeggingContract.sol\":3051:3074  payable(owner).transfer */\n      0xffffffffffffffffffffffffffffffffffffffff\n      and\n        /* \"contracts/task3/BeggingContract.sol\":3051:3097  payable(owner).transfer(address(this).balance) */\n      0x08fc\n        /* \"contracts/task3/BeggingContract.sol\":3075:3096  address(this).balance */\n      selfbalance\n        /* \"contracts/task3/BeggingContract.sol\":3051:3097  payable(owner).transfer(address(this).balance) */\n      swap1\n      dup2\n      iszero\n      mul\n      swap1\n      mload(0x40)\n      0x00\n      mload(0x40)\n      dup1\n      dup4\n      sub\n      dup2\n      dup6\n      dup9\n      dup9\n      call\n      swap4\n      pop\n      pop\n      pop\n      pop\n      iszero\n      dup1\n      iszero\n      tag_48\n      jumpi\n      returndatacopy(0x00, 0x00, returndatasize)\n      revert(0x00, returndatasize)\n    tag_48:\n      pop\n        /* \"contracts/task3/BeggingContract.sol\":3001:3105  function withdraw() external onlyOwner {... */\n      jump\t// out\n        /* \"contracts/task3/BeggingContract.sol\":3113:3298  function getDonation(address donator) external view returns(uint256) {... */\n    tag_17:\n        /* \"contracts/task3/BeggingContract.sol\":3173:3180  uint256 */\n      0x00\n        /* \"contracts/task3/BeggingContract.sol\":3220:3221  0 */\n      0x00\n        /* \"contracts/task3/BeggingContract.sol\":3201:3222  donator != address(0) */\n      0xffffffffffffffffffffffffffffffffffffffff\n      and\n        /* \"contracts/task3/BeggingContract.sol\":3201:3208  donator */\n      dup3\n        /* \"contracts/task3/BeggingContract.sol\":3201:3222  donator != address(0) */\n      0xffffffffffffffffffffffffffffffffffffffff\n      and\n      sub\n        /* \"contracts/task3/BeggingContract.sol\":3193:3249  require(donator != address(0), \"donator is a 0 address\") */\n      tag_50\n      jumpi\n      mload(0x40)\n      0x08c379a000000000000000000000000000000000000000000000000000000000\n      dup2\n      mstore\n      0x04\n      add\n      tag_51\n      swap1\n      tag_52\n      jump\t// in\n    tag_51:\n      mload(0x40)\n      dup1\n      swap2\n      sub\n      swap1\n      revert\n    tag_50:\n        /* \"contracts/task3/BeggingContract.sol\":3269:3281  donatorTotal */\n      0x01\n        /* \"contracts/task3/BeggingContract.sol\":3269:3290  donatorTotal[donator] */\n      0x00\n        /* \"contracts/task3/BeggingContract.sol\":3282:3289  donator */\n      dup4\n        /* \"contracts/task3/BeggingContract.sol\":3269:3290  donatorTotal[donator] */\n      0xffffffffffffffffffffffffffffffffffffffff\n      and\n      0xffffffffffffffffffffffffffffffffffffffff\n      and\n      dup2\n      mstore\n      0x20\n      add\n      swap1\n      dup2\n      mstore\n      0x20\n      add\n      0x00\n      keccak256\n      sload\n        /* \"contracts/task3/BeggingContract.sol\":3262:3290  return donatorTotal[donator] */\n      swap1\n      pop\n        /* \"contracts/task3/BeggingContract.sol\":3113:3298  function getDonation(address donator) external view returns(uint256) {... */\n      swap2\n      swap1\n      pop\n      jump\t// out\n        /* \"contracts/task3/BeggingContract.sol\":818:871  uint256 public constant TARGET_TIMESTAMP = 1735702861 */\n    tag_22:\n        /* \"contracts/task3/BeggingContract.sol\":861:871  1735702861 */\n      0x6774b94d\n        /* \"contracts/task3/BeggingContract.sol\":818:871  uint256 public constant TARGET_TIMESTAMP = 1735702861 */\n      dup2\n      jump\t// out\n        /* \"contracts/task3/BeggingContract.sol\":138:158  address public owner */\n    tag_26:\n      0x00\n      0x00\n      swap1\n      sload\n      swap1\n      0x0100\n      exp\n      swap1\n      div\n      0xffffffffffffffffffffffffffffffffffffffff\n      and\n      dup2\n      jump\t// out\n        /* \"contracts/task3/BeggingContract.sol\":573:603  address[3] public top3Donators */\n    tag_33:\n      0x04\n      dup2\n      0x03\n      dup2\n      lt\n      tag_53\n      jumpi\n      0x00\n      dup1\n      revert\n    tag_53:\n      add\n      0x00\n      swap2\n      pop\n      sload\n      swap1\n      0x0100\n      exp\n      swap1\n      div\n      0xffffffffffffffffffffffffffffffffffffffff\n      and\n      dup2\n      jump\t// out\n        /* \"contracts/task3/BeggingContract.sol\":165:212  mapping(address => uint256) public donatorTotal */\n    tag_38:\n      mstore(0x20, 0x01)\n      dup1\n      0x00\n      mstore\n      keccak256(0x00, 0x40)\n      0x00\n      swap2\n      pop\n      swap1\n      pop\n      sload\n      dup2\n      jump\t// out\n        /* \"contracts/task3/BeggingContract.sol\":1027:2993  function donate() external payable timeLimit {... */\n    tag_41:\n        /* \"contracts/task3/BeggingContract.sol\":861:871  1735702861 */\n      0x6774b94d\n        /* \"contracts/task3/BeggingContract.sol\":918:933  block.timestamp */\n      timestamp\n        /* \"contracts/task3/BeggingContract.sol\":918:952  block.timestamp > TARGET_TIMESTAMP */\n      gt\n        /* \"contracts/task3/BeggingContract.sol\":910:999  require(block.timestamp > TARGET_TIMESTAMP, \"donate start after 2025-01-01 01:01:01 UTC\") */\n      tag_56\n      jumpi\n      mload(0x40)\n      0x08c379a000000000000000000000000000000000000000000000000000000000\n      dup2\n      mstore\n      0x04\n      add\n      tag_57\n      swap1\n      tag_58\n      jump\t// in\n    tag_57:\n      mload(0x40)\n      dup1\n      swap2\n      sub\n      swap1\n      revert\n    tag_56:\n        /* \"contracts/task3/BeggingContract.sol\":1103:1104  0 */\n      0x00\n        /* \"contracts/task3/BeggingContract.sol\":1091:1100  msg.value */\n      callvalue\n        /* \"contracts/task3/BeggingContract.sol\":1091:1104  msg.value > 0 */\n      gt\n        /* \"contracts/task3/BeggingContract.sol\":1083:1137  require(msg.value > 0, \"value must be greater than 0\") */\n      tag_60\n      jumpi\n      mload(0x40)\n      0x08c379a000000000000000000000000000000000000000000000000000000000\n      dup2\n      mstore\n      0x04\n      add\n      tag_61\n      swap1\n      tag_62\n      jump\t// in\n    tag_61:\n      mload(0x40)\n      dup1\n      swap2\n      sub\n      swap1\n      revert\n    tag_60:\n        /* \"contracts/task3/BeggingContract.sol\":1331:1362  Donation(msg.sender, msg.value) */\n      0x5d8bc849764969eb1bcc6d0a2f55999d0167c1ccec240a4f39cf664ca9c4148e\n        /* \"contracts/task3/BeggingContract.sol\":1340:1350  msg.sender */\n      caller\n        /* \"contracts/task3/BeggingContract.sol\":1352:1361  msg.value */\n      callvalue\n        /* \"contracts/task3/BeggingContract.sol\":1331:1362  Donation(msg.sender, msg.value) */\n      mload(0x40)\n      tag_63\n      swap3\n      swap2\n      swap1\n      tag_64\n      jump\t// in\n    tag_63:\n      mload(0x40)\n      dup1\n      swap2\n      sub\n      swap1\n      log1\n        /* \"contracts/task3/BeggingContract.sol\":1401:1410  msg.value */\n      callvalue\n        /* \"contracts/task3/BeggingContract.sol\":1373:1385  donatorTotal */\n      0x01\n        /* \"contracts/task3/BeggingContract.sol\":1373:1397  donatorTotal[msg.sender] */\n      0x00\n        /* \"contracts/task3/BeggingContract.sol\":1386:1396  msg.sender */\n      caller\n        /* \"contracts/task3/BeggingContract.sol\":1373:1397  donatorTotal[msg.sender] */\n      0xffffffffffffffffffffffffffffffffffffffff\n      and\n      0xffffffffffffffffffffffffffffffffffffffff\n      and\n      dup2\n      mstore\n      0x20\n      add\n      swap1\n      dup2\n      mstore\n      0x20\n      add\n      0x00\n      keccak256\n      0x00\n        /* \"contracts/task3/BeggingContract.sol\":1373:1410  donatorTotal[msg.sender] += msg.value */\n      dup3\n      dup3\n      sload\n      tag_65\n      swap2\n      swap1\n      tag_66\n      jump\t// in\n    tag_65:\n      swap3\n      pop\n      pop\n      dup2\n      swap1\n      sstore\n      pop\n        /* \"contracts/task3/BeggingContract.sol\":1423:1440  uint256 curAmount */\n      0x00\n        /* \"contracts/task3/BeggingContract.sol\":1451:1469  address curDonator */\n      0x00\n        /* \"contracts/task3/BeggingContract.sol\":1510:1523  top3MinAmount */\n      sload(0x02)\n        /* \"contracts/task3/BeggingContract.sol\":1483:1495  donatorTotal */\n      0x01\n        /* \"contracts/task3/BeggingContract.sol\":1483:1507  donatorTotal[msg.sender] */\n      0x00\n        /* \"contracts/task3/BeggingContract.sol\":1496:1506  msg.sender */\n      caller\n        /* \"contracts/task3/BeggingContract.sol\":1483:1507  donatorTotal[msg.sender] */\n      0xffffffffffffffffffffffffffffffffffffffff\n      and\n      0xffffffffffffffffffffffffffffffffffffffff\n      and\n      dup2\n      mstore\n      0x20\n      add\n      swap1\n      dup2\n      mstore\n      0x20\n      add\n      0x00\n      keccak256\n      sload\n        /* \"contracts/task3/BeggingContract.sol\":1483:1523  donatorTotal[msg.sender] > top3MinAmount */\n      gt\n        /* \"contracts/task3/BeggingContract.sol\":1480:2986  if(donatorTotal[msg.sender] > top3MinAmount) {... */\n      iszero\n      tag_67\n      jumpi\n        /* \"contracts/task3/BeggingContract.sol\":1540:1558  bool CountGreater3 */\n      0x00\n        /* \"contracts/task3/BeggingContract.sol\":1561:1565  true */\n      0x01\n        /* \"contracts/task3/BeggingContract.sol\":1540:1565  bool CountGreater3 = true */\n      swap1\n      pop\n        /* \"contracts/task3/BeggingContract.sol\":1585:1594  uint256 i */\n      0x00\n        /* \"contracts/task3/BeggingContract.sol\":1595:1596  0 */\n      0x00\n        /* \"contracts/task3/BeggingContract.sol\":1585:1596  uint256 i=0 */\n      swap1\n      pop\n        /* \"contracts/task3/BeggingContract.sol\":1580:2419  for (uint256 i=0; i < 3; i++) {... */\n    tag_68:\n        /* \"contracts/task3/BeggingContract.sol\":1602:1603  3 */\n      0x03\n        /* \"contracts/task3/BeggingContract.sol\":1598:1599  i */\n      dup2\n        /* \"contracts/task3/BeggingContract.sol\":1598:1603  i < 3 */\n      lt\n        /* \"contracts/task3/BeggingContract.sol\":1580:2419  for (uint256 i=0; i < 3; i++) {... */\n      iszero\n      tag_69\n      jumpi\n        /* \"contracts/task3/BeggingContract.sol\":1660:1661  0 */\n      0x00\n        /* \"contracts/task3/BeggingContract.sol\":1633:1662  top3Donators[i] == address(0) */\n      0xffffffffffffffffffffffffffffffffffffffff\n      and\n        /* \"contracts/task3/BeggingContract.sol\":1633:1645  top3Donators */\n      0x04\n        /* \"contracts/task3/BeggingContract.sol\":1646:1647  i */\n      dup3\n        /* \"contracts/task3/BeggingContract.sol\":1633:1648  top3Donators[i] */\n      0x03\n      dup2\n      lt\n      tag_71\n      jumpi\n      tag_72\n      tag_73\n      jump\t// in\n    tag_72:\n    tag_71:\n      add\n      0x00\n      swap1\n      sload\n      swap1\n      0x0100\n      exp\n      swap1\n      div\n      0xffffffffffffffffffffffffffffffffffffffff\n      and\n        /* \"contracts/task3/BeggingContract.sol\":1633:1662  top3Donators[i] == address(0) */\n      0xffffffffffffffffffffffffffffffffffffffff\n      and\n      sub\n        /* \"contracts/task3/BeggingContract.sol\":1629:2404  if (top3Donators[i] == address(0)) { // 捐赠者还没达到3个... */\n      tag_75\n      jumpi\n        /* \"contracts/task3/BeggingContract.sol\":1732:1737  false */\n      0x00\n        /* \"contracts/task3/BeggingContract.sol\":1716:1737  CountGreater3 = false */\n      swap2\n      pop\n        /* \"contracts/task3/BeggingContract.sol\":1780:1790  msg.sender */\n      caller\n        /* \"contracts/task3/BeggingContract.sol\":1762:1774  top3Donators */\n      0x04\n        /* \"contracts/task3/BeggingContract.sol\":1775:1776  i */\n      dup3\n        /* \"contracts/task3/BeggingContract.sol\":1762:1777  top3Donators[i] */\n      0x03\n      dup2\n      lt\n      tag_76\n      jumpi\n      tag_77\n      tag_73\n      jump\t// in\n    tag_77:\n    tag_76:\n      add\n      0x00\n        /* \"contracts/task3/BeggingContract.sol\":1762:1790  top3Donators[i] = msg.sender */\n      0x0100\n      exp\n      dup2\n      sload\n      dup2\n      0xffffffffffffffffffffffffffffffffffffffff\n      mul\n      not\n      and\n      swap1\n      dup4\n      0xffffffffffffffffffffffffffffffffffffffff\n      and\n      mul\n      or\n      swap1\n      sstore\n      pop\n        /* \"contracts/task3/BeggingContract.sol\":1821:1822  2 */\n      0x02\n        /* \"contracts/task3/BeggingContract.sol\":1816:1817  i */\n      dup2\n        /* \"contracts/task3/BeggingContract.sol\":1816:1822  i != 2 */\n      sub\n        /* \"contracts/task3/BeggingContract.sol\":1824:1829  break */\n      tag_69\n        /* \"contracts/task3/BeggingContract.sol\":1813:1829  if(i != 2) break */\n      jumpi\n        /* \"contracts/task3/BeggingContract.sol\":1976:1988  donatorTotal */\n      0x01\n        /* \"contracts/task3/BeggingContract.sol\":1976:2005  donatorTotal[top3Donators[0]] */\n      0x00\n        /* \"contracts/task3/BeggingContract.sol\":1989:2001  top3Donators */\n      0x04\n        /* \"contracts/task3/BeggingContract.sol\":2002:2003  0 */\n      0x00\n        /* \"contracts/task3/BeggingContract.sol\":1989:2004  top3Donators[0] */\n      0x03\n      dup2\n      lt\n      tag_80\n      jumpi\n      tag_81\n      tag_73\n      jump\t// in\n    tag_81:\n    tag_80:\n      add\n      0x00\n      swap1\n      sload\n      swap1\n      0x0100\n      exp\n      swap1\n      div\n      0xffffffffffffffffffffffffffffffffffffffff\n      and\n        /* \"contracts/task3/BeggingContract.sol\":1976:2005  donatorTotal[top3Donators[0]] */\n      0xffffffffffffffffffffffffffffffffffffffff\n      and\n      0xffffffffffffffffffffffffffffffffffffffff\n      and\n      dup2\n      mstore\n      0x20\n      add\n      swap1\n      dup2\n      mstore\n      0x20\n      add\n      0x00\n      keccak256\n      sload\n        /* \"contracts/task3/BeggingContract.sol\":1960:1973  top3MinAmount */\n      0x02\n        /* \"contracts/task3/BeggingContract.sol\":1960:2005  top3MinAmount = donatorTotal[top3Donators[0]] */\n      dup2\n      swap1\n      sstore\n      pop\n        /* \"contracts/task3/BeggingContract.sol\":2032:2041  uint256 j */\n      0x00\n        /* \"contracts/task3/BeggingContract.sol\":2042:2043  1 */\n      0x01\n        /* \"contracts/task3/BeggingContract.sol\":2032:2043  uint256 j=1 */\n      swap1\n      pop\n        /* \"contracts/task3/BeggingContract.sol\":2028:2385  for(uint256 j=1; j<3; j++) {... */\n    tag_83:\n        /* \"contracts/task3/BeggingContract.sol\":2047:2048  3 */\n      0x03\n        /* \"contracts/task3/BeggingContract.sol\":2045:2046  j */\n      dup2\n        /* \"contracts/task3/BeggingContract.sol\":2045:2048  j<3 */\n      lt\n        /* \"contracts/task3/BeggingContract.sol\":2028:2385  for(uint256 j=1; j<3; j++) {... */\n      iszero\n      tag_84\n      jumpi\n        /* \"contracts/task3/BeggingContract.sol\":2095:2107  top3Donators */\n      0x04\n        /* \"contracts/task3/BeggingContract.sol\":2108:2109  j */\n      dup2\n        /* \"contracts/task3/BeggingContract.sol\":2095:2110  top3Donators[j] */\n      0x03\n      dup2\n      lt\n      tag_86\n      jumpi\n      tag_87\n      tag_73\n      jump\t// in\n    tag_87:\n    tag_86:\n      add\n      0x00\n      swap1\n      sload\n      swap1\n      0x0100\n      exp\n      swap1\n      div\n      0xffffffffffffffffffffffffffffffffffffffff\n      and\n        /* \"contracts/task3/BeggingContract.sol\":2082:2110  curDonator = top3Donators[j] */\n      swap4\n      pop\n        /* \"contracts/task3/BeggingContract.sol\":2149:2161  donatorTotal */\n      0x01\n        /* \"contracts/task3/BeggingContract.sol\":2149:2173  donatorTotal[curDonator] */\n      0x00\n        /* \"contracts/task3/BeggingContract.sol\":2162:2172  curDonator */\n      dup6\n        /* \"contracts/task3/BeggingContract.sol\":2149:2173  donatorTotal[curDonator] */\n      0xffffffffffffffffffffffffffffffffffffffff\n      and\n      0xffffffffffffffffffffffffffffffffffffffff\n      and\n      dup2\n      mstore\n      0x20\n      add\n      swap1\n      dup2\n      mstore\n      0x20\n      add\n      0x00\n      keccak256\n      sload\n        /* \"contracts/task3/BeggingContract.sol\":2137:2173  curAmount = donatorTotal[curDonator] */\n      swap5\n      pop\n        /* \"contracts/task3/BeggingContract.sol\":2220:2229  curAmount */\n      dup5\n        /* \"contracts/task3/BeggingContract.sol\":2204:2217  top3MinAmount */\n      sload(0x02)\n        /* \"contracts/task3/BeggingContract.sol\":2204:2229  top3MinAmount > curAmount */\n      gt\n        /* \"contracts/task3/BeggingContract.sol\":2200:2362  if (top3MinAmount > curAmount) {... */\n      iszero\n      tag_89\n      jumpi\n        /* \"contracts/task3/BeggingContract.sol\":2278:2287  curAmount */\n      dup5\n        /* \"contracts/task3/BeggingContract.sol\":2262:2275  top3MinAmount */\n      0x02\n        /* \"contracts/task3/BeggingContract.sol\":2262:2287  top3MinAmount = curAmount */\n      dup2\n      swap1\n      sstore\n      pop\n        /* \"contracts/task3/BeggingContract.sol\":2333:2334  j */\n      dup1\n        /* \"contracts/task3/BeggingContract.sol\":2318:2330  top3MinIndex */\n      0x03\n        /* \"contracts/task3/BeggingContract.sol\":2318:2334  top3MinIndex = j */\n      dup2\n      swap1\n      sstore\n      pop\n        /* \"contracts/task3/BeggingContract.sol\":2200:2362  if (top3MinAmount > curAmount) {... */\n    tag_89:\n        /* \"contracts/task3/BeggingContract.sol\":2050:2053  j++ */\n      dup1\n      dup1\n      0x01\n      add\n      swap2\n      pop\n      pop\n        /* \"contracts/task3/BeggingContract.sol\":2028:2385  for(uint256 j=1; j<3; j++) {... */\n      jump(tag_83)\n    tag_84:\n      pop\n        /* \"contracts/task3/BeggingContract.sol\":1629:2404  if (top3Donators[i] == address(0)) { // 捐赠者还没达到3个... */\n    tag_75:\n        /* \"contracts/task3/BeggingContract.sol\":1605:1608  i++ */\n      dup1\n      dup1\n      0x01\n      add\n      swap2\n      pop\n      pop\n        /* \"contracts/task3/BeggingContract.sol\":1580:2419  for (uint256 i=0; i < 3; i++) {... */\n      jump(tag_68)\n    tag_69:\n      pop\n        /* \"contracts/task3/BeggingContract.sol\":2439:2452  CountGreater3 */\n      dup1\n        /* \"contracts/task3/BeggingContract.sol\":2435:2975  if (CountGreater3) { // 捐赠者达到3个,执行... */\n      iszero\n      tag_90\n      jumpi\n        /* \"contracts/task3/BeggingContract.sol\":2532:2542  msg.sender */\n      caller\n        /* \"contracts/task3/BeggingContract.sol\":2503:2515  top3Donators */\n      0x04\n        /* \"contracts/task3/BeggingContract.sol\":2516:2528  top3MinIndex */\n      sload(0x03)\n        /* \"contracts/task3/BeggingContract.sol\":2503:2529  top3Donators[top3MinIndex] */\n      0x03\n      dup2\n      lt\n      tag_91\n      jumpi\n      tag_92\n      tag_73\n      jump\t// in\n    tag_92:\n    tag_91:\n      add\n      0x00\n        /* \"contracts/task3/BeggingContract.sol\":2503:2542  top3Donators[top3MinIndex] = msg.sender */\n      0x0100\n      exp\n      dup2\n      sload\n      dup2\n      0xffffffffffffffffffffffffffffffffffffffff\n      mul\n      not\n      and\n      swap1\n      dup4\n      0xffffffffffffffffffffffffffffffffffffffff\n      and\n      mul\n      or\n      swap1\n      sstore\n      pop\n        /* \"contracts/task3/BeggingContract.sol\":2577:2589  donatorTotal */\n      0x01\n        /* \"contracts/task3/BeggingContract.sol\":2577:2601  donatorTotal[msg.sender] */\n      0x00\n        /* \"contracts/task3/BeggingContract.sol\":2590:2600  msg.sender */\n      caller\n        /* \"contracts/task3/BeggingContract.sol\":2577:2601  donatorTotal[msg.sender] */\n      0xffffffffffffffffffffffffffffffffffffffff\n      and\n      0xffffffffffffffffffffffffffffffffffffffff\n      and\n      dup2\n      mstore\n      0x20\n      add\n      swap1\n      dup2\n      mstore\n      0x20\n      add\n      0x00\n      keccak256\n      sload\n        /* \"contracts/task3/BeggingContract.sol\":2561:2574  top3MinAmount */\n      0x02\n        /* \"contracts/task3/BeggingContract.sol\":2561:2601  top3MinAmount = donatorTotal[msg.sender] */\n      dup2\n      swap1\n      sstore\n      pop\n        /* \"contracts/task3/BeggingContract.sol\":2625:2634  uint256 i */\n      0x00\n        /* \"contracts/task3/BeggingContract.sol\":2635:2636  0 */\n      0x00\n        /* \"contracts/task3/BeggingContract.sol\":2625:2636  uint256 i=0 */\n      swap1\n      pop\n        /* \"contracts/task3/BeggingContract.sol\":2620:2960  for (uint256 i=0; i < 3; i++) {... */\n    tag_94:\n        /* \"contracts/task3/BeggingContract.sol\":2642:2643  3 */\n      0x03\n        /* \"contracts/task3/BeggingContract.sol\":2638:2639  i */\n      dup2\n        /* \"contracts/task3/BeggingContract.sol\":2638:2643  i < 3 */\n      lt\n        /* \"contracts/task3/BeggingContract.sol\":2620:2960  for (uint256 i=0; i < 3; i++) {... */\n      iszero\n      tag_95\n      jumpi\n        /* \"contracts/task3/BeggingContract.sol\":2681:2693  top3MinIndex */\n      sload(0x03)\n        /* \"contracts/task3/BeggingContract.sol\":2676:2677  i */\n      dup2\n        /* \"contracts/task3/BeggingContract.sol\":2676:2693  i == top3MinIndex */\n      sub\n        /* \"contracts/task3/BeggingContract.sol\":2673:2703  if(i == top3MinIndex) continue */\n      iszero\n        /* \"contracts/task3/BeggingContract.sol\":2695:2703  continue */\n      tag_96\n        /* \"contracts/task3/BeggingContract.sol\":2673:2703  if(i == top3MinIndex) continue */\n      jumpi\n        /* \"contracts/task3/BeggingContract.sol\":2740:2752  donatorTotal */\n      0x01\n        /* \"contracts/task3/BeggingContract.sol\":2740:2769  donatorTotal[top3Donators[i]] */\n      0x00\n        /* \"contracts/task3/BeggingContract.sol\":2753:2765  top3Donators */\n      0x04\n        /* \"contracts/task3/BeggingContract.sol\":2766:2767  i */\n      dup4\n        /* \"contracts/task3/BeggingContract.sol\":2753:2768  top3Donators[i] */\n      0x03\n      dup2\n      lt\n      tag_98\n      jumpi\n      tag_99\n      tag_73\n      jump\t// in\n    tag_99:\n    tag_98:\n      add\n      0x00\n      swap1\n      sload\n      swap1\n      0x0100\n      exp\n      swap1\n      div\n      0xffffffffffffffffffffffffffffffffffffffff\n      and\n        /* \"contracts/task3/BeggingContract.sol\":2740:2769  donatorTotal[top3Donators[i]] */\n      0xffffffffffffffffffffffffffffffffffffffff\n      and\n      0xffffffffffffffffffffffffffffffffffffffff\n      and\n      dup2\n      mstore\n      0x20\n      add\n      swap1\n      dup2\n      mstore\n      0x20\n      add\n      0x00\n      keccak256\n      sload\n        /* \"contracts/task3/BeggingContract.sol\":2728:2769  curAmount = donatorTotal[top3Donators[i]] */\n      swap4\n      pop\n        /* \"contracts/task3/BeggingContract.sol\":2811:2820  curAmount */\n      dup4\n        /* \"contracts/task3/BeggingContract.sol\":2795:2808  top3MinAmount */\n      sload(0x02)\n        /* \"contracts/task3/BeggingContract.sol\":2795:2820  top3MinAmount > curAmount */\n      gt\n        /* \"contracts/task3/BeggingContract.sol\":2792:2941  if(top3MinAmount > curAmount) {... */\n      iszero\n      tag_101\n      jumpi\n        /* \"contracts/task3/BeggingContract.sol\":2865:2874  curAmount */\n      dup4\n        /* \"contracts/task3/BeggingContract.sol\":2849:2862  top3MinAmount */\n      0x02\n        /* \"contracts/task3/BeggingContract.sol\":2849:2874  top3MinAmount = curAmount */\n      dup2\n      swap1\n      sstore\n      pop\n        /* \"contracts/task3/BeggingContract.sol\":2916:2917  i */\n      dup1\n        /* \"contracts/task3/BeggingContract.sol\":2901:2913  top3MinIndex */\n      0x03\n        /* \"contracts/task3/BeggingContract.sol\":2901:2917  top3MinIndex = i */\n      dup2\n      swap1\n      sstore\n      pop\n        /* \"contracts/task3/BeggingContract.sol\":2792:2941  if(top3MinAmount > curAmount) {... */\n    tag_101:\n        /* \"contracts/task3/BeggingContract.sol\":2620:2960  for (uint256 i=0; i < 3; i++) {... */\n    tag_96:\n        /* \"contracts/task3/BeggingContract.sol\":2645:2648  i++ */\n      dup1\n      dup1\n      0x01\n      add\n      swap2\n      pop\n      pop\n        /* \"contracts/task3/BeggingContract.sol\":2620:2960  for (uint256 i=0; i < 3; i++) {... */\n      jump(tag_94)\n    tag_95:\n      pop\n        /* \"contracts/task3/BeggingContract.sol\":2435:2975  if (CountGreater3) { // 捐赠者达到3个,执行... */\n    tag_90:\n        /* \"contracts/task3/BeggingContract.sol\":1525:2986  {... */\n      pop\n        /* \"contracts/task3/BeggingContract.sol\":1480:2986  if(donatorTotal[msg.sender] > top3MinAmount) {... */\n    tag_67:\n        /* \"contracts/task3/BeggingContract.sol\":1072:2993  {... */\n      pop\n      pop\n        /* \"contracts/task3/BeggingContract.sol\":1027:2993  function donate() external payable timeLimit {... */\n      jump\t// out\n        /* \"#utility.yul\":88:205   */\n    tag_103:\n        /* \"#utility.yul\":197:198   */\n      0x00\n        /* \"#utility.yul\":194:195   */\n      0x00\n        /* \"#utility.yul\":187:199   */\n      revert\n        /* \"#utility.yul\":334:460   */\n    tag_105:\n        /* \"#utility.yul\":371:378   */\n      0x00\n        /* \"#utility.yul\":411:453   */\n      0xffffffffffffffffffffffffffffffffffffffff\n        /* \"#utility.yul\":404:409   */\n      dup3\n        /* \"#utility.yul\":400:454   */\n      and\n        /* \"#utility.yul\":389:454   */\n      swap1\n      pop\n        /* \"#utility.yul\":334:460   */\n      swap2\n      swap1\n      pop\n      jump\t// out\n        /* \"#utility.yul\":466:562   */\n    tag_106:\n        /* \"#utility.yul\":503:510   */\n      0x00\n        /* \"#utility.yul\":532:556   */\n      tag_130\n        /* \"#utility.yul\":550:555   */\n      dup3\n        /* \"#utility.yul\":532:556   */\n      tag_105\n      jump\t// in\n    tag_130:\n        /* \"#utility.yul\":521:556   */\n      swap1\n      pop\n        /* \"#utility.yul\":466:562   */\n      swap2\n      swap1\n      pop\n      jump\t// out\n        /* \"#utility.yul\":568:690   */\n    tag_107:\n        /* \"#utility.yul\":641:665   */\n      tag_132\n        /* \"#utility.yul\":659:664   */\n      dup2\n        /* \"#utility.yul\":641:665   */\n      tag_106\n      jump\t// in\n    tag_132:\n        /* \"#utility.yul\":634:639   */\n      dup2\n        /* \"#utility.yul\":631:666   */\n      eq\n        /* \"#utility.yul\":621:684   */\n      tag_133\n      jumpi\n        /* \"#utility.yul\":680:681   */\n      0x00\n        /* \"#utility.yul\":677:678   */\n      0x00\n        /* \"#utility.yul\":670:682   */\n      revert\n        /* \"#utility.yul\":621:684   */\n    tag_133:\n        /* \"#utility.yul\":568:690   */\n      pop\n      jump\t// out\n        /* \"#utility.yul\":696:835   */\n    tag_108:\n        /* \"#utility.yul\":742:747   */\n      0x00\n        /* \"#utility.yul\":780:786   */\n      dup2\n        /* \"#utility.yul\":767:787   */\n      calldataload\n        /* \"#utility.yul\":758:787   */\n      swap1\n      pop\n        /* \"#utility.yul\":796:829   */\n      tag_135\n        /* \"#utility.yul\":823:828   */\n      dup2\n        /* \"#utility.yul\":796:829   */\n      tag_107\n      jump\t// in\n    tag_135:\n        /* \"#utility.yul\":696:835   */\n      swap3\n      swap2\n      pop\n      pop\n      jump\t// out\n        /* \"#utility.yul\":841:1170   */\n    tag_16:\n        /* \"#utility.yul\":900:906   */\n      0x00\n        /* \"#utility.yul\":949:951   */\n      0x20\n        /* \"#utility.yul\":937:946   */\n      dup3\n        /* \"#utility.yul\":928:935   */\n      dup5\n        /* \"#utility.yul\":924:947   */\n      sub\n        /* \"#utility.yul\":920:952   */\n      slt\n        /* \"#utility.yul\":917:1036   */\n      iszero\n      tag_137\n      jumpi\n        /* \"#utility.yul\":955:1034   */\n      tag_138\n      tag_103\n      jump\t// in\n    tag_138:\n        /* \"#utility.yul\":917:1036   */\n    tag_137:\n        /* \"#utility.yul\":1075:1076   */\n      0x00\n        /* \"#utility.yul\":1100:1153   */\n      tag_139\n        /* \"#utility.yul\":1145:1152   */\n      dup5\n        /* \"#utility.yul\":1136:1142   */\n      dup3\n        /* \"#utility.yul\":1125:1134   */\n      dup6\n        /* \"#utility.yul\":1121:1143   */\n      add\n        /* \"#utility.yul\":1100:1153   */\n      tag_108\n      jump\t// in\n    tag_139:\n        /* \"#utility.yul\":1090:1153   */\n      swap2\n      pop\n        /* \"#utility.yul\":1046:1163   */\n      pop\n        /* \"#utility.yul\":841:1170   */\n      swap3\n      swap2\n      pop\n      pop\n      jump\t// out\n        /* \"#utility.yul\":1176:1253   */\n    tag_109:\n        /* \"#utility.yul\":1213:1220   */\n      0x00\n        /* \"#utility.yul\":1242:1247   */\n      dup2\n        /* \"#utility.yul\":1231:1247   */\n      swap1\n      pop\n        /* \"#utility.yul\":1176:1253   */\n      swap2\n      swap1\n      pop\n      jump\t// out\n        /* \"#utility.yul\":1259:1377   */\n    tag_110:\n        /* \"#utility.yul\":1346:1370   */\n      tag_142\n        /* \"#utility.yul\":1364:1369   */\n      dup2\n        /* \"#utility.yul\":1346:1370   */\n      tag_109\n      jump\t// in\n    tag_142:\n        /* \"#utility.yul\":1341:1344   */\n      dup3\n        /* \"#utility.yul\":1334:1371   */\n      mstore\n        /* \"#utility.yul\":1259:1377   */\n      pop\n      pop\n      jump\t// out\n        /* \"#utility.yul\":1383:1605   */\n    tag_19:\n        /* \"#utility.yul\":1476:1480   */\n      0x00\n        /* \"#utility.yul\":1514:1516   */\n      0x20\n        /* \"#utility.yul\":1503:1512   */\n      dup3\n        /* \"#utility.yul\":1499:1517   */\n      add\n        /* \"#utility.yul\":1491:1517   */\n      swap1\n      pop\n        /* \"#utility.yul\":1527:1598   */\n      tag_144\n        /* \"#utility.yul\":1595:1596   */\n      0x00\n        /* \"#utility.yul\":1584:1593   */\n      dup4\n        /* \"#utility.yul\":1580:1597   */\n      add\n        /* \"#utility.yul\":1571:1577   */\n      dup5\n        /* \"#utility.yul\":1527:1598   */\n      tag_110\n      jump\t// in\n    tag_144:\n        /* \"#utility.yul\":1383:1605   */\n      swap3\n      swap2\n      pop\n      pop\n      jump\t// out\n        /* \"#utility.yul\":1611:1729   */\n    tag_111:\n        /* \"#utility.yul\":1698:1722   */\n      tag_146\n        /* \"#utility.yul\":1716:1721   */\n      dup2\n        /* \"#utility.yul\":1698:1722   */\n      tag_106\n      jump\t// in\n    tag_146:\n        /* \"#utility.yul\":1693:1696   */\n      dup3\n        /* \"#utility.yul\":1686:1723   */\n      mstore\n        /* \"#utility.yul\":1611:1729   */\n      pop\n      pop\n      jump\t// out\n        /* \"#utility.yul\":1735:1957   */\n    tag_28:\n        /* \"#utility.yul\":1828:1832   */\n      0x00\n        /* \"#utility.yul\":1866:1868   */\n      0x20\n        /* \"#utility.yul\":1855:1864   */\n      dup3\n        /* \"#utility.yul\":1851:1869   */\n      add\n        /* \"#utility.yul\":1843:1869   */\n      swap1\n      pop\n        /* \"#utility.yul\":1879:1950   */\n      tag_148\n        /* \"#utility.yul\":1947:1948   */\n      0x00\n        /* \"#utility.yul\":1936:1945   */\n      dup4\n        /* \"#utility.yul\":1932:1949   */\n      add\n        /* \"#utility.yul\":1923:1929   */\n      dup5\n        /* \"#utility.yul\":1879:1950   */\n      tag_111\n      jump\t// in\n    tag_148:\n        /* \"#utility.yul\":1735:1957   */\n      swap3\n      swap2\n      pop\n      pop\n      jump\t// out\n        /* \"#utility.yul\":1963:2085   */\n    tag_112:\n        /* \"#utility.yul\":2036:2060   */\n      tag_150\n        /* \"#utility.yul\":2054:2059   */\n      dup2\n        /* \"#utility.yul\":2036:2060   */\n      tag_109\n      jump\t// in\n    tag_150:\n        /* \"#utility.yul\":2029:2034   */\n      dup2\n        /* \"#utility.yul\":2026:2061   */\n      eq\n        /* \"#utility.yul\":2016:2079   */\n      tag_151\n      jumpi\n        /* \"#utility.yul\":2075:2076   */\n      0x00\n        /* \"#utility.yul\":2072:2073   */\n      0x00\n        /* \"#utility.yul\":2065:2077   */\n      revert\n        /* \"#utility.yul\":2016:2079   */\n    tag_151:\n        /* \"#utility.yul\":1963:2085   */\n      pop\n      jump\t// out\n        /* \"#utility.yul\":2091:2230   */\n    tag_113:\n        /* \"#utility.yul\":2137:2142   */\n      0x00\n        /* \"#utility.yul\":2175:2181   */\n      dup2\n        /* \"#utility.yul\":2162:2182   */\n      calldataload\n        /* \"#utility.yul\":2153:2182   */\n      swap1\n      pop\n        /* \"#utility.yul\":2191:2224   */\n      tag_153\n        /* \"#utility.yul\":2218:2223   */\n      dup2\n        /* \"#utility.yul\":2191:2224   */\n      tag_112\n      jump\t// in\n    tag_153:\n        /* \"#utility.yul\":2091:2230   */\n      swap3\n      swap2\n      pop\n      pop\n      jump\t// out\n        /* \"#utility.yul\":2236:2565   */\n    tag_32:\n        /* \"#utility.yul\":2295:2301   */\n      0x00\n        /* \"#utility.yul\":2344:2346   */\n      0x20\n        /* \"#utility.yul\":2332:2341   */\n      dup3\n        /* \"#utility.yul\":2323:2330   */\n      dup5\n        /* \"#utility.yul\":2319:2342   */\n      sub\n        /* \"#utility.yul\":2315:2347   */\n      slt\n        /* \"#utility.yul\":2312:2431   */\n      iszero\n      tag_155\n      jumpi\n        /* \"#utility.yul\":2350:2429   */\n      tag_156\n      tag_103\n      jump\t// in\n    tag_156:\n        /* \"#utility.yul\":2312:2431   */\n    tag_155:\n        /* \"#utility.yul\":2470:2471   */\n      0x00\n        /* \"#utility.yul\":2495:2548   */\n      tag_157\n        /* \"#utility.yul\":2540:2547   */\n      dup5\n        /* \"#utility.yul\":2531:2537   */\n      dup3\n        /* \"#utility.yul\":2520:2529   */\n      dup6\n        /* \"#utility.yul\":2516:2538   */\n      add\n        /* \"#utility.yul\":2495:2548   */\n      tag_113\n      jump\t// in\n    tag_157:\n        /* \"#utility.yul\":2485:2548   */\n      swap2\n      pop\n        /* \"#utility.yul\":2441:2558   */\n      pop\n        /* \"#utility.yul\":2236:2565   */\n      swap3\n      swap2\n      pop\n      pop\n      jump\t// out\n        /* \"#utility.yul\":2571:2740   */\n    tag_114:\n        /* \"#utility.yul\":2655:2666   */\n      0x00\n        /* \"#utility.yul\":2689:2695   */\n      dup3\n        /* \"#utility.yul\":2684:2687   */\n      dup3\n        /* \"#utility.yul\":2677:2696   */\n      mstore\n        /* \"#utility.yul\":2729:2733   */\n      0x20\n        /* \"#utility.yul\":2724:2727   */\n      dup3\n        /* \"#utility.yul\":2720:2734   */\n      add\n        /* \"#utility.yul\":2705:2734   */\n      swap1\n      pop\n        /* \"#utility.yul\":2571:2740   */\n      swap3\n      swap2\n      pop\n      pop\n      jump\t// out\n        /* \"#utility.yul\":2746:2913   */\n    tag_115:\n        /* \"#utility.yul\":2886:2905   */\n      0x796f7520617265206e6f74206f776e6572000000000000000000000000000000\n        /* \"#utility.yul\":2882:2883   */\n      0x00\n        /* \"#utility.yul\":2874:2880   */\n      dup3\n        /* \"#utility.yul\":2870:2884   */\n      add\n        /* \"#utility.yul\":2863:2906   */\n      mstore\n        /* \"#utility.yul\":2746:2913   */\n      pop\n      jump\t// out\n        /* \"#utility.yul\":2919:3285   */\n    tag_116:\n        /* \"#utility.yul\":3061:3064   */\n      0x00\n        /* \"#utility.yul\":3082:3149   */\n      tag_161\n        /* \"#utility.yul\":3146:3148   */\n      0x11\n        /* \"#utility.yul\":3141:3144   */\n      dup4\n        /* \"#utility.yul\":3082:3149   */\n      tag_114\n      jump\t// in\n    tag_161:\n        /* \"#utility.yul\":3075:3149   */\n      swap2\n      pop\n        /* \"#utility.yul\":3158:3251   */\n      tag_162\n        /* \"#utility.yul\":3247:3250   */\n      dup3\n        /* \"#utility.yul\":3158:3251   */\n      tag_115\n      jump\t// in\n    tag_162:\n        /* \"#utility.yul\":3276:3278   */\n      0x20\n        /* \"#utility.yul\":3271:3274   */\n      dup3\n        /* \"#utility.yul\":3267:3279   */\n      add\n        /* \"#utility.yul\":3260:3279   */\n      swap1\n      pop\n        /* \"#utility.yul\":2919:3285   */\n      swap2\n      swap1\n      pop\n      jump\t// out\n        /* \"#utility.yul\":3291:3710   */\n    tag_45:\n        /* \"#utility.yul\":3457:3461   */\n      0x00\n        /* \"#utility.yul\":3495:3497   */\n      0x20\n        /* \"#utility.yul\":3484:3493   */\n      dup3\n        /* \"#utility.yul\":3480:3498   */\n      add\n        /* \"#utility.yul\":3472:3498   */\n      swap1\n      pop\n        /* \"#utility.yul\":3544:3553   */\n      dup2\n        /* \"#utility.yul\":3538:3542   */\n      dup2\n        /* \"#utility.yul\":3534:3554   */\n      sub\n        /* \"#utility.yul\":3530:3531   */\n      0x00\n        /* \"#utility.yul\":3519:3528   */\n      dup4\n        /* \"#utility.yul\":3515:3532   */\n      add\n        /* \"#utility.yul\":3508:3555   */\n      mstore\n        /* \"#utility.yul\":3572:3703   */\n      tag_164\n        /* \"#utility.yul\":3698:3702   */\n      dup2\n        /* \"#utility.yul\":3572:3703   */\n      tag_116\n      jump\t// in\n    tag_164:\n        /* \"#utility.yul\":3564:3703   */\n      swap1\n      pop\n        /* \"#utility.yul\":3291:3710   */\n      swap2\n      swap1\n      pop\n      jump\t// out\n        /* \"#utility.yul\":3716:3888   */\n    tag_117:\n        /* \"#utility.yul\":3856:3880   */\n      0x646f6e61746f7220697320612030206164647265737300000000000000000000\n        /* \"#utility.yul\":3852:3853   */\n      0x00\n        /* \"#utility.yul\":3844:3850   */\n      dup3\n        /* \"#utility.yul\":3840:3854   */\n      add\n        /* \"#utility.yul\":3833:3881   */\n      mstore\n        /* \"#utility.yul\":3716:3888   */\n      pop\n      jump\t// out\n        /* \"#utility.yul\":3894:4260   */\n    tag_118:\n        /* \"#utility.yul\":4036:4039   */\n      0x00\n        /* \"#utility.yul\":4057:4124   */\n      tag_167\n        /* \"#utility.yul\":4121:4123   */\n      0x16\n        /* \"#utility.yul\":4116:4119   */\n      dup4\n        /* \"#utility.yul\":4057:4124   */\n      tag_114\n      jump\t// in\n    tag_167:\n        /* \"#utility.yul\":4050:4124   */\n      swap2\n      pop\n        /* \"#utility.yul\":4133:4226   */\n      tag_168\n        /* \"#utility.yul\":4222:4225   */\n      dup3\n        /* \"#utility.yul\":4133:4226   */\n      tag_117\n      jump\t// in\n    tag_168:\n        /* \"#utility.yul\":4251:4253   */\n      0x20\n        /* \"#utility.yul\":4246:4249   */\n      dup3\n        /* \"#utility.yul\":4242:4254   */\n      add\n        /* \"#utility.yul\":4235:4254   */\n      swap1\n      pop\n        /* \"#utility.yul\":3894:4260   */\n      swap2\n      swap1\n      pop\n      jump\t// out\n        /* \"#utility.yul\":4266:4685   */\n    tag_52:\n        /* \"#utility.yul\":4432:4436   */\n      0x00\n        /* \"#utility.yul\":4470:4472   */\n      0x20\n        /* \"#utility.yul\":4459:4468   */\n      dup3\n        /* \"#utility.yul\":4455:4473   */\n      add\n        /* \"#utility.yul\":4447:4473   */\n      swap1\n      pop\n        /* \"#utility.yul\":4519:4528   */\n      dup2\n        /* \"#utility.yul\":4513:4517   */\n      dup2\n        /* \"#utility.yul\":4509:4529   */\n      sub\n        /* \"#utility.yul\":4505:4506   */\n      0x00\n        /* \"#utility.yul\":4494:4503   */\n      dup4\n        /* \"#utility.yul\":4490:4507   */\n      add\n        /* \"#utility.yul\":4483:4530   */\n      mstore\n        /* \"#utility.yul\":4547:4678   */\n      tag_170\n        /* \"#utility.yul\":4673:4677   */\n      dup2\n        /* \"#utility.yul\":4547:4678   */\n      tag_118\n      jump\t// in\n    tag_170:\n        /* \"#utility.yul\":4539:4678   */\n      swap1\n      pop\n        /* \"#utility.yul\":4266:4685   */\n      swap2\n      swap1\n      pop\n      jump\t// out\n        /* \"#utility.yul\":4691:4920   */\n    tag_119:\n        /* \"#utility.yul\":4831:4865   */\n      0x646f6e61746520737461727420616674657220323032352d30312d3031203031\n        /* \"#utility.yul\":4827:4828   */\n      0x00\n        /* \"#utility.yul\":4819:4825   */\n      dup3\n        /* \"#utility.yul\":4815:4829   */\n      add\n        /* \"#utility.yul\":4808:4866   */\n      mstore\n        /* \"#utility.yul\":4900:4912   */\n      0x3a30313a30312055544300000000000000000000000000000000000000000000\n        /* \"#utility.yul\":4895:4897   */\n      0x20\n        /* \"#utility.yul\":4887:4893   */\n      dup3\n        /* \"#utility.yul\":4883:4898   */\n      add\n        /* \"#utility.yul\":4876:4913   */\n      mstore\n        /* \"#utility.yul\":4691:4920   */\n      pop\n      jump\t// out\n        /* \"#utility.yul\":4926:5292   */\n    tag_120:\n        /* \"#utility.yul\":5068:5071   */\n      0x00\n        /* \"#utility.yul\":5089:5156   */\n      tag_173\n        /* \"#utility.yul\":5153:5155   */\n      0x2a\n        /* \"#utility.yul\":5148:5151   */\n      dup4\n        /* \"#utility.yul\":5089:5156   */\n      tag_114\n      jump\t// in\n    tag_173:\n        /* \"#utility.yul\":5082:5156   */\n      swap2\n      pop\n        /* \"#utility.yul\":5165:5258   */\n      tag_174\n        /* \"#utility.yul\":5254:5257   */\n      dup3\n        /* \"#utility.yul\":5165:5258   */\n      tag_119\n      jump\t// in\n    tag_174:\n        /* \"#utility.yul\":5283:5285   */\n      0x40\n        /* \"#utility.yul\":5278:5281   */\n      dup3\n        /* \"#utility.yul\":5274:5286   */\n      add\n        /* \"#utility.yul\":5267:5286   */\n      swap1\n      pop\n        /* \"#utility.yul\":4926:5292   */\n      swap2\n      swap1\n      pop\n      jump\t// out\n        /* \"#utility.yul\":5298:5717   */\n    tag_58:\n        /* \"#utility.yul\":5464:5468   */\n      0x00\n        /* \"#utility.yul\":5502:5504   */\n      0x20\n        /* \"#utility.yul\":5491:5500   */\n      dup3\n        /* \"#utility.yul\":5487:5505   */\n      add\n        /* \"#utility.yul\":5479:5505   */\n      swap1\n      pop\n        /* \"#utility.yul\":5551:5560   */\n      dup2\n        /* \"#utility.yul\":5545:5549   */\n      dup2\n        /* \"#utility.yul\":5541:5561   */\n      sub\n        /* \"#utility.yul\":5537:5538   */\n      0x00\n        /* \"#utility.yul\":5526:5535   */\n      dup4\n        /* \"#utility.yul\":5522:5539   */\n      add\n        /* \"#utility.yul\":5515:5562   */\n      mstore\n        /* \"#utility.yul\":5579:5710   */\n      tag_176\n        /* \"#utility.yul\":5705:5709   */\n      dup2\n        /* \"#utility.yul\":5579:5710   */\n      tag_120\n      jump\t// in\n    tag_176:\n        /* \"#utility.yul\":5571:5710   */\n      swap1\n      pop\n        /* \"#utility.yul\":5298:5717   */\n      swap2\n      swap1\n      pop\n      jump\t// out\n        /* \"#utility.yul\":5723:5901   */\n    tag_121:\n        /* \"#utility.yul\":5863:5893   */\n      0x76616c7565206d7573742062652067726561746572207468616e203000000000\n        /* \"#utility.yul\":5859:5860   */\n      0x00\n        /* \"#utility.yul\":5851:5857   */\n      dup3\n        /* \"#utility.yul\":5847:5861   */\n      add\n        /* \"#utility.yul\":5840:5894   */\n      mstore\n        /* \"#utility.yul\":5723:5901   */\n      pop\n      jump\t// out\n        /* \"#utility.yul\":5907:6273   */\n    tag_122:\n        /* \"#utility.yul\":6049:6052   */\n      0x00\n        /* \"#utility.yul\":6070:6137   */\n      tag_179\n        /* \"#utility.yul\":6134:6136   */\n      0x1c\n        /* \"#utility.yul\":6129:6132   */\n      dup4\n        /* \"#utility.yul\":6070:6137   */\n      tag_114\n      jump\t// in\n    tag_179:\n        /* \"#utility.yul\":6063:6137   */\n      swap2\n      pop\n        /* \"#utility.yul\":6146:6239   */\n      tag_180\n        /* \"#utility.yul\":6235:6238   */\n      dup3\n        /* \"#utility.yul\":6146:6239   */\n      tag_121\n      jump\t// in\n    tag_180:\n        /* \"#utility.yul\":6264:6266   */\n      0x20\n        /* \"#utility.yul\":6259:6262   */\n      dup3\n        /* \"#utility.yul\":6255:6267   */\n      add\n        /* \"#utility.yul\":6248:6267   */\n      swap1\n      pop\n        /* \"#utility.yul\":5907:6273   */\n      swap2\n      swap1\n      pop\n      jump\t// out\n        /* \"#utility.yul\":6279:6698   */\n    tag_62:\n        /* \"#utility.yul\":6445:6449   */\n      0x00\n        /* \"#utility.yul\":6483:6485   */\n      0x20\n        /* \"#utility.yul\":6472:6481   */\n      dup3\n        /* \"#utility.yul\":6468:6486   */\n      add\n        /* \"#utility.yul\":6460:6486   */\n      swap1\n      pop\n        /* \"#utility.yul\":6532:6541   */\n      dup2\n        /* \"#utility.yul\":6526:6530   */\n      dup2\n        /* \"#utility.yul\":6522:6542   */\n      sub\n        /* \"#utility.yul\":6518:6519   */\n      0x00\n        /* \"#utility.yul\":6507:6516   */\n      dup4\n        /* \"#utility.yul\":6503:6520   */\n      add\n        /* \"#utility.yul\":6496:6543   */\n      mstore\n        /* \"#utility.yul\":6560:6691   */\n      tag_182\n        /* \"#utility.yul\":6686:6690   */\n      dup2\n        /* \"#utility.yul\":6560:6691   */\n      tag_122\n      jump\t// in\n    tag_182:\n        /* \"#utility.yul\":6552:6691   */\n      swap1\n      pop\n        /* \"#utility.yul\":6279:6698   */\n      swap2\n      swap1\n      pop\n      jump\t// out\n        /* \"#utility.yul\":6704:7036   */\n    tag_64:\n        /* \"#utility.yul\":6825:6829   */\n      0x00\n        /* \"#utility.yul\":6863:6865   */\n      0x40\n        /* \"#utility.yul\":6852:6861   */\n      dup3\n        /* \"#utility.yul\":6848:6866   */\n      add\n        /* \"#utility.yul\":6840:6866   */\n      swap1\n      pop\n        /* \"#utility.yul\":6876:6947   */\n      tag_184\n        /* \"#utility.yul\":6944:6945   */\n      0x00\n        /* \"#utility.yul\":6933:6942   */\n      dup4\n        /* \"#utility.yul\":6929:6946   */\n      add\n        /* \"#utility.yul\":6920:6926   */\n      dup6\n        /* \"#utility.yul\":6876:6947   */\n      tag_111\n      jump\t// in\n    tag_184:\n        /* \"#utility.yul\":6957:7029   */\n      tag_185\n        /* \"#utility.yul\":7025:7027   */\n      0x20\n        /* \"#utility.yul\":7014:7023   */\n      dup4\n        /* \"#utility.yul\":7010:7028   */\n      add\n        /* \"#utility.yul\":7001:7007   */\n      dup5\n        /* \"#utility.yul\":6957:7029   */\n      tag_110\n      jump\t// in\n    tag_185:\n        /* \"#utility.yul\":6704:7036   */\n      swap4\n      swap3\n      pop\n      pop\n      pop\n      jump\t// out\n        /* \"#utility.yul\":7042:7222   */\n    tag_123:\n        /* \"#utility.yul\":7090:7167   */\n      0x4e487b7100000000000000000000000000000000000000000000000000000000\n        /* \"#utility.yul\":7087:7088   */\n      0x00\n        /* \"#utility.yul\":7080:7168   */\n      mstore\n        /* \"#utility.yul\":7187:7191   */\n      0x11\n        /* \"#utility.yul\":7184:7185   */\n      0x04\n        /* \"#utility.yul\":7177:7192   */\n      mstore\n        /* \"#utility.yul\":7211:7215   */\n      0x24\n        /* \"#utility.yul\":7208:7209   */\n      0x00\n        /* \"#utility.yul\":7201:7216   */\n      revert\n        /* \"#utility.yul\":7228:7419   */\n    tag_66:\n        /* \"#utility.yul\":7268:7271   */\n      0x00\n        /* \"#utility.yul\":7287:7307   */\n      tag_188\n        /* \"#utility.yul\":7305:7306   */\n      dup3\n        /* \"#utility.yul\":7287:7307   */\n      tag_109\n      jump\t// in\n    tag_188:\n        /* \"#utility.yul\":7282:7307   */\n      swap2\n      pop\n        /* \"#utility.yul\":7321:7341   */\n      tag_189\n        /* \"#utility.yul\":7339:7340   */\n      dup4\n        /* \"#utility.yul\":7321:7341   */\n      tag_109\n      jump\t// in\n    tag_189:\n        /* \"#utility.yul\":7316:7341   */\n      swap3\n      pop\n        /* \"#utility.yul\":7364:7365   */\n      dup3\n        /* \"#utility.yul\":7361:7362   */\n      dup3\n        /* \"#utility.yul\":7357:7366   */\n      add\n        /* \"#utility.yul\":7350:7366   */\n      swap1\n      pop\n        /* \"#utility.yul\":7385:7388   */\n      dup1\n        /* \"#utility.yul\":7382:7383   */\n      dup3\n        /* \"#utility.yul\":7379:7389   */\n      gt\n        /* \"#utility.yul\":7376:7412   */\n      iszero\n      tag_190\n      jumpi\n        /* \"#utility.yul\":7392:7410   */\n      tag_191\n      tag_123\n      jump\t// in\n    tag_191:\n        /* \"#utility.yul\":7376:7412   */\n    tag_190:\n        /* \"#utility.yul\":7228:7419   */\n      swap3\n      swap2\n      pop\n      pop\n      jump\t// out\n        /* \"#utility.yul\":7425:7605   */\n    tag_73:\n        /* \"#utility.yul\":7473:7550   */\n      0x4e487b7100000000000000000000000000000000000000000000000000000000\n        /* \"#utility.yul\":7470:7471   */\n      0x00\n        /* \"#utility.yul\":7463:7551   */\n      mstore\n        /* \"#utility.yul\":7570:7574   */\n      0x32\n        /* \"#utility.yul\":7567:7568   */\n      0x04\n        /* \"#utility.yul\":7560:7575   */\n      mstore\n        /* \"#utility.yul\":7594:7598   */\n      0x24\n        /* \"#utility.yul\":7591:7592   */\n      0x00\n        /* \"#utility.yul\":7584:7599   */\n      revert\n\n    auxdata: 0xa2646970667358221220cdf5d287f2cf09f8e4f0453ac7f9de2af13736c20001923d9de93867bd87c6e964736f6c634300081e0033\n}\n",
				"bytecode": {
					"linkReferences": {},
					"object": "6080604052348015600e575f5ffd5b50335f5f6101000a81548173ffffffffffffffffffffffffffffffffffffffff021916908373ffffffffffffffffffffffffffffffffffffffff160217905550610c728061005b5f395ff3fe60806040526004361061006f575f3560e01c80638da5cb5b1161004d5780638da5cb5b146100ef5780639c6fec9f146101195780639d06d14514610155578063ed88c68e146101915761006f565b80633ccfd60b14610073578063410a1d321461008957806389b7ca12146100c5575b5f5ffd5b34801561007e575f5ffd5b5061008761019b565b005b348015610094575f5ffd5b506100af60048036038101906100aa91906108d9565b61028f565b6040516100bc919061091c565b60405180910390f35b3480156100d0575f5ffd5b506100d9610343565b6040516100e6919061091c565b60405180910390f35b3480156100fa575f5ffd5b5061010361034b565b6040516101109190610944565b60405180910390f35b348015610124575f5ffd5b5061013f600480360381019061013a9190610987565b61036f565b60405161014c9190610944565b60405180910390f35b348015610160575f5ffd5b5061017b600480360381019061017691906108d9565b6103a3565b604051610188919061091c565b60405180910390f35b6101996103b8565b005b5f5f9054906101000a900473ffffffffffffffffffffffffffffffffffffffff1673ffffffffffffffffffffffffffffffffffffffff163373ffffffffffffffffffffffffffffffffffffffff1614610229576040517f08c379a000000000000000000000000000000000000000000000000000000000815260040161022090610a0c565b60405180910390fd5b5f5f9054906101000a900473ffffffffffffffffffffffffffffffffffffffff1673ffffffffffffffffffffffffffffffffffffffff166108fc4790811502906040515f60405180830381858888f1935050505015801561028c573d5f5f3e3d5ffd5b50565b5f5f73ffffffffffffffffffffffffffffffffffffffff168273ffffffffffffffffffffffffffffffffffffffff16036102fe576040517f08c379a00000000000000000000000000000000000000000000000000000000081526004016102f590610a74565b60405180910390fd5b60015f8373ffffffffffffffffffffffffffffffffffffffff1673ffffffffffffffffffffffffffffffffffffffff1681526020019081526020015f20549050919050565b636774b94d81565b5f5f9054906101000a900473ffffffffffffffffffffffffffffffffffffffff1681565b6004816003811061037e575f80fd5b015f915054906101000a900473ffffffffffffffffffffffffffffffffffffffff1681565b6001602052805f5260405f205f915090505481565b636774b94d42116103fe576040517f08c379a00000000000000000000000000000000000000000000000000000000081526004016103f590610b02565b60405180910390fd5b5f3411610440576040517f08c379a000000000000000000000000000000000000000000000000000000000815260040161043790610b6a565b60405180910390fd5b7f5d8bc849764969eb1bcc6d0a2f55999d0167c1ccec240a4f39cf664ca9c4148e3334604051610471929190610b88565b60405180910390a13460015f3373ffffffffffffffffffffffffffffffffffffffff1673ffffffffffffffffffffffffffffffffffffffff1681526020019081526020015f205f8282546104c59190610bdc565b925050819055505f5f60025460015f3373ffffffffffffffffffffffffffffffffffffffff1673ffffffffffffffffffffffffffffffffffffffff1681526020019081526020015f20541115610877575f600190505f5f90505b6003811015610720575f73ffffffffffffffffffffffffffffffffffffffff166004826003811061055357610552610c0f565b5b015f9054906101000a900473ffffffffffffffffffffffffffffffffffffffff1673ffffffffffffffffffffffffffffffffffffffff1603610713575f915033600482600381106105a7576105a6610c0f565b5b015f6101000a81548173ffffffffffffffffffffffffffffffffffffffff021916908373ffffffffffffffffffffffffffffffffffffffff160217905550600281036107205760015f60045f6003811061060457610603610c0f565b5b015f9054906101000a900473ffffffffffffffffffffffffffffffffffffffff1673ffffffffffffffffffffffffffffffffffffffff1673ffffffffffffffffffffffffffffffffffffffff1681526020019081526020015f20546002819055505f600190505b6003811015610711576004816003811061068857610687610c0f565b5b015f9054906101000a900473ffffffffffffffffffffffffffffffffffffffff16935060015f8573ffffffffffffffffffffffffffffffffffffffff1673ffffffffffffffffffffffffffffffffffffffff1681526020019081526020015f205494508460025411156107045784600281905550806003819055505b808060010191505061066b565b505b808060010191505061051f565b508015610875573360046003546003811061073e5761073d610c0f565b5b015f6101000a81548173ffffffffffffffffffffffffffffffffffffffff021916908373ffffffffffffffffffffffffffffffffffffffff16021790555060015f3373ffffffffffffffffffffffffffffffffffffffff1673ffffffffffffffffffffffffffffffffffffffff1681526020019081526020015f20546002819055505f5f90505b6003811015610873576003548103156108665760015f600483600381106107ef576107ee610c0f565b5b015f9054906101000a900473ffffffffffffffffffffffffffffffffffffffff1673ffffffffffffffffffffffffffffffffffffffff1673ffffffffffffffffffffffffffffffffffffffff1681526020019081526020015f205493508360025411156108655783600281905550806003819055505b5b80806001019150506107c5565b505b505b5050565b5f5ffd5b5f73ffffffffffffffffffffffffffffffffffffffff82169050919050565b5f6108a88261087f565b9050919050565b6108b88161089e565b81146108c2575f5ffd5b50565b5f813590506108d3816108af565b92915050565b5f602082840312156108ee576108ed61087b565b5b5f6108fb848285016108c5565b91505092915050565b5f819050919050565b61091681610904565b82525050565b5f60208201905061092f5f83018461090d565b92915050565b61093e8161089e565b82525050565b5f6020820190506109575f830184610935565b92915050565b61096681610904565b8114610970575f5ffd5b50565b5f813590506109818161095d565b92915050565b5f6020828403121561099c5761099b61087b565b5b5f6109a984828501610973565b91505092915050565b5f82825260208201905092915050565b7f796f7520617265206e6f74206f776e65720000000000000000000000000000005f82015250565b5f6109f66011836109b2565b9150610a01826109c2565b602082019050919050565b5f6020820190508181035f830152610a23816109ea565b9050919050565b7f646f6e61746f72206973206120302061646472657373000000000000000000005f82015250565b5f610a5e6016836109b2565b9150610a6982610a2a565b602082019050919050565b5f6020820190508181035f830152610a8b81610a52565b9050919050565b7f646f6e61746520737461727420616674657220323032352d30312d30312030315f8201527f3a30313a30312055544300000000000000000000000000000000000000000000602082015250565b5f610aec602a836109b2565b9150610af782610a92565b604082019050919050565b5f6020820190508181035f830152610b1981610ae0565b9050919050565b7f76616c7565206d7573742062652067726561746572207468616e2030000000005f82015250565b5f610b54601c836109b2565b9150610b5f82610b20565b602082019050919050565b5f6020820190508181035f830152610b8181610b48565b9050919050565b5f604082019050610b9b5f830185610935565b610ba8602083018461090d565b9392505050565b7f4e487b71000000000000000000000000000000000000000000000000000000005f52601160045260245ffd5b5f610be682610904565b9150610bf183610904565b9250828201905080821115610c0957610c08610baf565b5b92915050565b7f4e487b71000000000000000000000000000000000000000000000000000000005f52603260045260245ffdfea2646970667358221220cdf5d287f2cf09f8e4f0453ac7f9de2af13736c20001923d9de93867bd87c6e964736f6c634300081e0033",
					"opcodes": "PUSH1 0x80 PUSH1 0x40 MSTORE CALLVALUE DUP1 ISZERO PUSH1 0xE JUMPI PUSH0 PUSH0 REVERT JUMPDEST POP CALLER PUSH0 PUSH0 PUSH2 0x100 EXP DUP2 SLOAD DUP2 PUSH20 0xFFFFFFFFFFFFFFFFFFFFFFFFFFFFFFFFFFFFFFFF MUL NOT AND SWAP1 DUP4 PUSH20 0xFFFFFFFFFFFFFFFFFFFFFFFFFFFFFFFFFFFFFFFF AND MUL OR SWAP1 SSTORE POP PUSH2 0xC72 DUP1 PUSH2 0x5B PUSH0 CODECOPY PUSH0 RETURN INVALID PUSH1 0x80 PUSH1 0x40 MSTORE PUSH1 0x4 CALLDATASIZE LT PUSH2 0x6F JUMPI PUSH0 CALLDATALOAD PUSH1 0xE0 SHR DUP1 PUSH4 0x8DA5CB5B GT PUSH2 0x4D JUMPI DUP1 PUSH4 0x8DA5CB5B EQ PUSH2 0xEF JUMPI DUP1 PUSH4 0x9C6FEC9F EQ PUSH2 0x119 JUMPI DUP1 PUSH4 0x9D06D145 EQ PUSH2 0x155 JUMPI DUP1 PUSH4 0xED88C68E EQ PUSH2 0x191 JUMPI PUSH2 0x6F JUMP JUMPDEST DUP1 PUSH4 0x3CCFD60B EQ PUSH2 0x73 JUMPI DUP1 PUSH4 0x410A1D32 EQ PUSH2 0x89 JUMPI DUP1 PUSH4 0x89B7CA12 EQ PUSH2 0xC5 JUMPI JUMPDEST PUSH0 PUSH0 REVERT JUMPDEST CALLVALUE DUP1 ISZERO PUSH2 0x7E JUMPI PUSH0 PUSH0 REVERT JUMPDEST POP PUSH2 0x87 PUSH2 0x19B JUMP JUMPDEST STOP JUMPDEST CALLVALUE DUP1 ISZERO PUSH2 0x94 JUMPI PUSH0 PUSH0 REVERT JUMPDEST POP PUSH2 0xAF PUSH1 0x4 DUP1 CALLDATASIZE SUB DUP2 ADD SWAP1 PUSH2 0xAA SWAP2 SWAP1 PUSH2 0x8D9 JUMP JUMPDEST PUSH2 0x28F JUMP JUMPDEST PUSH1 0x40 MLOAD PUSH2 0xBC SWAP2 SWAP1 PUSH2 0x91C JUMP JUMPDEST PUSH1 0x40 MLOAD DUP1 SWAP2 SUB SWAP1 RETURN JUMPDEST CALLVALUE DUP1 ISZERO PUSH2 0xD0 JUMPI PUSH0 PUSH0 REVERT JUMPDEST POP PUSH2 0xD9 PUSH2 0x343 JUMP JUMPDEST PUSH1 0x40 MLOAD PUSH2 0xE6 SWAP2 SWAP1 PUSH2 0x91C JUMP JUMPDEST PUSH1 0x40 MLOAD DUP1 SWAP2 SUB SWAP1 RETURN JUMPDEST CALLVALUE DUP1 ISZERO PUSH2 0xFA JUMPI PUSH0 PUSH0 REVERT JUMPDEST POP PUSH2 0x103 PUSH2 0x34B JUMP JUMPDEST PUSH1 0x40 MLOAD PUSH2 0x110 SWAP2 SWAP1 PUSH2 0x944 JUMP JUMPDEST PUSH1 0x40 MLOAD DUP1 SWAP2 SUB SWAP1 RETURN JUMPDEST CALLVALUE DUP1 ISZERO PUSH2 0x124 JUMPI PUSH0 PUSH0 REVERT JUMPDEST POP PUSH2 0x13F PUSH1 0x4 DUP1 CALLDATASIZE SUB DUP2 ADD SWAP1 PUSH2 0x13A SWAP2 SWAP1 PUSH2 0x987 JUMP JUMPDEST PUSH2 0x36F JUMP JUMPDEST PUSH1 0x40 MLOAD PUSH2 0x14C SWAP2 SWAP1 PUSH2 0x944 JUMP JUMPDEST PUSH1 0x40 MLOAD DUP1 SWAP2 SUB SWAP1 RETURN JUMPDEST CALLVALUE DUP1 ISZERO PUSH2 0x160 JUMPI PUSH0 PUSH0 REVERT JUMPDEST POP PUSH2 0x17B PUSH1 0x4 DUP1 CALLDATASIZE SUB DUP2 ADD SWAP1 PUSH2 0x176 SWAP2 SWAP1 PUSH2 0x8D9 JUMP JUMPDEST PUSH2 0x3A3 JUMP JUMPDEST PUSH1 0x40 MLOAD PUSH2 0x188 SWAP2 SWAP1 PUSH2 0x91C JUMP JUMPDEST PUSH1 0x40 MLOAD DUP1 SWAP2 SUB SWAP1 RETURN JUMPDEST PUSH2 0x199 PUSH2 0x3B8 JUMP JUMPDEST STOP JUMPDEST PUSH0 PUSH0 SWAP1 SLOAD SWAP1 PUSH2 0x100 EXP SWAP1 DIV PUSH20 0xFFFFFFFFFFFFFFFFFFFFFFFFFFFFFFFFFFFFFFFF AND PUSH20 0xFFFFFFFFFFFFFFFFFFFFFFFFFFFFFFFFFFFFFFFF AND CALLER PUSH20 0xFFFFFFFFFFFFFFFFFFFFFFFFFFFFFFFFFFFFFFFF AND EQ PUSH2 0x229 JUMPI PUSH1 0x40 MLOAD PUSH32 0x8C379A000000000000000000000000000000000000000000000000000000000 DUP2 MSTORE PUSH1 0x4 ADD PUSH2 0x220 SWAP1 PUSH2 0xA0C JUMP JUMPDEST PUSH1 0x40 MLOAD DUP1 SWAP2 SUB SWAP1 REVERT JUMPDEST PUSH0 PUSH0 SWAP1 SLOAD SWAP1 PUSH2 0x100 EXP SWAP1 DIV PUSH20 0xFFFFFFFFFFFFFFFFFFFFFFFFFFFFFFFFFFFFFFFF AND PUSH20 0xFFFFFFFFFFFFFFFFFFFFFFFFFFFFFFFFFFFFFFFF AND PUSH2 0x8FC SELFBALANCE SWAP1 DUP2 ISZERO MUL SWAP1 PUSH1 0x40 MLOAD PUSH0 PUSH1 0x40 MLOAD DUP1 DUP4 SUB DUP2 DUP6 DUP9 DUP9 CALL SWAP4 POP POP POP POP ISZERO DUP1 ISZERO PUSH2 0x28C JUMPI RETURNDATASIZE PUSH0 PUSH0 RETURNDATACOPY RETURNDATASIZE PUSH0 REVERT JUMPDEST POP JUMP JUMPDEST PUSH0 PUSH0 PUSH20 0xFFFFFFFFFFFFFFFFFFFFFFFFFFFFFFFFFFFFFFFF AND DUP3 PUSH20 0xFFFFFFFFFFFFFFFFFFFFFFFFFFFFFFFFFFFFFFFF AND SUB PUSH2 0x2FE JUMPI PUSH1 0x40 MLOAD PUSH32 0x8C379A000000000000000000000000000000000000000000000000000000000 DUP2 MSTORE PUSH1 0x4 ADD PUSH2 0x2F5 SWAP1 PUSH2 0xA74 JUMP JUMPDEST PUSH1 0x40 MLOAD DUP1 SWAP2 SUB SWAP1 REVERT JUMPDEST PUSH1 0x1 PUSH0 DUP4 PUSH20 0xFFFFFFFFFFFFFFFFFFFFFFFFFFFFFFFFFFFFFFFF AND PUSH20 0xFFFFFFFFFFFFFFFFFFFFFFFFFFFFFFFFFFFFFFFF AND DUP2 MSTORE PUSH1 0x20 ADD SWAP1 DUP2 MSTORE PUSH1 0x20 ADD PUSH0 KECCAK256 SLOAD SWAP1 POP SWAP2 SWAP1 POP JUMP JUMPDEST PUSH4 0x6774B94D DUP2 JUMP JUMPDEST PUSH0 PUSH0 SWAP1 SLOAD SWAP1 PUSH2 0x100 EXP SWAP1 DIV PUSH20 0xFFFFFFFFFFFFFFFFFFFFFFFFFFFFFFFFFFFFFFFF AND DUP2 JUMP JUMPDEST PUSH1 0x4 DUP2 PUSH1 0x3 DUP2 LT PUSH2 0x37E JUMPI PUSH0 DUP1 REVERT JUMPDEST ADD PUSH0 SWAP2 POP SLOAD SWAP1 PUSH2 0x100 EXP SWAP1 DIV PUSH20 0xFFFFFFFFFFFFFFFFFFFFFFFFFFFFFFFFFFFFFFFF AND DUP2 JUMP JUMPDEST PUSH1 0x1 PUSH1 0x20 MSTORE DUP1 PUSH0 MSTORE PUSH1 0x40 PUSH0 KECCAK256 PUSH0 SWAP2 POP SWAP1 POP SLOAD DUP2 JUMP JUMPDEST PUSH4 0x6774B94D TIMESTAMP GT PUSH2 0x3FE JUMPI PUSH1 0x40 MLOAD PUSH32 0x8C379A000000000000000000000000000000000000000000000000000000000 DUP2 MSTORE PUSH1 0x4 ADD PUSH2 0x3F5 SWAP1 PUSH2 0xB02 JUMP JUMPDEST PUSH1 0x40 MLOAD DUP1 SWAP2 SUB SWAP1 REVERT JUMPDEST PUSH0 CALLVALUE GT PUSH2 0x440 JUMPI PUSH1 0x40 MLOAD PUSH32 0x8C379A000000000000000000000000000000000000000000000000000000000 DUP2 MSTORE PUSH1 0x4 ADD PUSH2 0x437 SWAP1 PUSH2 0xB6A JUMP JUMPDEST PUSH1 0x40 MLOAD DUP1 SWAP2 SUB SWAP1 REVERT JUMPDEST PUSH32 0x5D8BC849764969EB1BCC6D0A2F55999D0167C1CCEC240A4F39CF664CA9C4148E CALLER CALLVALUE PUSH1 0x40 MLOAD PUSH2 0x471 SWAP3 SWAP2 SWAP1 PUSH2 0xB88 JUMP JUMPDEST PUSH1 0x40 MLOAD DUP1 SWAP2 SUB SWAP1 LOG1 CALLVALUE PUSH1 0x1 PUSH0 CALLER PUSH20 0xFFFFFFFFFFFFFFFFFFFFFFFFFFFFFFFFFFFFFFFF AND PUSH20 0xFFFFFFFFFFFFFFFFFFFFFFFFFFFFFFFFFFFFFFFF AND DUP2 MSTORE PUSH1 0x20 ADD SWAP1 DUP2 MSTORE PUSH1 0x20 ADD PUSH0 KECCAK256 PUSH0 DUP3 DUP3 SLOAD PUSH2 0x4C5 SWAP2 SWAP1 PUSH2 0xBDC JUMP JUMPDEST SWAP3 POP POP DUP2 SWAP1 SSTORE POP PUSH0 PUSH0 PUSH1 0x2 SLOAD PUSH1 0x1 PUSH0 CALLER PUSH20 0xFFFFFFFFFFFFFFFFFFFFFFFFFFFFFFFFFFFFFFFF AND PUSH20 0xFFFFFFFFFFFFFFFFFFFFFFFFFFFFFFFFFFFFFFFF AND DUP2 MSTORE PUSH1 0x20 ADD SWAP1 DUP2 MSTORE PUSH1 0x20 ADD PUSH0 KECCAK256 SLOAD GT ISZERO PUSH2 0x877 JUMPI PUSH0 PUSH1 0x1 SWAP1 POP PUSH0 PUSH0 SWAP1 POP JUMPDEST PUSH1 0x3 DUP2 LT ISZERO PUSH2 0x720 JUMPI PUSH0 PUSH20 0xFFFFFFFFFFFFFFFFFFFFFFFFFFFFFFFFFFFFFFFF AND PUSH1 0x4 DUP3 PUSH1 0x3 DUP2 LT PUSH2 0x553 JUMPI PUSH2 0x552 PUSH2 0xC0F JUMP JUMPDEST JUMPDEST ADD PUSH0 SWAP1 SLOAD SWAP1 PUSH2 0x100 EXP SWAP1 DIV PUSH20 0xFFFFFFFFFFFFFFFFFFFFFFFFFFFFFFFFFFFFFFFF AND PUSH20 0xFFFFFFFFFFFFFFFFFFFFFFFFFFFFFFFFFFFFFFFF AND SUB PUSH2 0x713 JUMPI PUSH0 SWAP2 POP CALLER PUSH1 0x4 DUP3 PUSH1 0x3 DUP2 LT PUSH2 0x5A7 JUMPI PUSH2 0x5A6 PUSH2 0xC0F JUMP JUMPDEST JUMPDEST ADD PUSH0 PUSH2 0x100 EXP DUP2 SLOAD DUP2 PUSH20 0xFFFFFFFFFFFFFFFFFFFFFFFFFFFFFFFFFFFFFFFF MUL NOT AND SWAP1 DUP4 PUSH20 0xFFFFFFFFFFFFFFFFFFFFFFFFFFFFFFFFFFFFFFFF AND MUL OR SWAP1 SSTORE POP PUSH1 0x2 DUP2 SUB PUSH2 0x720 JUMPI PUSH1 0x1 PUSH0 PUSH1 0x4 PUSH0 PUSH1 0x3 DUP2 LT PUSH2 0x604 JUMPI PUSH2 0x603 PUSH2 0xC0F JUMP JUMPDEST JUMPDEST ADD PUSH0 SWAP1 SLOAD SWAP1 PUSH2 0x100 EXP SWAP1 DIV PUSH20 0xFFFFFFFFFFFFFFFFFFFFFFFFFFFFFFFFFFFFFFFF AND PUSH20 0xFFFFFFFFFFFFFFFFFFFFFFFFFFFFFFFFFFFFFFFF AND PUSH20 0xFFFFFFFFFFFFFFFFFFFFFFFFFFFFFFFFFFFFFFFF AND DUP2 MSTORE PUSH1 0x20 ADD SWAP1 DUP2 MSTORE PUSH1 0x20 ADD PUSH0 KECCAK256 SLOAD PUSH1 0x2 DUP2 SWAP1 SSTORE POP PUSH0 PUSH1 0x1 SWAP1 POP JUMPDEST PUSH1 0x3 DUP2 LT ISZERO PUSH2 0x711 JUMPI PUSH1 0x4 DUP2 PUSH1 0x3 DUP2 LT PUSH2 0x688 JUMPI PUSH2 0x687 PUSH2 0xC0F JUMP JUMPDEST JUMPDEST ADD PUSH0 SWAP1 SLOAD SWAP1 PUSH2 0x100 EXP SWAP1 DIV PUSH20 0xFFFFFFFFFFFFFFFFFFFFFFFFFFFFFFFFFFFFFFFF AND SWAP4 POP PUSH1 0x1 PUSH0 DUP6 PUSH20 0xFFFFFFFFFFFFFFFFFFFFFFFFFFFFFFFFFFFFFFFF AND PUSH20 0xFFFFFFFFFFFFFFFFFFFFFFFFFFFFFFFFFFFFFFFF AND DUP2 MSTORE PUSH1 0x20 ADD SWAP1 DUP2 MSTORE PUSH1 0x20 ADD PUSH0 KECCAK256 SLOAD SWAP5 POP DUP5 PUSH1 0x2 SLOAD GT ISZERO PUSH2 0x704 JUMPI DUP5 PUSH1 0x2 DUP2 SWAP1 SSTORE POP DUP1 PUSH1 0x3 DUP2 SWAP1 SSTORE POP JUMPDEST DUP1 DUP1 PUSH1 0x1 ADD SWAP2 POP POP PUSH2 0x66B JUMP JUMPDEST POP JUMPDEST DUP1 DUP1 PUSH1 0x1 ADD SWAP2 POP POP PUSH2 0x51F JUMP JUMPDEST POP DUP1 ISZERO PUSH2 0x875 JUMPI CALLER PUSH1 0x4 PUSH1 0x3 SLOAD PUSH1 0x3 DUP2 LT PUSH2 0x73E JUMPI PUSH2 0x73D PUSH2 0xC0F JUMP JUMPDEST JUMPDEST ADD PUSH0 PUSH2 0x100 EXP DUP2 SLOAD DUP2 PUSH20 0xFFFFFFFFFFFFFFFFFFFFFFFFFFFFFFFFFFFFFFFF MUL NOT AND SWAP1 DUP4 PUSH20 0xFFFFFFFFFFFFFFFFFFFFFFFFFFFFFFFFFFFFFFFF AND MUL OR SWAP1 SSTORE POP PUSH1 0x1 PUSH0 CALLER PUSH20 0xFFFFFFFFFFFFFFFFFFFFFFFFFFFFFFFFFFFFFFFF AND PUSH20 0xFFFFFFFFFFFFFFFFFFFFFFFFFFFFFFFFFFFFFFFF AND DUP2 MSTORE PUSH1 0x20 ADD SWAP1 DUP2 MSTORE PUSH1 0x20 ADD PUSH0 KECCAK256 SLOAD PUSH1 0x2 DUP2 SWAP1 SSTORE POP PUSH0 PUSH0 SWAP1 POP JUMPDEST PUSH1 0x3 DUP2 LT ISZERO PUSH2 0x873 JUMPI PUSH1 0x3 SLOAD DUP2 SUB ISZERO PUSH2 0x866 JUMPI PUSH1 0x1 PUSH0 PUSH1 0x4 DUP4 PUSH1 0x3 DUP2 LT PUSH2 0x7EF JUMPI PUSH2 0x7EE PUSH2 0xC0F JUMP JUMPDEST JUMPDEST ADD PUSH0 SWAP1 SLOAD SWAP1 PUSH2 0x100 EXP SWAP1 DIV PUSH20 0xFFFFFFFFFFFFFFFFFFFFFFFFFFFFFFFFFFFFFFFF AND PUSH20 0xFFFFFFFFFFFFFFFFFFFFFFFFFFFFFFFFFFFFFFFF AND PUSH20 0xFFFFFFFFFFFFFFFFFFFFFFFFFFFFFFFFFFFFFFFF AND DUP2 MSTORE PUSH1 0x20 ADD SWAP1 DUP2 MSTORE PUSH1 0x20 ADD PUSH0 KECCAK256 SLOAD SWAP4 POP DUP4 PUSH1 0x2 SLOAD GT ISZERO PUSH2 0x865 JUMPI DUP4 PUSH1 0x2 DUP2 SWAP1 SSTORE POP DUP1 PUSH1 0x3 DUP2 SWAP1 SSTORE POP JUMPDEST JUMPDEST DUP1 DUP1 PUSH1 0x1 ADD SWAP2 POP POP PUSH2 0x7C5 JUMP JUMPDEST POP JUMPDEST POP JUMPDEST POP POP JUMP JUMPDEST PUSH0 PUSH0 REVERT JUMPDEST PUSH0 PUSH20 0xFFFFFFFFFFFFFFFFFFFFFFFFFFFFFFFFFFFFFFFF DUP3 AND SWAP1 POP SWAP2 SWAP1 POP JUMP JUMPDEST PUSH0 PUSH2 0x8A8 DUP3 PUSH2 0x87F JUMP JUMPDEST SWAP1 POP SWAP2 SWAP1 POP JUMP JUMPDEST PUSH2 0x8B8 DUP2 PUSH2 0x89E JUMP JUMPDEST DUP2 EQ PUSH2 0x8C2 JUMPI PUSH0 PUSH0 REVERT JUMPDEST POP JUMP JUMPDEST PUSH0 DUP2 CALLDATALOAD SWAP1 POP PUSH2 0x8D3 DUP2 PUSH2 0x8AF JUMP JUMPDEST SWAP3 SWAP2 POP POP JUMP JUMPDEST PUSH0 PUSH1 0x20 DUP3 DUP5 SUB SLT ISZERO PUSH2 0x8EE JUMPI PUSH2 0x8ED PUSH2 0x87B JUMP JUMPDEST JUMPDEST PUSH0 PUSH2 0x8FB DUP5 DUP3 DUP6 ADD PUSH2 0x8C5 JUMP JUMPDEST SWAP2 POP POP SWAP3 SWAP2 POP POP JUMP JUMPDEST PUSH0 DUP2 SWAP1 POP SWAP2 SWAP1 POP JUMP JUMPDEST PUSH2 0x916 DUP2 PUSH2 0x904 JUMP JUMPDEST DUP3 MSTORE POP POP JUMP JUMPDEST PUSH0 PUSH1 0x20 DUP3 ADD SWAP1 POP PUSH2 0x92F PUSH0 DUP4 ADD DUP5 PUSH2 0x90D JUMP JUMPDEST SWAP3 SWAP2 POP POP JUMP JUMPDEST PUSH2 0x93E DUP2 PUSH2 0x89E JUMP JUMPDEST DUP3 MSTORE POP POP JUMP JUMPDEST PUSH0 PUSH1 0x20 DUP3 ADD SWAP1 POP PUSH2 0x957 PUSH0 DUP4 ADD DUP5 PUSH2 0x935 JUMP JUMPDEST SWAP3 SWAP2 POP POP JUMP JUMPDEST PUSH2 0x966 DUP2 PUSH2 0x904 JUMP JUMPDEST DUP2 EQ PUSH2 0x970 JUMPI PUSH0 PUSH0 REVERT JUMPDEST POP JUMP JUMPDEST PUSH0 DUP2 CALLDATALOAD SWAP1 POP PUSH2 0x981 DUP2 PUSH2 0x95D JUMP JUMPDEST SWAP3 SWAP2 POP POP JUMP JUMPDEST PUSH0 PUSH1 0x20 DUP3 DUP5 SUB SLT ISZERO PUSH2 0x99C JUMPI PUSH2 0x99B PUSH2 0x87B JUMP JUMPDEST JUMPDEST PUSH0 PUSH2 0x9A9 DUP5 DUP3 DUP6 ADD PUSH2 0x973 JUMP JUMPDEST SWAP2 POP POP SWAP3 SWAP2 POP POP JUMP JUMPDEST PUSH0 DUP3 DUP3 MSTORE PUSH1 0x20 DUP3 ADD SWAP1 POP SWAP3 SWAP2 POP POP JUMP JUMPDEST PUSH32 0x796F7520617265206E6F74206F776E6572000000000000000000000000000000 PUSH0 DUP3 ADD MSTORE POP JUMP JUMPDEST PUSH0 PUSH2 0x9F6 PUSH1 0x11 DUP4 PUSH2 0x9B2 JUMP JUMPDEST SWAP2 POP PUSH2 0xA01 DUP3 PUSH2 0x9C2 JUMP JUMPDEST PUSH1 0x20 DUP3 ADD SWAP1 POP SWAP2 SWAP1 POP JUMP JUMPDEST PUSH0 PUSH1 0x20 DUP3 ADD SWAP1 POP DUP2 DUP2 SUB PUSH0 DUP4 ADD MSTORE PUSH2 0xA23 DUP2 PUSH2 0x9EA JUMP JUMPDEST SWAP1 POP SWAP2 SWAP1 POP JUMP JUMPDEST PUSH32 0x646F6E61746F7220697320612030206164647265737300000000000000000000 PUSH0 DUP3 ADD MSTORE POP JUMP JUMPDEST PUSH0 PUSH2 0xA5E PUSH1 0x16 DUP4 PUSH2 0x9B2 JUMP JUMPDEST SWAP2 POP PUSH2 0xA69 DUP3 PUSH2 0xA2A JUMP JUMPDEST PUSH1 0x20 DUP3 ADD SWAP1 POP SWAP2 SWAP1 POP JUMP JUMPDEST PUSH0 PUSH1 0x20 DUP3 ADD SWAP1 POP DUP2 DUP2 SUB PUSH0 DUP4 ADD MSTORE PUSH2 0xA8B DUP2 PUSH2 0xA52 JUMP JUMPDEST SWAP1 POP SWAP2 SWAP1 POP JUMP JUMPDEST PUSH32 0x646F6E61746520737461727420616674657220323032352D30312D3031203031 PUSH0 DUP3 ADD MSTORE PUSH32 0x3A30313A30312055544300000000000000000000000000000000000000000000 PUSH1 0x20 DUP3 ADD MSTORE POP JUMP JUMPDEST PUSH0 PUSH2 0xAEC PUSH1 0x2A DUP4 PUSH2 0x9B2 JUMP JUMPDEST SWAP2 POP PUSH2 0xAF7 DUP3 PUSH2 0xA92 JUMP JUMPDEST PUSH1 0x40 DUP3 ADD SWAP1 POP SWAP2 SWAP1 POP JUMP JUMPDEST PUSH0 PUSH1 0x20 DUP3 ADD SWAP1 POP DUP2 DUP2 SUB PUSH0 DUP4 ADD MSTORE PUSH2 0xB19 DUP2 PUSH2 0xAE0 JUMP JUMPDEST SWAP1 POP SWAP2 SWAP1 POP JUMP JUMPDEST PUSH32 0x76616C7565206D7573742062652067726561746572207468616E203000000000 PUSH0 DUP3 ADD MSTORE POP JUMP JUMPDEST PUSH0 PUSH2 0xB54 PUSH1 0x1C DUP4 PUSH2 0x9B2 JUMP JUMPDEST SWAP2 POP PUSH2 0xB5F DUP3 PUSH2 0xB20 JUMP JUMPDEST PUSH1 0x20 DUP3 ADD SWAP1 POP SWAP2 SWAP1 POP JUMP JUMPDEST PUSH0 PUSH1 0x20 DUP3 ADD SWAP1 POP DUP2 DUP2 SUB PUSH0 DUP4 ADD MSTORE PUSH2 0xB81 DUP2 PUSH2 0xB48 JUMP JUMPDEST SWAP1 POP SWAP2 SWAP1 POP JUMP JUMPDEST PUSH0 PUSH1 0x40 DUP3 ADD SWAP1 POP PUSH2 0xB9B PUSH0 DUP4 ADD DUP6 PUSH2 0x935 JUMP JUMPDEST PUSH2 0xBA8 PUSH1 0x20 DUP4 ADD DUP5 PUSH2 0x90D JUMP JUMPDEST SWAP4 SWAP3 POP POP POP JUMP JUMPDEST PUSH32 0x4E487B7100000000000000000000000000000000000000000000000000000000 PUSH0 MSTORE PUSH1 0x11 PUSH1 0x4 MSTORE PUSH1 0x24 PUSH0 REVERT JUMPDEST PUSH0 PUSH2 0xBE6 DUP3 PUSH2 0x904 JUMP JUMPDEST SWAP2 POP PUSH2 0xBF1 DUP4 PUSH2 0x904 JUMP JUMPDEST SWAP3 POP DUP3 DUP3 ADD SWAP1 POP DUP1 DUP3 GT ISZERO PUSH2 0xC09 JUMPI PUSH2 0xC08 PUSH2 0xBAF JUMP JUMPDEST JUMPDEST SWAP3 SWAP2 POP POP JUMP JUMPDEST PUSH32 0x4E487B7100000000000000000000000000000000000000000000000000000000 PUSH0 MSTORE PUSH1 0x32 PUSH1 0x4 MSTORE PUSH1 0x24 PUSH0 REVERT INVALID LOG2 PUSH5 0x6970667358 0x22 SLT KECCAK256 0xCD CREATE2 0xD2 DUP8 CALLCODE 0xCF MULMOD EXTCALL RETF CREATE GASLIMIT GASPRICE 0xC7 EXTDELEGATECALL 0xDE 0x2A CALL CALLDATACOPY CALLDATASIZE 0xC2 STOP ADD SWAP3 RETURNDATASIZE SWAP14 0xE9 CODESIZE PUSH8 0xBD87C6E964736F6C PUSH4 0x4300081E STOP CALLER "
				},
				"gasEstimates": {
					"creation": {
						"codeDepositCost": "637200",
						"executionCost": "24932",
						"totalCost": "662132"
					},
					"external": {
						"TARGET_TIMESTAMP()": "370",
						"donate()": "infinite",
						"donatorTotal(address)": "2846",
						"getDonation(address)": "2886",
						"owner()": "2507",
						"top3Donators(uint256)": "2817",
						"withdraw()": "infinite"
					}
				},
				"methodIdentifiers": {
					"TARGET_TIMESTAMP()": "89b7ca12",
					"donate()": "ed88c68e",
					"donatorTotal(address)": "9d06d145",
					"getDonation(address)": "410a1d32",
					"owner()": "8da5cb5b",
					"top3Donators(uint256)": "9c6fec9f",
					"withdraw()": "3ccfd60b"
				}
			},
			"storageLayout": {
				"storage": [
					{
						"astId": 3,
						"contract": "contracts/task3/BeggingContract.sol:BeggingContract",
						"label": "owner",
						"offset": 0,
						"slot": "0",
						"type": "t_address"
					},
					{
						"astId": 7,
						"contract": "contracts/task3/BeggingContract.sol:BeggingContract",
						"label": "donatorTotal",
						"offset": 0,
						"slot": "1",
						"type": "t_mapping(t_address,t_uint256)"
					},
					{
						"astId": 15,
						"contract": "contracts/task3/BeggingContract.sol:BeggingContract",
						"label": "top3MinAmount",
						"offset": 0,
						"slot": "2",
						"type": "t_uint256"
					},
					{
						"astId": 17,
						"contract": "contracts/task3/BeggingContract.sol:BeggingContract",
						"label": "top3MinIndex",
						"offset": 0,
						"slot": "3",
						"type": "t_uint256"
					},
					{
						"astId": 21,
						"contract": "contracts/task3/BeggingContract.sol:BeggingContract",
						"label": "top3Donators",
						"offset": 0,
						"slot": "4",
						"type": "t_array(t_address)3_storage"
					}
				],
				"types": {
					"t_address": {
						"encoding": "inplace",
						"label": "address",
						"numberOfBytes": "20"
					},
					"t_array(t_address)3_storage": {
						"base": "t_address",
						"encoding": "inplace",
						"label": "address[3]",
						"numberOfBytes": "96"
					},
					"t_mapping(t_address,t_uint256)": {
						"encoding": "mapping",
						"key": "t_address",
						"label": "mapping(address => uint256)",
						"numberOfBytes": "32",
						"value": "t_uint256"
					},
					"t_uint256": {
						"encoding": "inplace",
						"label": "uint256",
						"numberOfBytes": "32"
					}
				}
			},
			"userdoc": {
				"kind": "user",
				"methods": {},
				"version": 1
			}
		}
	}
}