{
	"contracts/intRoman.sol": {
		"IntRoman": {
			"abi": [
				{
					"inputs": [
						{
							"internalType": "uint256",
							"name": "num",
							"type": "uint256"
						}
					],
					"name": "intToRoman",
					"outputs": [
						{
							"internalType": "string",
							"name": "",
							"type": "string"
						}
					],
					"stateMutability": "pure",
					"type": "function"
				},
				{
					"inputs": [
						{
							"internalType": "string",
							"name": "str",
							"type": "string"
						}
					],
					"name": "romanToInt",
					"outputs": [
						{
							"internalType": "uint256",
							"name": "",
							"type": "uint256"
						}
					],
					"stateMutability": "pure",
					"type": "function"
				}
			],
			"devdoc": {
				"kind": "dev",
				"methods": {},
				"version": 1
			},
			"evm": {
				"assembly": "    /* \"contracts/intRoman.sol\":61:2212  contract IntRoman {... */\n  mstore(0x40, 0x80)\n  callvalue\n  dup1\n  iszero\n  tag_1\n  jumpi\n  revert(0x00, 0x00)\ntag_1:\n  pop\n  dataSize(sub_0)\n  dup1\n  dataOffset(sub_0)\n  0x00\n  codecopy\n  0x00\n  return\nstop\n\nsub_0: assembly {\n        /* \"contracts/intRoman.sol\":61:2212  contract IntRoman {... */\n      mstore(0x40, 0x80)\n      callvalue\n      dup1\n      iszero\n      tag_1\n      jumpi\n      revert(0x00, 0x00)\n    tag_1:\n      pop\n      jumpi(tag_2, lt(calldatasize, 0x04))\n      shr(0xe0, calldataload(0x00))\n      dup1\n      0x0cbc513a\n      eq\n      tag_3\n      jumpi\n      dup1\n      0xcb159dfe\n      eq\n      tag_4\n      jumpi\n    tag_2:\n      revert(0x00, 0x00)\n        /* \"contracts/intRoman.sol\":116:1115  function intToRoman(uint num) public pure returns (string memory) {... */\n    tag_3:\n      tag_5\n      0x04\n      dup1\n      calldatasize\n      sub\n      dup2\n      add\n      swap1\n      tag_6\n      swap2\n      swap1\n      tag_7\n      jump\t// in\n    tag_6:\n      tag_8\n      jump\t// in\n    tag_5:\n      mload(0x40)\n      tag_9\n      swap2\n      swap1\n      tag_10\n      jump\t// in\n    tag_9:\n      mload(0x40)\n      dup1\n      swap2\n      sub\n      swap1\n      return\n        /* \"contracts/intRoman.sol\":1153:1666  function romanToInt(string memory str) public pure returns (uint) {... */\n    tag_4:\n      tag_11\n      0x04\n      dup1\n      calldatasize\n      sub\n      dup2\n      add\n      swap1\n      tag_12\n      swap2\n      swap1\n      tag_13\n      jump\t// in\n    tag_12:\n      tag_14\n      jump\t// in\n    tag_11:\n      mload(0x40)\n      tag_15\n      swap2\n      swap1\n      tag_16\n      jump\t// in\n    tag_15:\n      mload(0x40)\n      dup1\n      swap2\n      sub\n      swap1\n      return\n        /* \"contracts/intRoman.sol\":116:1115  function intToRoman(uint num) public pure returns (string memory) {... */\n    tag_8:\n        /* \"contracts/intRoman.sol\":167:180  string memory */\n      0x60\n        /* \"contracts/intRoman.sol\":207:208  0 */\n      0x00\n        /* \"contracts/intRoman.sol\":201:204  num */\n      dup3\n        /* \"contracts/intRoman.sol\":201:208  num > 0 */\n      gt\n        /* \"contracts/intRoman.sol\":201:222  num > 0 && num < 4000 */\n      dup1\n      iszero\n      tag_18\n      jumpi\n      pop\n        /* \"contracts/intRoman.sol\":218:222  4000 */\n      0x0fa0\n        /* \"contracts/intRoman.sol\":212:215  num */\n      dup3\n        /* \"contracts/intRoman.sol\":212:222  num < 4000 */\n      lt\n        /* \"contracts/intRoman.sol\":201:222  num > 0 && num < 4000 */\n    tag_18:\n        /* \"contracts/intRoman.sol\":193:256  require(num > 0 && num < 4000, \"Should be between 1 and 3999.\") */\n      tag_19\n      jumpi\n      mload(0x40)\n      0x08c379a000000000000000000000000000000000000000000000000000000000\n      dup2\n      mstore\n      0x04\n      add\n      tag_20\n      swap1\n      tag_21\n      jump\t// in\n    tag_20:\n      mload(0x40)\n      dup1\n      swap2\n      sub\n      swap1\n      revert\n    tag_19:\n        /* \"contracts/intRoman.sol\":269:291  uint[13] memory intArr */\n      0x00\n        /* \"contracts/intRoman.sol\":269:354  uint[13] memory intArr = [uint(1000), 900, 500, 400, 100, 90, 50, 40, 10, 9, 5, 4, 1] */\n      mload(0x40)\n      dup1\n      0x01a0\n      add\n      0x40\n      mstore\n      dup1\n        /* \"contracts/intRoman.sol\":300:304  1000 */\n      0x03e8\n        /* \"contracts/intRoman.sol\":269:354  uint[13] memory intArr = [uint(1000), 900, 500, 400, 100, 90, 50, 40, 10, 9, 5, 4, 1] */\n      dup2\n      mstore\n      0x20\n      add\n        /* \"contracts/intRoman.sol\":307:310  900 */\n      0x0384\n        /* \"contracts/intRoman.sol\":269:354  uint[13] memory intArr = [uint(1000), 900, 500, 400, 100, 90, 50, 40, 10, 9, 5, 4, 1] */\n      dup2\n      mstore\n      0x20\n      add\n        /* \"contracts/intRoman.sol\":312:315  500 */\n      0x01f4\n        /* \"contracts/intRoman.sol\":269:354  uint[13] memory intArr = [uint(1000), 900, 500, 400, 100, 90, 50, 40, 10, 9, 5, 4, 1] */\n      dup2\n      mstore\n      0x20\n      add\n        /* \"contracts/intRoman.sol\":317:320  400 */\n      0x0190\n        /* \"contracts/intRoman.sol\":269:354  uint[13] memory intArr = [uint(1000), 900, 500, 400, 100, 90, 50, 40, 10, 9, 5, 4, 1] */\n      dup2\n      mstore\n      0x20\n      add\n        /* \"contracts/intRoman.sol\":322:325  100 */\n      0x64\n        /* \"contracts/intRoman.sol\":269:354  uint[13] memory intArr = [uint(1000), 900, 500, 400, 100, 90, 50, 40, 10, 9, 5, 4, 1] */\n      dup2\n      mstore\n      0x20\n      add\n        /* \"contracts/intRoman.sol\":327:329  90 */\n      0x5a\n        /* \"contracts/intRoman.sol\":269:354  uint[13] memory intArr = [uint(1000), 900, 500, 400, 100, 90, 50, 40, 10, 9, 5, 4, 1] */\n      dup2\n      mstore\n      0x20\n      add\n        /* \"contracts/intRoman.sol\":331:333  50 */\n      0x32\n        /* \"contracts/intRoman.sol\":269:354  uint[13] memory intArr = [uint(1000), 900, 500, 400, 100, 90, 50, 40, 10, 9, 5, 4, 1] */\n      dup2\n      mstore\n      0x20\n      add\n        /* \"contracts/intRoman.sol\":335:337  40 */\n      0x28\n        /* \"contracts/intRoman.sol\":269:354  uint[13] memory intArr = [uint(1000), 900, 500, 400, 100, 90, 50, 40, 10, 9, 5, 4, 1] */\n      dup2\n      mstore\n      0x20\n      add\n        /* \"contracts/intRoman.sol\":339:341  10 */\n      0x0a\n        /* \"contracts/intRoman.sol\":269:354  uint[13] memory intArr = [uint(1000), 900, 500, 400, 100, 90, 50, 40, 10, 9, 5, 4, 1] */\n      dup2\n      mstore\n      0x20\n      add\n        /* \"contracts/intRoman.sol\":343:344  9 */\n      0x09\n        /* \"contracts/intRoman.sol\":269:354  uint[13] memory intArr = [uint(1000), 900, 500, 400, 100, 90, 50, 40, 10, 9, 5, 4, 1] */\n      dup2\n      mstore\n      0x20\n      add\n        /* \"contracts/intRoman.sol\":346:347  5 */\n      0x05\n        /* \"contracts/intRoman.sol\":269:354  uint[13] memory intArr = [uint(1000), 900, 500, 400, 100, 90, 50, 40, 10, 9, 5, 4, 1] */\n      dup2\n      mstore\n      0x20\n      add\n        /* \"contracts/intRoman.sol\":349:350  4 */\n      0x04\n        /* \"contracts/intRoman.sol\":269:354  uint[13] memory intArr = [uint(1000), 900, 500, 400, 100, 90, 50, 40, 10, 9, 5, 4, 1] */\n      dup2\n      mstore\n      0x20\n      add\n        /* \"contracts/intRoman.sol\":352:353  1 */\n      0x01\n        /* \"contracts/intRoman.sol\":269:354  uint[13] memory intArr = [uint(1000), 900, 500, 400, 100, 90, 50, 40, 10, 9, 5, 4, 1] */\n      dup2\n      mstore\n      pop\n      swap1\n      pop\n        /* \"contracts/intRoman.sol\":365:389  string[13] memory strArr */\n      0x00\n        /* \"contracts/intRoman.sol\":365:463  string[13] memory strArr = [\"M\", \"CM\", \"D\", \"CD\", \"C\", \"XC\", \"L\", \"XL\", \"X\", \"IX\", \"V\", \"IV\", \"I\"] */\n      mload(0x40)\n      dup1\n      0x01a0\n      add\n      0x40\n      mstore\n      dup1\n      mload(0x40)\n      dup1\n      0x40\n      add\n      0x40\n      mstore\n      dup1\n      0x01\n      dup2\n      mstore\n      0x20\n      add\n      0x4d00000000000000000000000000000000000000000000000000000000000000\n      dup2\n      mstore\n      pop\n      dup2\n      mstore\n      0x20\n      add\n      mload(0x40)\n      dup1\n      0x40\n      add\n      0x40\n      mstore\n      dup1\n      0x02\n      dup2\n      mstore\n      0x20\n      add\n      0x434d000000000000000000000000000000000000000000000000000000000000\n      dup2\n      mstore\n      pop\n      dup2\n      mstore\n      0x20\n      add\n      mload(0x40)\n      dup1\n      0x40\n      add\n      0x40\n      mstore\n      dup1\n      0x01\n      dup2\n      mstore\n      0x20\n      add\n      0x4400000000000000000000000000000000000000000000000000000000000000\n      dup2\n      mstore\n      pop\n      dup2\n      mstore\n      0x20\n      add\n      mload(0x40)\n      dup1\n      0x40\n      add\n      0x40\n      mstore\n      dup1\n      0x02\n      dup2\n      mstore\n      0x20\n      add\n      0x4344000000000000000000000000000000000000000000000000000000000000\n      dup2\n      mstore\n      pop\n      dup2\n      mstore\n      0x20\n      add\n      mload(0x40)\n      dup1\n      0x40\n      add\n      0x40\n      mstore\n      dup1\n      0x01\n      dup2\n      mstore\n      0x20\n      add\n      0x4300000000000000000000000000000000000000000000000000000000000000\n      dup2\n      mstore\n      pop\n      dup2\n      mstore\n      0x20\n      add\n      mload(0x40)\n      dup1\n      0x40\n      add\n      0x40\n      mstore\n      dup1\n      0x02\n      dup2\n      mstore\n      0x20\n      add\n      0x5843000000000000000000000000000000000000000000000000000000000000\n      dup2\n      mstore\n      pop\n      dup2\n      mstore\n      0x20\n      add\n      mload(0x40)\n      dup1\n      0x40\n      add\n      0x40\n      mstore\n      dup1\n      0x01\n      dup2\n      mstore\n      0x20\n      add\n      0x4c00000000000000000000000000000000000000000000000000000000000000\n      dup2\n      mstore\n      pop\n      dup2\n      mstore\n      0x20\n      add\n      mload(0x40)\n      dup1\n      0x40\n      add\n      0x40\n      mstore\n      dup1\n      0x02\n      dup2\n      mstore\n      0x20\n      add\n      0x584c000000000000000000000000000000000000000000000000000000000000\n      dup2\n      mstore\n      pop\n      dup2\n      mstore\n      0x20\n      add\n      mload(0x40)\n      dup1\n      0x40\n      add\n      0x40\n      mstore\n      dup1\n      0x01\n      dup2\n      mstore\n      0x20\n      add\n      0x5800000000000000000000000000000000000000000000000000000000000000\n      dup2\n      mstore\n      pop\n      dup2\n      mstore\n      0x20\n      add\n      mload(0x40)\n      dup1\n      0x40\n      add\n      0x40\n      mstore\n      dup1\n      0x02\n      dup2\n      mstore\n      0x20\n      add\n      0x4958000000000000000000000000000000000000000000000000000000000000\n      dup2\n      mstore\n      pop\n      dup2\n      mstore\n      0x20\n      add\n      mload(0x40)\n      dup1\n      0x40\n      add\n      0x40\n      mstore\n      dup1\n      0x01\n      dup2\n      mstore\n      0x20\n      add\n      0x5600000000000000000000000000000000000000000000000000000000000000\n      dup2\n      mstore\n      pop\n      dup2\n      mstore\n      0x20\n      add\n      mload(0x40)\n      dup1\n      0x40\n      add\n      0x40\n      mstore\n      dup1\n      0x02\n      dup2\n      mstore\n      0x20\n      add\n      0x4956000000000000000000000000000000000000000000000000000000000000\n      dup2\n      mstore\n      pop\n      dup2\n      mstore\n      0x20\n      add\n      mload(0x40)\n      dup1\n      0x40\n      add\n      0x40\n      mstore\n      dup1\n      0x01\n      dup2\n      mstore\n      0x20\n      add\n      0x4900000000000000000000000000000000000000000000000000000000000000\n      dup2\n      mstore\n      pop\n      dup2\n      mstore\n      pop\n      swap1\n      pop\n        /* \"contracts/intRoman.sol\":476:497  bytes memory resBytes */\n      0x00\n        /* \"contracts/intRoman.sol\":510:512  15 */\n      0x0f\n        /* \"contracts/intRoman.sol\":500:513  new bytes(15) */\n      0xffffffffffffffff\n      dup2\n      gt\n      iszero\n      tag_22\n      jumpi\n      tag_23\n      tag_24\n      jump\t// in\n    tag_23:\n    tag_22:\n      mload(0x40)\n      swap1\n      dup1\n      dup3\n      mstore\n      dup1\n      0x1f\n      add\n      not(0x1f)\n      and\n      0x20\n      add\n      dup3\n      add\n      0x40\n      mstore\n      dup1\n      iszero\n      tag_25\n      jumpi\n      dup2\n      0x20\n      add\n      0x01\n      dup3\n      mul\n      dup1\n      calldatasize\n      dup4\n      calldatacopy\n      dup1\n      dup3\n      add\n      swap2\n      pop\n      pop\n      swap1\n      pop\n    tag_25:\n      pop\n        /* \"contracts/intRoman.sol\":476:513  bytes memory resBytes = new bytes(15) */\n      swap1\n      pop\n        /* \"contracts/intRoman.sol\":560:570  uint index */\n      0x00\n        /* \"contracts/intRoman.sol\":573:574  0 */\n      0x00\n        /* \"contracts/intRoman.sol\":560:574  uint index = 0 */\n      swap1\n      pop\n        /* \"contracts/intRoman.sol\":589:595  uint i */\n      0x00\n        /* \"contracts/intRoman.sol\":598:599  0 */\n      0x00\n        /* \"contracts/intRoman.sol\":589:599  uint i = 0 */\n      swap1\n      pop\n        /* \"contracts/intRoman.sol\":585:934  for(uint i = 0; i < 13; i++) {... */\n    tag_26:\n        /* \"contracts/intRoman.sol\":605:607  13 */\n      0x0d\n        /* \"contracts/intRoman.sol\":601:602  i */\n      dup2\n        /* \"contracts/intRoman.sol\":601:607  i < 13 */\n      lt\n        /* \"contracts/intRoman.sol\":585:934  for(uint i = 0; i < 13; i++) {... */\n      iszero\n      tag_27\n      jumpi\n        /* \"contracts/intRoman.sol\":629:923  while(num >= intArr[i]) {... */\n    tag_29:\n        /* \"contracts/intRoman.sol\":642:648  intArr */\n      dup5\n        /* \"contracts/intRoman.sol\":649:650  i */\n      dup2\n        /* \"contracts/intRoman.sol\":642:651  intArr[i] */\n      0x0d\n      dup2\n      lt\n      tag_31\n      jumpi\n      tag_32\n      tag_33\n      jump\t// in\n    tag_32:\n    tag_31:\n      0x20\n      mul\n      add\n      mload\n        /* \"contracts/intRoman.sol\":635:638  num */\n      dup8\n        /* \"contracts/intRoman.sol\":635:651  num >= intArr[i] */\n      lt\n        /* \"contracts/intRoman.sol\":629:923  while(num >= intArr[i]) {... */\n      tag_30\n      jumpi\n        /* \"contracts/intRoman.sol\":679:685  intArr */\n      dup5\n        /* \"contracts/intRoman.sol\":686:687  i */\n      dup2\n        /* \"contracts/intRoman.sol\":679:688  intArr[i] */\n      0x0d\n      dup2\n      lt\n      tag_34\n      jumpi\n      tag_35\n      tag_33\n      jump\t// in\n    tag_35:\n    tag_34:\n      0x20\n      mul\n      add\n      mload\n        /* \"contracts/intRoman.sol\":672:688  num -= intArr[i] */\n      dup8\n      tag_36\n      swap2\n      swap1\n      tag_37\n      jump\t// in\n    tag_36:\n      swap7\n      pop\n        /* \"contracts/intRoman.sol\":707:727  bytes memory current */\n      0x00\n        /* \"contracts/intRoman.sol\":736:742  strArr */\n      dup5\n        /* \"contracts/intRoman.sol\":743:744  i */\n      dup3\n        /* \"contracts/intRoman.sol\":736:745  strArr[i] */\n      0x0d\n      dup2\n      lt\n      tag_38\n      jumpi\n      tag_39\n      tag_33\n      jump\t// in\n    tag_39:\n    tag_38:\n      0x20\n      mul\n      add\n      mload\n        /* \"contracts/intRoman.sol\":707:746  bytes memory current = bytes(strArr[i]) */\n      swap1\n      pop\n        /* \"contracts/intRoman.sol\":770:776  uint j */\n      0x00\n        /* \"contracts/intRoman.sol\":779:780  0 */\n      0x00\n        /* \"contracts/intRoman.sol\":770:780  uint j = 0 */\n      swap1\n      pop\n        /* \"contracts/intRoman.sol\":765:908  for (uint j = 0; j < current.length; j++) {... */\n    tag_40:\n        /* \"contracts/intRoman.sol\":786:793  current */\n      dup2\n        /* \"contracts/intRoman.sol\":786:800  current.length */\n      mload\n        /* \"contracts/intRoman.sol\":782:783  j */\n      dup2\n        /* \"contracts/intRoman.sol\":782:800  j < current.length */\n      lt\n        /* \"contracts/intRoman.sol\":765:908  for (uint j = 0; j < current.length; j++) {... */\n      iszero\n      tag_41\n      jumpi\n        /* \"contracts/intRoman.sol\":848:855  current */\n      dup2\n        /* \"contracts/intRoman.sol\":856:857  j */\n      dup2\n        /* \"contracts/intRoman.sol\":848:858  current[j] */\n      dup2\n      mload\n      dup2\n      lt\n      tag_43\n      jumpi\n      tag_44\n      tag_33\n      jump\t// in\n    tag_44:\n    tag_43:\n      0x20\n      add\n      add\n      mload\n      0xf8\n      shr\n      0xf8\n      shl\n        /* \"contracts/intRoman.sol\":830:838  resBytes */\n      dup6\n        /* \"contracts/intRoman.sol\":839:844  index */\n      dup6\n        /* \"contracts/intRoman.sol\":830:845  resBytes[index] */\n      dup2\n      mload\n      dup2\n      lt\n      tag_45\n      jumpi\n      tag_46\n      tag_33\n      jump\t// in\n    tag_46:\n    tag_45:\n      0x20\n      add\n      add\n        /* \"contracts/intRoman.sol\":830:858  resBytes[index] = current[j] */\n      swap1\n      not(0xffffffffffffffffffffffffffffffffffffffffffffffffffffffffffffff)\n      and\n      swap1\n      dup2\n      0x00\n      byte\n      swap1\n      mstore8\n      pop\n        /* \"contracts/intRoman.sol\":881:888  index++ */\n      dup4\n      dup1\n      tag_47\n      swap1\n      tag_48\n      jump\t// in\n    tag_47:\n      swap5\n      pop\n      pop\n        /* \"contracts/intRoman.sol\":802:805  j++ */\n      dup1\n      dup1\n      0x01\n      add\n      swap2\n      pop\n      pop\n        /* \"contracts/intRoman.sol\":765:908  for (uint j = 0; j < current.length; j++) {... */\n      jump(tag_40)\n    tag_41:\n      pop\n        /* \"contracts/intRoman.sol\":653:923  {... */\n      pop\n        /* \"contracts/intRoman.sol\":629:923  while(num >= intArr[i]) {... */\n      jump(tag_29)\n    tag_30:\n        /* \"contracts/intRoman.sol\":609:612  i++ */\n      dup1\n      dup1\n      0x01\n      add\n      swap2\n      pop\n      pop\n        /* \"contracts/intRoman.sol\":585:934  for(uint i = 0; i < 13; i++) {... */\n      jump(tag_26)\n    tag_27:\n      pop\n        /* \"contracts/intRoman.sol\":944:963  bytes memory result */\n      0x00\n        /* \"contracts/intRoman.sol\":976:981  index */\n      dup2\n        /* \"contracts/intRoman.sol\":966:982  new bytes(index) */\n      0xffffffffffffffff\n      dup2\n      gt\n      iszero\n      tag_49\n      jumpi\n      tag_50\n      tag_24\n      jump\t// in\n    tag_50:\n    tag_49:\n      mload(0x40)\n      swap1\n      dup1\n      dup3\n      mstore\n      dup1\n      0x1f\n      add\n      not(0x1f)\n      and\n      0x20\n      add\n      dup3\n      add\n      0x40\n      mstore\n      dup1\n      iszero\n      tag_51\n      jumpi\n      dup2\n      0x20\n      add\n      0x01\n      dup3\n      mul\n      dup1\n      calldatasize\n      dup4\n      calldatacopy\n      dup1\n      dup3\n      add\n      swap2\n      pop\n      pop\n      swap1\n      pop\n    tag_51:\n      pop\n        /* \"contracts/intRoman.sol\":944:982  bytes memory result = new bytes(index) */\n      swap1\n      pop\n        /* \"contracts/intRoman.sol\":998:1004  uint k */\n      0x00\n        /* \"contracts/intRoman.sol\":1007:1008  0 */\n      0x00\n        /* \"contracts/intRoman.sol\":998:1008  uint k = 0 */\n      swap1\n      pop\n        /* \"contracts/intRoman.sol\":993:1076  for (uint k = 0; k < index; k++) {... */\n    tag_52:\n        /* \"contracts/intRoman.sol\":1014:1019  index */\n      dup3\n        /* \"contracts/intRoman.sol\":1010:1011  k */\n      dup2\n        /* \"contracts/intRoman.sol\":1010:1019  k < index */\n      lt\n        /* \"contracts/intRoman.sol\":993:1076  for (uint k = 0; k < index; k++) {... */\n      iszero\n      tag_53\n      jumpi\n        /* \"contracts/intRoman.sol\":1053:1061  resBytes */\n      dup4\n        /* \"contracts/intRoman.sol\":1062:1063  k */\n      dup2\n        /* \"contracts/intRoman.sol\":1053:1064  resBytes[k] */\n      dup2\n      mload\n      dup2\n      lt\n      tag_55\n      jumpi\n      tag_56\n      tag_33\n      jump\t// in\n    tag_56:\n    tag_55:\n      0x20\n      add\n      add\n      mload\n      0xf8\n      shr\n      0xf8\n      shl\n        /* \"contracts/intRoman.sol\":1041:1047  result */\n      dup3\n        /* \"contracts/intRoman.sol\":1048:1049  k */\n      dup3\n        /* \"contracts/intRoman.sol\":1041:1050  result[k] */\n      dup2\n      mload\n      dup2\n      lt\n      tag_57\n      jumpi\n      tag_58\n      tag_33\n      jump\t// in\n    tag_58:\n    tag_57:\n      0x20\n      add\n      add\n        /* \"contracts/intRoman.sol\":1041:1064  result[k] = resBytes[k] */\n      swap1\n      not(0xffffffffffffffffffffffffffffffffffffffffffffffffffffffffffffff)\n      and\n      swap1\n      dup2\n      0x00\n      byte\n      swap1\n      mstore8\n      pop\n        /* \"contracts/intRoman.sol\":1021:1024  k++ */\n      dup1\n      dup1\n      0x01\n      add\n      swap2\n      pop\n      pop\n        /* \"contracts/intRoman.sol\":993:1076  for (uint k = 0; k < index; k++) {... */\n      jump(tag_52)\n    tag_53:\n      pop\n        /* \"contracts/intRoman.sol\":1100:1106  result */\n      dup1\n        /* \"contracts/intRoman.sol\":1086:1107  return string(result) */\n      swap6\n      pop\n      pop\n      pop\n      pop\n      pop\n      pop\n        /* \"contracts/intRoman.sol\":116:1115  function intToRoman(uint num) public pure returns (string memory) {... */\n      swap2\n      swap1\n      pop\n      jump\t// out\n        /* \"contracts/intRoman.sol\":1153:1666  function romanToInt(string memory str) public pure returns (uint) {... */\n    tag_14:\n        /* \"contracts/intRoman.sol\":1213:1217  uint */\n      0x00\n        /* \"contracts/intRoman.sol\":1230:1251  bytes memory strBytes */\n      0x00\n        /* \"contracts/intRoman.sol\":1260:1263  str */\n      dup3\n        /* \"contracts/intRoman.sol\":1230:1264  bytes memory strBytes = bytes(str) */\n      swap1\n      pop\n        /* \"contracts/intRoman.sol\":1275:1286  uint strLen */\n      0x00\n        /* \"contracts/intRoman.sol\":1289:1297  strBytes */\n      dup2\n        /* \"contracts/intRoman.sol\":1289:1304  strBytes.length */\n      mload\n        /* \"contracts/intRoman.sol\":1275:1304  uint strLen = strBytes.length */\n      swap1\n      pop\n        /* \"contracts/intRoman.sol\":1315:1324  uint prev */\n      0x00\n        /* \"contracts/intRoman.sol\":1327:1328  0 */\n      0x00\n        /* \"contracts/intRoman.sol\":1315:1328  uint prev = 0 */\n      swap1\n      pop\n        /* \"contracts/intRoman.sol\":1339:1347  uint res */\n      0x00\n        /* \"contracts/intRoman.sol\":1350:1351  0 */\n      0x00\n        /* \"contracts/intRoman.sol\":1339:1351  uint res = 0 */\n      swap1\n      pop\n        /* \"contracts/intRoman.sol\":1366:1372  uint i */\n      0x00\n        /* \"contracts/intRoman.sol\":1375:1376  0 */\n      0x00\n        /* \"contracts/intRoman.sol\":1366:1376  uint i = 0 */\n      swap1\n      pop\n        /* \"contracts/intRoman.sol\":1362:1638  for(uint i = 0; i < strLen; i++){... */\n    tag_60:\n        /* \"contracts/intRoman.sol\":1382:1388  strLen */\n      dup4\n        /* \"contracts/intRoman.sol\":1378:1379  i */\n      dup2\n        /* \"contracts/intRoman.sol\":1378:1388  i < strLen */\n      lt\n        /* \"contracts/intRoman.sol\":1362:1638  for(uint i = 0; i < strLen; i++){... */\n      iszero\n      tag_61\n      jumpi\n        /* \"contracts/intRoman.sol\":1409:1421  uint current */\n      0x00\n        /* \"contracts/intRoman.sol\":1424:1460  _getRomanValue(strBytes[strLen-1-i]) */\n      tag_63\n        /* \"contracts/intRoman.sol\":1439:1447  strBytes */\n      dup7\n        /* \"contracts/intRoman.sol\":1457:1458  i */\n      dup4\n        /* \"contracts/intRoman.sol\":1455:1456  1 */\n      0x01\n        /* \"contracts/intRoman.sol\":1448:1454  strLen */\n      dup9\n        /* \"contracts/intRoman.sol\":1448:1456  strLen-1 */\n      tag_64\n      swap2\n      swap1\n      tag_37\n      jump\t// in\n    tag_64:\n        /* \"contracts/intRoman.sol\":1448:1458  strLen-1-i */\n      tag_65\n      swap2\n      swap1\n      tag_37\n      jump\t// in\n    tag_65:\n        /* \"contracts/intRoman.sol\":1439:1459  strBytes[strLen-1-i] */\n      dup2\n      mload\n      dup2\n      lt\n      tag_66\n      jumpi\n      tag_67\n      tag_33\n      jump\t// in\n    tag_67:\n    tag_66:\n      0x20\n      add\n      add\n      mload\n      0xf8\n      shr\n      0xf8\n      shl\n        /* \"contracts/intRoman.sol\":1424:1438  _getRomanValue */\n      tag_68\n        /* \"contracts/intRoman.sol\":1424:1460  _getRomanValue(strBytes[strLen-1-i]) */\n      jump\t// in\n    tag_63:\n        /* \"contracts/intRoman.sol\":1409:1460  uint current = _getRomanValue(strBytes[strLen-1-i]) */\n      swap1\n      pop\n        /* \"contracts/intRoman.sol\":1488:1492  prev */\n      dup4\n        /* \"contracts/intRoman.sol\":1478:1485  current */\n      dup2\n        /* \"contracts/intRoman.sol\":1478:1492  current < prev */\n      lt\n        /* \"contracts/intRoman.sol\":1475:1598  if(current < prev) {... */\n      iszero\n      tag_69\n      jumpi\n        /* \"contracts/intRoman.sol\":1520:1527  current */\n      dup1\n        /* \"contracts/intRoman.sol\":1513:1527  res -= current */\n      dup4\n      tag_70\n      swap2\n      swap1\n      tag_37\n      jump\t// in\n    tag_70:\n      swap3\n      pop\n        /* \"contracts/intRoman.sol\":1475:1598  if(current < prev) {... */\n      jump(tag_71)\n    tag_69:\n        /* \"contracts/intRoman.sol\":1575:1582  current */\n      dup1\n        /* \"contracts/intRoman.sol\":1568:1582  res += current */\n      dup4\n      tag_72\n      swap2\n      swap1\n      tag_73\n      jump\t// in\n    tag_72:\n      swap3\n      pop\n        /* \"contracts/intRoman.sol\":1475:1598  if(current < prev) {... */\n    tag_71:\n        /* \"contracts/intRoman.sol\":1619:1626  current */\n      dup1\n        /* \"contracts/intRoman.sol\":1612:1626  prev = current */\n      swap4\n      pop\n        /* \"contracts/intRoman.sol\":1394:1638  {... */\n      pop\n        /* \"contracts/intRoman.sol\":1390:1393  i++ */\n      dup1\n      dup1\n      0x01\n      add\n      swap2\n      pop\n      pop\n        /* \"contracts/intRoman.sol\":1362:1638  for(uint i = 0; i < strLen; i++){... */\n      jump(tag_60)\n    tag_61:\n      pop\n        /* \"contracts/intRoman.sol\":1655:1658  res */\n      dup1\n        /* \"contracts/intRoman.sol\":1648:1658  return res */\n      swap5\n      pop\n      pop\n      pop\n      pop\n      pop\n        /* \"contracts/intRoman.sol\":1153:1666  function romanToInt(string memory str) public pure returns (uint) {... */\n      swap2\n      swap1\n      pop\n      jump\t// out\n        /* \"contracts/intRoman.sol\":1674:2209  function _getRomanValue(bytes1 char) private pure returns (uint) {... */\n    tag_68:\n        /* \"contracts/intRoman.sol\":1733:1737  uint */\n      0x00\n        /* \"contracts/intRoman.sol\":1754:1765  char == 'I' */\n      0x4900000000000000000000000000000000000000000000000000000000000000\n        /* \"contracts/intRoman.sol\":1754:1758  char */\n      dup3\n        /* \"contracts/intRoman.sol\":1754:1765  char == 'I' */\n      not(0xffffffffffffffffffffffffffffffffffffffffffffffffffffffffffffff)\n      and\n      sub\n        /* \"contracts/intRoman.sol\":1750:1802  if (char == 'I') {... */\n      tag_75\n      jumpi\n        /* \"contracts/intRoman.sol\":1789:1790  1 */\n      0x01\n        /* \"contracts/intRoman.sol\":1782:1790  return 1 */\n      swap1\n      pop\n      jump(tag_74)\n        /* \"contracts/intRoman.sol\":1750:1802  if (char == 'I') {... */\n    tag_75:\n        /* \"contracts/intRoman.sol\":1816:1827  char == 'V' */\n      0x5600000000000000000000000000000000000000000000000000000000000000\n        /* \"contracts/intRoman.sol\":1816:1820  char */\n      dup3\n        /* \"contracts/intRoman.sol\":1816:1827  char == 'V' */\n      not(0xffffffffffffffffffffffffffffffffffffffffffffffffffffffffffffff)\n      and\n      sub\n        /* \"contracts/intRoman.sol\":1812:1864  if (char == 'V') {... */\n      tag_76\n      jumpi\n        /* \"contracts/intRoman.sol\":1851:1852  5 */\n      0x05\n        /* \"contracts/intRoman.sol\":1844:1852  return 5 */\n      swap1\n      pop\n      jump(tag_74)\n        /* \"contracts/intRoman.sol\":1812:1864  if (char == 'V') {... */\n    tag_76:\n        /* \"contracts/intRoman.sol\":1878:1889  char == 'X' */\n      0x5800000000000000000000000000000000000000000000000000000000000000\n        /* \"contracts/intRoman.sol\":1878:1882  char */\n      dup3\n        /* \"contracts/intRoman.sol\":1878:1889  char == 'X' */\n      not(0xffffffffffffffffffffffffffffffffffffffffffffffffffffffffffffff)\n      and\n      sub\n        /* \"contracts/intRoman.sol\":1874:1927  if (char == 'X') {... */\n      tag_77\n      jumpi\n        /* \"contracts/intRoman.sol\":1913:1915  10 */\n      0x0a\n        /* \"contracts/intRoman.sol\":1906:1915  return 10 */\n      swap1\n      pop\n      jump(tag_74)\n        /* \"contracts/intRoman.sol\":1874:1927  if (char == 'X') {... */\n    tag_77:\n        /* \"contracts/intRoman.sol\":1941:1952  char == 'L' */\n      0x4c00000000000000000000000000000000000000000000000000000000000000\n        /* \"contracts/intRoman.sol\":1941:1945  char */\n      dup3\n        /* \"contracts/intRoman.sol\":1941:1952  char == 'L' */\n      not(0xffffffffffffffffffffffffffffffffffffffffffffffffffffffffffffff)\n      and\n      sub\n        /* \"contracts/intRoman.sol\":1937:1990  if (char == 'L') {... */\n      tag_78\n      jumpi\n        /* \"contracts/intRoman.sol\":1976:1978  50 */\n      0x32\n        /* \"contracts/intRoman.sol\":1969:1978  return 50 */\n      swap1\n      pop\n      jump(tag_74)\n        /* \"contracts/intRoman.sol\":1937:1990  if (char == 'L') {... */\n    tag_78:\n        /* \"contracts/intRoman.sol\":2004:2015  char == 'C' */\n      0x4300000000000000000000000000000000000000000000000000000000000000\n        /* \"contracts/intRoman.sol\":2004:2008  char */\n      dup3\n        /* \"contracts/intRoman.sol\":2004:2015  char == 'C' */\n      not(0xffffffffffffffffffffffffffffffffffffffffffffffffffffffffffffff)\n      and\n      sub\n        /* \"contracts/intRoman.sol\":2000:2054  if (char == 'C') {... */\n      tag_79\n      jumpi\n        /* \"contracts/intRoman.sol\":2039:2042  100 */\n      0x64\n        /* \"contracts/intRoman.sol\":2032:2042  return 100 */\n      swap1\n      pop\n      jump(tag_74)\n        /* \"contracts/intRoman.sol\":2000:2054  if (char == 'C') {... */\n    tag_79:\n        /* \"contracts/intRoman.sol\":2068:2079  char == \"D\" */\n      0x4400000000000000000000000000000000000000000000000000000000000000\n        /* \"contracts/intRoman.sol\":2068:2072  char */\n      dup3\n        /* \"contracts/intRoman.sol\":2068:2079  char == \"D\" */\n      not(0xffffffffffffffffffffffffffffffffffffffffffffffffffffffffffffff)\n      and\n      sub\n        /* \"contracts/intRoman.sol\":2064:2118  if (char == \"D\") {... */\n      tag_80\n      jumpi\n        /* \"contracts/intRoman.sol\":2103:2106  500 */\n      0x01f4\n        /* \"contracts/intRoman.sol\":2096:2106  return 500 */\n      swap1\n      pop\n      jump(tag_74)\n        /* \"contracts/intRoman.sol\":2064:2118  if (char == \"D\") {... */\n    tag_80:\n        /* \"contracts/intRoman.sol\":2132:2143  char == \"M\" */\n      0x4d00000000000000000000000000000000000000000000000000000000000000\n        /* \"contracts/intRoman.sol\":2132:2136  char */\n      dup3\n        /* \"contracts/intRoman.sol\":2132:2143  char == \"M\" */\n      not(0xffffffffffffffffffffffffffffffffffffffffffffffffffffffffffffff)\n      and\n      sub\n        /* \"contracts/intRoman.sol\":2128:2183  if (char == \"M\") {... */\n      tag_81\n      jumpi\n        /* \"contracts/intRoman.sol\":2167:2171  1000 */\n      0x03e8\n        /* \"contracts/intRoman.sol\":2160:2171  return 1000 */\n      swap1\n      pop\n      jump(tag_74)\n        /* \"contracts/intRoman.sol\":2128:2183  if (char == \"M\") {... */\n    tag_81:\n        /* \"contracts/intRoman.sol\":2200:2201  0 */\n      0x00\n        /* \"contracts/intRoman.sol\":2193:2201  return 0 */\n      swap1\n      pop\n        /* \"contracts/intRoman.sol\":1674:2209  function _getRomanValue(bytes1 char) private pure returns (uint) {... */\n    tag_74:\n      swap2\n      swap1\n      pop\n      jump\t// out\n        /* \"#utility.yul\":7:82   */\n    tag_82:\n        /* \"#utility.yul\":40:46   */\n      0x00\n        /* \"#utility.yul\":73:75   */\n      0x40\n        /* \"#utility.yul\":67:76   */\n      mload\n        /* \"#utility.yul\":57:76   */\n      swap1\n      pop\n        /* \"#utility.yul\":7:82   */\n      swap1\n      jump\t// out\n        /* \"#utility.yul\":88:205   */\n    tag_83:\n        /* \"#utility.yul\":197:198   */\n      0x00\n        /* \"#utility.yul\":194:195   */\n      0x00\n        /* \"#utility.yul\":187:199   */\n      revert\n        /* \"#utility.yul\":211:328   */\n    tag_84:\n        /* \"#utility.yul\":320:321   */\n      0x00\n        /* \"#utility.yul\":317:318   */\n      0x00\n        /* \"#utility.yul\":310:322   */\n      revert\n        /* \"#utility.yul\":334:411   */\n    tag_85:\n        /* \"#utility.yul\":371:378   */\n      0x00\n        /* \"#utility.yul\":400:405   */\n      dup2\n        /* \"#utility.yul\":389:405   */\n      swap1\n      pop\n        /* \"#utility.yul\":334:411   */\n      swap2\n      swap1\n      pop\n      jump\t// out\n        /* \"#utility.yul\":417:539   */\n    tag_86:\n        /* \"#utility.yul\":490:514   */\n      tag_111\n        /* \"#utility.yul\":508:513   */\n      dup2\n        /* \"#utility.yul\":490:514   */\n      tag_85\n      jump\t// in\n    tag_111:\n        /* \"#utility.yul\":483:488   */\n      dup2\n        /* \"#utility.yul\":480:515   */\n      eq\n        /* \"#utility.yul\":470:533   */\n      tag_112\n      jumpi\n        /* \"#utility.yul\":529:530   */\n      0x00\n        /* \"#utility.yul\":526:527   */\n      0x00\n        /* \"#utility.yul\":519:531   */\n      revert\n        /* \"#utility.yul\":470:533   */\n    tag_112:\n        /* \"#utility.yul\":417:539   */\n      pop\n      jump\t// out\n        /* \"#utility.yul\":545:684   */\n    tag_87:\n        /* \"#utility.yul\":591:596   */\n      0x00\n        /* \"#utility.yul\":629:635   */\n      dup2\n        /* \"#utility.yul\":616:636   */\n      calldataload\n        /* \"#utility.yul\":607:636   */\n      swap1\n      pop\n        /* \"#utility.yul\":645:678   */\n      tag_114\n        /* \"#utility.yul\":672:677   */\n      dup2\n        /* \"#utility.yul\":645:678   */\n      tag_86\n      jump\t// in\n    tag_114:\n        /* \"#utility.yul\":545:684   */\n      swap3\n      swap2\n      pop\n      pop\n      jump\t// out\n        /* \"#utility.yul\":690:1019   */\n    tag_7:\n        /* \"#utility.yul\":749:755   */\n      0x00\n        /* \"#utility.yul\":798:800   */\n      0x20\n        /* \"#utility.yul\":786:795   */\n      dup3\n        /* \"#utility.yul\":777:784   */\n      dup5\n        /* \"#utility.yul\":773:796   */\n      sub\n        /* \"#utility.yul\":769:801   */\n      slt\n        /* \"#utility.yul\":766:885   */\n      iszero\n      tag_116\n      jumpi\n        /* \"#utility.yul\":804:883   */\n      tag_117\n      tag_83\n      jump\t// in\n    tag_117:\n        /* \"#utility.yul\":766:885   */\n    tag_116:\n        /* \"#utility.yul\":924:925   */\n      0x00\n        /* \"#utility.yul\":949:1002   */\n      tag_118\n        /* \"#utility.yul\":994:1001   */\n      dup5\n        /* \"#utility.yul\":985:991   */\n      dup3\n        /* \"#utility.yul\":974:983   */\n      dup6\n        /* \"#utility.yul\":970:992   */\n      add\n        /* \"#utility.yul\":949:1002   */\n      tag_87\n      jump\t// in\n    tag_118:\n        /* \"#utility.yul\":939:1002   */\n      swap2\n      pop\n        /* \"#utility.yul\":895:1012   */\n      pop\n        /* \"#utility.yul\":690:1019   */\n      swap3\n      swap2\n      pop\n      pop\n      jump\t// out\n        /* \"#utility.yul\":1025:1124   */\n    tag_88:\n        /* \"#utility.yul\":1077:1083   */\n      0x00\n        /* \"#utility.yul\":1111:1116   */\n      dup2\n        /* \"#utility.yul\":1105:1117   */\n      mload\n        /* \"#utility.yul\":1095:1117   */\n      swap1\n      pop\n        /* \"#utility.yul\":1025:1124   */\n      swap2\n      swap1\n      pop\n      jump\t// out\n        /* \"#utility.yul\":1130:1299   */\n    tag_89:\n        /* \"#utility.yul\":1214:1225   */\n      0x00\n        /* \"#utility.yul\":1248:1254   */\n      dup3\n        /* \"#utility.yul\":1243:1246   */\n      dup3\n        /* \"#utility.yul\":1236:1255   */\n      mstore\n        /* \"#utility.yul\":1288:1292   */\n      0x20\n        /* \"#utility.yul\":1283:1286   */\n      dup3\n        /* \"#utility.yul\":1279:1293   */\n      add\n        /* \"#utility.yul\":1264:1293   */\n      swap1\n      pop\n        /* \"#utility.yul\":1130:1299   */\n      swap3\n      swap2\n      pop\n      pop\n      jump\t// out\n        /* \"#utility.yul\":1305:1444   */\n    tag_90:\n        /* \"#utility.yul\":1394:1400   */\n      dup3\n        /* \"#utility.yul\":1389:1392   */\n      dup2\n        /* \"#utility.yul\":1384:1387   */\n      dup4\n        /* \"#utility.yul\":1378:1401   */\n      mcopy\n        /* \"#utility.yul\":1435:1436   */\n      0x00\n        /* \"#utility.yul\":1426:1432   */\n      dup4\n        /* \"#utility.yul\":1421:1424   */\n      dup4\n        /* \"#utility.yul\":1417:1433   */\n      add\n        /* \"#utility.yul\":1410:1437   */\n      mstore\n        /* \"#utility.yul\":1305:1444   */\n      pop\n      pop\n      pop\n      jump\t// out\n        /* \"#utility.yul\":1450:1552   */\n    tag_91:\n        /* \"#utility.yul\":1491:1497   */\n      0x00\n        /* \"#utility.yul\":1542:1544   */\n      0x1f\n        /* \"#utility.yul\":1538:1545   */\n      not\n        /* \"#utility.yul\":1533:1535   */\n      0x1f\n        /* \"#utility.yul\":1526:1531   */\n      dup4\n        /* \"#utility.yul\":1522:1536   */\n      add\n        /* \"#utility.yul\":1518:1546   */\n      and\n        /* \"#utility.yul\":1508:1546   */\n      swap1\n      pop\n        /* \"#utility.yul\":1450:1552   */\n      swap2\n      swap1\n      pop\n      jump\t// out\n        /* \"#utility.yul\":1558:1935   */\n    tag_92:\n        /* \"#utility.yul\":1646:1649   */\n      0x00\n        /* \"#utility.yul\":1674:1713   */\n      tag_124\n        /* \"#utility.yul\":1707:1712   */\n      dup3\n        /* \"#utility.yul\":1674:1713   */\n      tag_88\n      jump\t// in\n    tag_124:\n        /* \"#utility.yul\":1729:1800   */\n      tag_125\n        /* \"#utility.yul\":1793:1799   */\n      dup2\n        /* \"#utility.yul\":1788:1791   */\n      dup6\n        /* \"#utility.yul\":1729:1800   */\n      tag_89\n      jump\t// in\n    tag_125:\n        /* \"#utility.yul\":1722:1800   */\n      swap4\n      pop\n        /* \"#utility.yul\":1809:1874   */\n      tag_126\n        /* \"#utility.yul\":1867:1873   */\n      dup2\n        /* \"#utility.yul\":1862:1865   */\n      dup6\n        /* \"#utility.yul\":1855:1859   */\n      0x20\n        /* \"#utility.yul\":1848:1853   */\n      dup7\n        /* \"#utility.yul\":1844:1860   */\n      add\n        /* \"#utility.yul\":1809:1874   */\n      tag_90\n      jump\t// in\n    tag_126:\n        /* \"#utility.yul\":1899:1928   */\n      tag_127\n        /* \"#utility.yul\":1921:1927   */\n      dup2\n        /* \"#utility.yul\":1899:1928   */\n      tag_91\n      jump\t// in\n    tag_127:\n        /* \"#utility.yul\":1894:1897   */\n      dup5\n        /* \"#utility.yul\":1890:1929   */\n      add\n        /* \"#utility.yul\":1883:1929   */\n      swap2\n      pop\n        /* \"#utility.yul\":1650:1935   */\n      pop\n        /* \"#utility.yul\":1558:1935   */\n      swap3\n      swap2\n      pop\n      pop\n      jump\t// out\n        /* \"#utility.yul\":1941:2254   */\n    tag_10:\n        /* \"#utility.yul\":2054:2058   */\n      0x00\n        /* \"#utility.yul\":2092:2094   */\n      0x20\n        /* \"#utility.yul\":2081:2090   */\n      dup3\n        /* \"#utility.yul\":2077:2095   */\n      add\n        /* \"#utility.yul\":2069:2095   */\n      swap1\n      pop\n        /* \"#utility.yul\":2141:2150   */\n      dup2\n        /* \"#utility.yul\":2135:2139   */\n      dup2\n        /* \"#utility.yul\":2131:2151   */\n      sub\n        /* \"#utility.yul\":2127:2128   */\n      0x00\n        /* \"#utility.yul\":2116:2125   */\n      dup4\n        /* \"#utility.yul\":2112:2129   */\n      add\n        /* \"#utility.yul\":2105:2152   */\n      mstore\n        /* \"#utility.yul\":2169:2247   */\n      tag_129\n        /* \"#utility.yul\":2242:2246   */\n      dup2\n        /* \"#utility.yul\":2233:2239   */\n      dup5\n        /* \"#utility.yul\":2169:2247   */\n      tag_92\n      jump\t// in\n    tag_129:\n        /* \"#utility.yul\":2161:2247   */\n      swap1\n      pop\n        /* \"#utility.yul\":1941:2254   */\n      swap3\n      swap2\n      pop\n      pop\n      jump\t// out\n        /* \"#utility.yul\":2260:2377   */\n    tag_93:\n        /* \"#utility.yul\":2369:2370   */\n      0x00\n        /* \"#utility.yul\":2366:2367   */\n      0x00\n        /* \"#utility.yul\":2359:2371   */\n      revert\n        /* \"#utility.yul\":2383:2500   */\n    tag_94:\n        /* \"#utility.yul\":2492:2493   */\n      0x00\n        /* \"#utility.yul\":2489:2490   */\n      0x00\n        /* \"#utility.yul\":2482:2494   */\n      revert\n        /* \"#utility.yul\":2506:2686   */\n    tag_24:\n        /* \"#utility.yul\":2554:2631   */\n      0x4e487b7100000000000000000000000000000000000000000000000000000000\n        /* \"#utility.yul\":2551:2552   */\n      0x00\n        /* \"#utility.yul\":2544:2632   */\n      mstore\n        /* \"#utility.yul\":2651:2655   */\n      0x41\n        /* \"#utility.yul\":2648:2649   */\n      0x04\n        /* \"#utility.yul\":2641:2656   */\n      mstore\n        /* \"#utility.yul\":2675:2679   */\n      0x24\n        /* \"#utility.yul\":2672:2673   */\n      0x00\n        /* \"#utility.yul\":2665:2680   */\n      revert\n        /* \"#utility.yul\":2692:2973   */\n    tag_95:\n        /* \"#utility.yul\":2775:2802   */\n      tag_134\n        /* \"#utility.yul\":2797:2801   */\n      dup3\n        /* \"#utility.yul\":2775:2802   */\n      tag_91\n      jump\t// in\n    tag_134:\n        /* \"#utility.yul\":2767:2773   */\n      dup2\n        /* \"#utility.yul\":2763:2803   */\n      add\n        /* \"#utility.yul\":2905:2911   */\n      dup2\n        /* \"#utility.yul\":2893:2903   */\n      dup2\n        /* \"#utility.yul\":2890:2912   */\n      lt\n        /* \"#utility.yul\":2869:2887   */\n      0xffffffffffffffff\n        /* \"#utility.yul\":2857:2867   */\n      dup3\n        /* \"#utility.yul\":2854:2888   */\n      gt\n        /* \"#utility.yul\":2851:2913   */\n      or\n        /* \"#utility.yul\":2848:2936   */\n      iszero\n      tag_135\n      jumpi\n        /* \"#utility.yul\":2916:2934   */\n      tag_136\n      tag_24\n      jump\t// in\n    tag_136:\n        /* \"#utility.yul\":2848:2936   */\n    tag_135:\n        /* \"#utility.yul\":2956:2966   */\n      dup1\n        /* \"#utility.yul\":2952:2954   */\n      0x40\n        /* \"#utility.yul\":2945:2967   */\n      mstore\n        /* \"#utility.yul\":2735:2973   */\n      pop\n        /* \"#utility.yul\":2692:2973   */\n      pop\n      pop\n      jump\t// out\n        /* \"#utility.yul\":2979:3108   */\n    tag_96:\n        /* \"#utility.yul\":3013:3019   */\n      0x00\n        /* \"#utility.yul\":3040:3060   */\n      tag_138\n      tag_82\n      jump\t// in\n    tag_138:\n        /* \"#utility.yul\":3030:3060   */\n      swap1\n      pop\n        /* \"#utility.yul\":3069:3102   */\n      tag_139\n        /* \"#utility.yul\":3097:3101   */\n      dup3\n        /* \"#utility.yul\":3089:3095   */\n      dup3\n        /* \"#utility.yul\":3069:3102   */\n      tag_95\n      jump\t// in\n    tag_139:\n        /* \"#utility.yul\":2979:3108   */\n      swap2\n      swap1\n      pop\n      jump\t// out\n        /* \"#utility.yul\":3114:3422   */\n    tag_97:\n        /* \"#utility.yul\":3176:3180   */\n      0x00\n        /* \"#utility.yul\":3266:3284   */\n      0xffffffffffffffff\n        /* \"#utility.yul\":3258:3264   */\n      dup3\n        /* \"#utility.yul\":3255:3285   */\n      gt\n        /* \"#utility.yul\":3252:3308   */\n      iszero\n      tag_141\n      jumpi\n        /* \"#utility.yul\":3288:3306   */\n      tag_142\n      tag_24\n      jump\t// in\n    tag_142:\n        /* \"#utility.yul\":3252:3308   */\n    tag_141:\n        /* \"#utility.yul\":3326:3355   */\n      tag_143\n        /* \"#utility.yul\":3348:3354   */\n      dup3\n        /* \"#utility.yul\":3326:3355   */\n      tag_91\n      jump\t// in\n    tag_143:\n        /* \"#utility.yul\":3318:3355   */\n      swap1\n      pop\n        /* \"#utility.yul\":3410:3414   */\n      0x20\n        /* \"#utility.yul\":3404:3408   */\n      dup2\n        /* \"#utility.yul\":3400:3415   */\n      add\n        /* \"#utility.yul\":3392:3415   */\n      swap1\n      pop\n        /* \"#utility.yul\":3114:3422   */\n      swap2\n      swap1\n      pop\n      jump\t// out\n        /* \"#utility.yul\":3428:3576   */\n    tag_98:\n        /* \"#utility.yul\":3526:3532   */\n      dup3\n        /* \"#utility.yul\":3521:3524   */\n      dup2\n        /* \"#utility.yul\":3516:3519   */\n      dup4\n        /* \"#utility.yul\":3503:3533   */\n      calldatacopy\n        /* \"#utility.yul\":3567:3568   */\n      0x00\n        /* \"#utility.yul\":3558:3564   */\n      dup4\n        /* \"#utility.yul\":3553:3556   */\n      dup4\n        /* \"#utility.yul\":3549:3565   */\n      add\n        /* \"#utility.yul\":3542:3569   */\n      mstore\n        /* \"#utility.yul\":3428:3576   */\n      pop\n      pop\n      pop\n      jump\t// out\n        /* \"#utility.yul\":3582:4007   */\n    tag_99:\n        /* \"#utility.yul\":3660:3665   */\n      0x00\n        /* \"#utility.yul\":3685:3751   */\n      tag_146\n        /* \"#utility.yul\":3701:3750   */\n      tag_147\n        /* \"#utility.yul\":3743:3749   */\n      dup5\n        /* \"#utility.yul\":3701:3750   */\n      tag_97\n      jump\t// in\n    tag_147:\n        /* \"#utility.yul\":3685:3751   */\n      tag_96\n      jump\t// in\n    tag_146:\n        /* \"#utility.yul\":3676:3751   */\n      swap1\n      pop\n        /* \"#utility.yul\":3774:3780   */\n      dup3\n        /* \"#utility.yul\":3767:3772   */\n      dup2\n        /* \"#utility.yul\":3760:3781   */\n      mstore\n        /* \"#utility.yul\":3812:3816   */\n      0x20\n        /* \"#utility.yul\":3805:3810   */\n      dup2\n        /* \"#utility.yul\":3801:3817   */\n      add\n        /* \"#utility.yul\":3850:3853   */\n      dup5\n        /* \"#utility.yul\":3841:3847   */\n      dup5\n        /* \"#utility.yul\":3836:3839   */\n      dup5\n        /* \"#utility.yul\":3832:3848   */\n      add\n        /* \"#utility.yul\":3829:3854   */\n      gt\n        /* \"#utility.yul\":3826:3938   */\n      iszero\n      tag_148\n      jumpi\n        /* \"#utility.yul\":3857:3936   */\n      tag_149\n      tag_94\n      jump\t// in\n    tag_149:\n        /* \"#utility.yul\":3826:3938   */\n    tag_148:\n        /* \"#utility.yul\":3947:4001   */\n      tag_150\n        /* \"#utility.yul\":3994:4000   */\n      dup5\n        /* \"#utility.yul\":3989:3992   */\n      dup3\n        /* \"#utility.yul\":3984:3987   */\n      dup6\n        /* \"#utility.yul\":3947:4001   */\n      tag_98\n      jump\t// in\n    tag_150:\n        /* \"#utility.yul\":3666:4007   */\n      pop\n        /* \"#utility.yul\":3582:4007   */\n      swap4\n      swap3\n      pop\n      pop\n      pop\n      jump\t// out\n        /* \"#utility.yul\":4027:4367   */\n    tag_100:\n        /* \"#utility.yul\":4083:4088   */\n      0x00\n        /* \"#utility.yul\":4132:4135   */\n      dup3\n        /* \"#utility.yul\":4125:4129   */\n      0x1f\n        /* \"#utility.yul\":4117:4123   */\n      dup4\n        /* \"#utility.yul\":4113:4130   */\n      add\n        /* \"#utility.yul\":4109:4136   */\n      slt\n        /* \"#utility.yul\":4099:4221   */\n      tag_152\n      jumpi\n        /* \"#utility.yul\":4140:4219   */\n      tag_153\n      tag_93\n      jump\t// in\n    tag_153:\n        /* \"#utility.yul\":4099:4221   */\n    tag_152:\n        /* \"#utility.yul\":4257:4263   */\n      dup2\n        /* \"#utility.yul\":4244:4264   */\n      calldataload\n        /* \"#utility.yul\":4282:4361   */\n      tag_154\n        /* \"#utility.yul\":4357:4360   */\n      dup5\n        /* \"#utility.yul\":4349:4355   */\n      dup3\n        /* \"#utility.yul\":4342:4346   */\n      0x20\n        /* \"#utility.yul\":4334:4340   */\n      dup7\n        /* \"#utility.yul\":4330:4347   */\n      add\n        /* \"#utility.yul\":4282:4361   */\n      tag_99\n      jump\t// in\n    tag_154:\n        /* \"#utility.yul\":4273:4361   */\n      swap2\n      pop\n        /* \"#utility.yul\":4089:4367   */\n      pop\n        /* \"#utility.yul\":4027:4367   */\n      swap3\n      swap2\n      pop\n      pop\n      jump\t// out\n        /* \"#utility.yul\":4373:4882   */\n    tag_13:\n        /* \"#utility.yul\":4442:4448   */\n      0x00\n        /* \"#utility.yul\":4491:4493   */\n      0x20\n        /* \"#utility.yul\":4479:4488   */\n      dup3\n        /* \"#utility.yul\":4470:4477   */\n      dup5\n        /* \"#utility.yul\":4466:4489   */\n      sub\n        /* \"#utility.yul\":4462:4494   */\n      slt\n        /* \"#utility.yul\":4459:4578   */\n      iszero\n      tag_156\n      jumpi\n        /* \"#utility.yul\":4497:4576   */\n      tag_157\n      tag_83\n      jump\t// in\n    tag_157:\n        /* \"#utility.yul\":4459:4578   */\n    tag_156:\n        /* \"#utility.yul\":4645:4646   */\n      0x00\n        /* \"#utility.yul\":4634:4643   */\n      dup3\n        /* \"#utility.yul\":4630:4647   */\n      add\n        /* \"#utility.yul\":4617:4648   */\n      calldataload\n        /* \"#utility.yul\":4675:4693   */\n      0xffffffffffffffff\n        /* \"#utility.yul\":4667:4673   */\n      dup2\n        /* \"#utility.yul\":4664:4694   */\n      gt\n        /* \"#utility.yul\":4661:4778   */\n      iszero\n      tag_158\n      jumpi\n        /* \"#utility.yul\":4697:4776   */\n      tag_159\n      tag_84\n      jump\t// in\n    tag_159:\n        /* \"#utility.yul\":4661:4778   */\n    tag_158:\n        /* \"#utility.yul\":4802:4865   */\n      tag_160\n        /* \"#utility.yul\":4857:4864   */\n      dup5\n        /* \"#utility.yul\":4848:4854   */\n      dup3\n        /* \"#utility.yul\":4837:4846   */\n      dup6\n        /* \"#utility.yul\":4833:4855   */\n      add\n        /* \"#utility.yul\":4802:4865   */\n      tag_100\n      jump\t// in\n    tag_160:\n        /* \"#utility.yul\":4792:4865   */\n      swap2\n      pop\n        /* \"#utility.yul\":4588:4875   */\n      pop\n        /* \"#utility.yul\":4373:4882   */\n      swap3\n      swap2\n      pop\n      pop\n      jump\t// out\n        /* \"#utility.yul\":4888:5006   */\n    tag_101:\n        /* \"#utility.yul\":4975:4999   */\n      tag_162\n        /* \"#utility.yul\":4993:4998   */\n      dup2\n        /* \"#utility.yul\":4975:4999   */\n      tag_85\n      jump\t// in\n    tag_162:\n        /* \"#utility.yul\":4970:4973   */\n      dup3\n        /* \"#utility.yul\":4963:5000   */\n      mstore\n        /* \"#utility.yul\":4888:5006   */\n      pop\n      pop\n      jump\t// out\n        /* \"#utility.yul\":5012:5234   */\n    tag_16:\n        /* \"#utility.yul\":5105:5109   */\n      0x00\n        /* \"#utility.yul\":5143:5145   */\n      0x20\n        /* \"#utility.yul\":5132:5141   */\n      dup3\n        /* \"#utility.yul\":5128:5146   */\n      add\n        /* \"#utility.yul\":5120:5146   */\n      swap1\n      pop\n        /* \"#utility.yul\":5156:5227   */\n      tag_164\n        /* \"#utility.yul\":5224:5225   */\n      0x00\n        /* \"#utility.yul\":5213:5222   */\n      dup4\n        /* \"#utility.yul\":5209:5226   */\n      add\n        /* \"#utility.yul\":5200:5206   */\n      dup5\n        /* \"#utility.yul\":5156:5227   */\n      tag_101\n      jump\t// in\n    tag_164:\n        /* \"#utility.yul\":5012:5234   */\n      swap3\n      swap2\n      pop\n      pop\n      jump\t// out\n        /* \"#utility.yul\":5240:5419   */\n    tag_102:\n        /* \"#utility.yul\":5380:5411   */\n      0x53686f756c64206265206265747765656e203120616e6420333939392e000000\n        /* \"#utility.yul\":5376:5377   */\n      0x00\n        /* \"#utility.yul\":5368:5374   */\n      dup3\n        /* \"#utility.yul\":5364:5378   */\n      add\n        /* \"#utility.yul\":5357:5412   */\n      mstore\n        /* \"#utility.yul\":5240:5419   */\n      pop\n      jump\t// out\n        /* \"#utility.yul\":5425:5791   */\n    tag_103:\n        /* \"#utility.yul\":5567:5570   */\n      0x00\n        /* \"#utility.yul\":5588:5655   */\n      tag_167\n        /* \"#utility.yul\":5652:5654   */\n      0x1d\n        /* \"#utility.yul\":5647:5650   */\n      dup4\n        /* \"#utility.yul\":5588:5655   */\n      tag_89\n      jump\t// in\n    tag_167:\n        /* \"#utility.yul\":5581:5655   */\n      swap2\n      pop\n        /* \"#utility.yul\":5664:5757   */\n      tag_168\n        /* \"#utility.yul\":5753:5756   */\n      dup3\n        /* \"#utility.yul\":5664:5757   */\n      tag_102\n      jump\t// in\n    tag_168:\n        /* \"#utility.yul\":5782:5784   */\n      0x20\n        /* \"#utility.yul\":5777:5780   */\n      dup3\n        /* \"#utility.yul\":5773:5785   */\n      add\n        /* \"#utility.yul\":5766:5785   */\n      swap1\n      pop\n        /* \"#utility.yul\":5425:5791   */\n      swap2\n      swap1\n      pop\n      jump\t// out\n        /* \"#utility.yul\":5797:6216   */\n    tag_21:\n        /* \"#utility.yul\":5963:5967   */\n      0x00\n        /* \"#utility.yul\":6001:6003   */\n      0x20\n        /* \"#utility.yul\":5990:5999   */\n      dup3\n        /* \"#utility.yul\":5986:6004   */\n      add\n        /* \"#utility.yul\":5978:6004   */\n      swap1\n      pop\n        /* \"#utility.yul\":6050:6059   */\n      dup2\n        /* \"#utility.yul\":6044:6048   */\n      dup2\n        /* \"#utility.yul\":6040:6060   */\n      sub\n        /* \"#utility.yul\":6036:6037   */\n      0x00\n        /* \"#utility.yul\":6025:6034   */\n      dup4\n        /* \"#utility.yul\":6021:6038   */\n      add\n        /* \"#utility.yul\":6014:6061   */\n      mstore\n        /* \"#utility.yul\":6078:6209   */\n      tag_170\n        /* \"#utility.yul\":6204:6208   */\n      dup2\n        /* \"#utility.yul\":6078:6209   */\n      tag_103\n      jump\t// in\n    tag_170:\n        /* \"#utility.yul\":6070:6209   */\n      swap1\n      pop\n        /* \"#utility.yul\":5797:6216   */\n      swap2\n      swap1\n      pop\n      jump\t// out\n        /* \"#utility.yul\":6222:6402   */\n    tag_33:\n        /* \"#utility.yul\":6270:6347   */\n      0x4e487b7100000000000000000000000000000000000000000000000000000000\n        /* \"#utility.yul\":6267:6268   */\n      0x00\n        /* \"#utility.yul\":6260:6348   */\n      mstore\n        /* \"#utility.yul\":6367:6371   */\n      0x32\n        /* \"#utility.yul\":6364:6365   */\n      0x04\n        /* \"#utility.yul\":6357:6372   */\n      mstore\n        /* \"#utility.yul\":6391:6395   */\n      0x24\n        /* \"#utility.yul\":6388:6389   */\n      0x00\n        /* \"#utility.yul\":6381:6396   */\n      revert\n        /* \"#utility.yul\":6408:6588   */\n    tag_104:\n        /* \"#utility.yul\":6456:6533   */\n      0x4e487b7100000000000000000000000000000000000000000000000000000000\n        /* \"#utility.yul\":6453:6454   */\n      0x00\n        /* \"#utility.yul\":6446:6534   */\n      mstore\n        /* \"#utility.yul\":6553:6557   */\n      0x11\n        /* \"#utility.yul\":6550:6551   */\n      0x04\n        /* \"#utility.yul\":6543:6558   */\n      mstore\n        /* \"#utility.yul\":6577:6581   */\n      0x24\n        /* \"#utility.yul\":6574:6575   */\n      0x00\n        /* \"#utility.yul\":6567:6582   */\n      revert\n        /* \"#utility.yul\":6594:6788   */\n    tag_37:\n        /* \"#utility.yul\":6634:6638   */\n      0x00\n        /* \"#utility.yul\":6654:6674   */\n      tag_174\n        /* \"#utility.yul\":6672:6673   */\n      dup3\n        /* \"#utility.yul\":6654:6674   */\n      tag_85\n      jump\t// in\n    tag_174:\n        /* \"#utility.yul\":6649:6674   */\n      swap2\n      pop\n        /* \"#utility.yul\":6688:6708   */\n      tag_175\n        /* \"#utility.yul\":6706:6707   */\n      dup4\n        /* \"#utility.yul\":6688:6708   */\n      tag_85\n      jump\t// in\n    tag_175:\n        /* \"#utility.yul\":6683:6708   */\n      swap3\n      pop\n        /* \"#utility.yul\":6732:6733   */\n      dup3\n        /* \"#utility.yul\":6729:6730   */\n      dup3\n        /* \"#utility.yul\":6725:6734   */\n      sub\n        /* \"#utility.yul\":6717:6734   */\n      swap1\n      pop\n        /* \"#utility.yul\":6756:6757   */\n      dup2\n        /* \"#utility.yul\":6750:6754   */\n      dup2\n        /* \"#utility.yul\":6747:6758   */\n      gt\n        /* \"#utility.yul\":6744:6781   */\n      iszero\n      tag_176\n      jumpi\n        /* \"#utility.yul\":6761:6779   */\n      tag_177\n      tag_104\n      jump\t// in\n    tag_177:\n        /* \"#utility.yul\":6744:6781   */\n    tag_176:\n        /* \"#utility.yul\":6594:6788   */\n      swap3\n      swap2\n      pop\n      pop\n      jump\t// out\n        /* \"#utility.yul\":6794:7027   */\n    tag_48:\n        /* \"#utility.yul\":6833:6836   */\n      0x00\n        /* \"#utility.yul\":6856:6880   */\n      tag_179\n        /* \"#utility.yul\":6874:6879   */\n      dup3\n        /* \"#utility.yul\":6856:6880   */\n      tag_85\n      jump\t// in\n    tag_179:\n        /* \"#utility.yul\":6847:6880   */\n      swap2\n      pop\n        /* \"#utility.yul\":6902:6968   */\n      0xffffffffffffffffffffffffffffffffffffffffffffffffffffffffffffffff\n        /* \"#utility.yul\":6895:6900   */\n      dup3\n        /* \"#utility.yul\":6892:6969   */\n      sub\n        /* \"#utility.yul\":6889:6992   */\n      tag_180\n      jumpi\n        /* \"#utility.yul\":6972:6990   */\n      tag_181\n      tag_104\n      jump\t// in\n    tag_181:\n        /* \"#utility.yul\":6889:6992   */\n    tag_180:\n        /* \"#utility.yul\":7019:7020   */\n      0x01\n        /* \"#utility.yul\":7012:7017   */\n      dup3\n        /* \"#utility.yul\":7008:7021   */\n      add\n        /* \"#utility.yul\":7001:7021   */\n      swap1\n      pop\n        /* \"#utility.yul\":6794:7027   */\n      swap2\n      swap1\n      pop\n      jump\t// out\n        /* \"#utility.yul\":7033:7224   */\n    tag_73:\n        /* \"#utility.yul\":7073:7076   */\n      0x00\n        /* \"#utility.yul\":7092:7112   */\n      tag_183\n        /* \"#utility.yul\":7110:7111   */\n      dup3\n        /* \"#utility.yul\":7092:7112   */\n      tag_85\n      jump\t// in\n    tag_183:\n        /* \"#utility.yul\":7087:7112   */\n      swap2\n      pop\n        /* \"#utility.yul\":7126:7146   */\n      tag_184\n        /* \"#utility.yul\":7144:7145   */\n      dup4\n        /* \"#utility.yul\":7126:7146   */\n      tag_85\n      jump\t// in\n    tag_184:\n        /* \"#utility.yul\":7121:7146   */\n      swap3\n      pop\n        /* \"#utility.yul\":7169:7170   */\n      dup3\n        /* \"#utility.yul\":7166:7167   */\n      dup3\n        /* \"#utility.yul\":7162:7171   */\n      add\n        /* \"#utility.yul\":7155:7171   */\n      swap1\n      pop\n        /* \"#utility.yul\":7190:7193   */\n      dup1\n        /* \"#utility.yul\":7187:7188   */\n      dup3\n        /* \"#utility.yul\":7184:7194   */\n      gt\n        /* \"#utility.yul\":7181:7217   */\n      iszero\n      tag_185\n      jumpi\n        /* \"#utility.yul\":7197:7215   */\n      tag_186\n      tag_104\n      jump\t// in\n    tag_186:\n        /* \"#utility.yul\":7181:7217   */\n    tag_185:\n        /* \"#utility.yul\":7033:7224   */\n      swap3\n      swap2\n      pop\n      pop\n      jump\t// out\n\n    auxdata: 0xa26469706673582212200906241b25bfd4cd006abddeac6e9f6c89bfe271bd62a5e3102325b99877266764736f6c634300081e0033\n}\n",
				"bytecode": {
					"linkReferences": {},
					"object": "6080604052348015600e575f5ffd5b50610dc78061001c5f395ff3fe608060405234801561000f575f5ffd5b5060043610610034575f3560e01c80630cbc513a14610038578063cb159dfe14610068575b5f5ffd5b610052600480360381019061004d91906109cc565b610098565b60405161005f9190610a67565b60405180910390f35b610082600480360381019061007d9190610bb3565b610697565b60405161008f9190610c09565b60405180910390f35b60605f821180156100aa5750610fa082105b6100e9576040517f08c379a00000000000000000000000000000000000000000000000000000000081526004016100e090610c6c565b60405180910390fd5b5f604051806101a001604052806103e8815260200161038481526020016101f48152602001610190815260200160648152602001605a81526020016032815260200160288152602001600a8152602001600981526020016005815260200160048152602001600181525090505f604051806101a001604052806040518060400160405280600181526020017f4d0000000000000000000000000000000000000000000000000000000000000081525081526020016040518060400160405280600281526020017f434d00000000000000000000000000000000000000000000000000000000000081525081526020016040518060400160405280600181526020017f440000000000000000000000000000000000000000000000000000000000000081525081526020016040518060400160405280600281526020017f434400000000000000000000000000000000000000000000000000000000000081525081526020016040518060400160405280600181526020017f430000000000000000000000000000000000000000000000000000000000000081525081526020016040518060400160405280600281526020017f584300000000000000000000000000000000000000000000000000000000000081525081526020016040518060400160405280600181526020017f4c0000000000000000000000000000000000000000000000000000000000000081525081526020016040518060400160405280600281526020017f584c00000000000000000000000000000000000000000000000000000000000081525081526020016040518060400160405280600181526020017f580000000000000000000000000000000000000000000000000000000000000081525081526020016040518060400160405280600281526020017f495800000000000000000000000000000000000000000000000000000000000081525081526020016040518060400160405280600181526020017f560000000000000000000000000000000000000000000000000000000000000081525081526020016040518060400160405280600281526020017f495600000000000000000000000000000000000000000000000000000000000081525081526020016040518060400160405280600181526020017f490000000000000000000000000000000000000000000000000000000000000081525081525090505f600f67ffffffffffffffff81111561047d5761047c610a8f565b5b6040519080825280601f01601f1916602001820160405280156104af5781602001600182028036833780820191505090505b5090505f5f90505f5f90505b600d8110156105bf575b8481600d81106104d8576104d7610c8a565b5b602002015187106105b2578481600d81106104f6576104f5610c8a565b5b6020020151876105069190610ce4565b96505f8482600d811061051c5761051b610c8a565b5b602002015190505f5f90505b81518110156105ab5781818151811061054457610543610c8a565b5b602001015160f81c60f81b85858151811061056257610561610c8a565b5b60200101907effffffffffffffffffffffffffffffffffffffffffffffffffffffffffffff191690815f1a905350838061059b90610d17565b9450508080600101915050610528565b50506104c5565b80806001019150506104bb565b505f8167ffffffffffffffff8111156105db576105da610a8f565b5b6040519080825280601f01601f19166020018201604052801561060d5781602001600182028036833780820191505090505b5090505f5f90505b82811015610689578381815181106106305761062f610c8a565b5b602001015160f81c60f81b82828151811061064e5761064d610c8a565b5b60200101907effffffffffffffffffffffffffffffffffffffffffffffffffffffffffffff191690815f1a9053508080600101915050610615565b508095505050505050919050565b5f5f8290505f815190505f5f90505f5f90505f5f90505b83811015610731575f6106f486836001886106c99190610ce4565b6106d39190610ce4565b815181106106e4576106e3610c8a565b5b602001015160f81c60f81b61073e565b90508381101561071157808361070a9190610ce4565b9250610720565b808361071d9190610d5e565b92505b8093505080806001019150506106ae565b5080945050505050919050565b5f7f4900000000000000000000000000000000000000000000000000000000000000827effffffffffffffffffffffffffffffffffffffffffffffffffffffffffffff1916036107915760019050610983565b7f5600000000000000000000000000000000000000000000000000000000000000827effffffffffffffffffffffffffffffffffffffffffffffffffffffffffffff1916036107e35760059050610983565b7f5800000000000000000000000000000000000000000000000000000000000000827effffffffffffffffffffffffffffffffffffffffffffffffffffffffffffff19160361083557600a9050610983565b7f4c00000000000000000000000000000000000000000000000000000000000000827effffffffffffffffffffffffffffffffffffffffffffffffffffffffffffff1916036108875760329050610983565b7f4300000000000000000000000000000000000000000000000000000000000000827effffffffffffffffffffffffffffffffffffffffffffffffffffffffffffff1916036108d95760649050610983565b7f4400000000000000000000000000000000000000000000000000000000000000827effffffffffffffffffffffffffffffffffffffffffffffffffffffffffffff19160361092c576101f49050610983565b7f4d00000000000000000000000000000000000000000000000000000000000000827effffffffffffffffffffffffffffffffffffffffffffffffffffffffffffff19160361097f576103e89050610983565b5f90505b919050565b5f604051905090565b5f5ffd5b5f5ffd5b5f819050919050565b6109ab81610999565b81146109b5575f5ffd5b50565b5f813590506109c6816109a2565b92915050565b5f602082840312156109e1576109e0610991565b5b5f6109ee848285016109b8565b91505092915050565b5f81519050919050565b5f82825260208201905092915050565b8281835e5f83830152505050565b5f601f19601f8301169050919050565b5f610a39826109f7565b610a438185610a01565b9350610a53818560208601610a11565b610a5c81610a1f565b840191505092915050565b5f6020820190508181035f830152610a7f8184610a2f565b905092915050565b5f5ffd5b5f5ffd5b7f4e487b71000000000000000000000000000000000000000000000000000000005f52604160045260245ffd5b610ac582610a1f565b810181811067ffffffffffffffff82111715610ae457610ae3610a8f565b5b80604052505050565b5f610af6610988565b9050610b028282610abc565b919050565b5f67ffffffffffffffff821115610b2157610b20610a8f565b5b610b2a82610a1f565b9050602081019050919050565b828183375f83830152505050565b5f610b57610b5284610b07565b610aed565b905082815260208101848484011115610b7357610b72610a8b565b5b610b7e848285610b37565b509392505050565b5f82601f830112610b9a57610b99610a87565b5b8135610baa848260208601610b45565b91505092915050565b5f60208284031215610bc857610bc7610991565b5b5f82013567ffffffffffffffff811115610be557610be4610995565b5b610bf184828501610b86565b91505092915050565b610c0381610999565b82525050565b5f602082019050610c1c5f830184610bfa565b92915050565b7f53686f756c64206265206265747765656e203120616e6420333939392e0000005f82015250565b5f610c56601d83610a01565b9150610c6182610c22565b602082019050919050565b5f6020820190508181035f830152610c8381610c4a565b9050919050565b7f4e487b71000000000000000000000000000000000000000000000000000000005f52603260045260245ffd5b7f4e487b71000000000000000000000000000000000000000000000000000000005f52601160045260245ffd5b5f610cee82610999565b9150610cf983610999565b9250828203905081811115610d1157610d10610cb7565b5b92915050565b5f610d2182610999565b91507fffffffffffffffffffffffffffffffffffffffffffffffffffffffffffffffff8203610d5357610d52610cb7565b5b600182019050919050565b5f610d6882610999565b9150610d7383610999565b9250828201905080821115610d8b57610d8a610cb7565b5b9291505056fea26469706673582212200906241b25bfd4cd006abddeac6e9f6c89bfe271bd62a5e3102325b99877266764736f6c634300081e0033",
					"opcodes": "PUSH1 0x80 PUSH1 0x40 MSTORE CALLVALUE DUP1 ISZERO PUSH1 0xE JUMPI PUSH0 PUSH0 REVERT JUMPDEST POP PUSH2 0xDC7 DUP1 PUSH2 0x1C PUSH0 CODECOPY PUSH0 RETURN INVALID PUSH1 0x80 PUSH1 0x40 MSTORE CALLVALUE DUP1 ISZERO PUSH2 0xF JUMPI PUSH0 PUSH0 REVERT JUMPDEST POP PUSH1 0x4 CALLDATASIZE LT PUSH2 0x34 JUMPI PUSH0 CALLDATALOAD PUSH1 0xE0 SHR DUP1 PUSH4 0xCBC513A EQ PUSH2 0x38 JUMPI DUP1 PUSH4 0xCB159DFE EQ PUSH2 0x68 JUMPI JUMPDEST PUSH0 PUSH0 REVERT JUMPDEST PUSH2 0x52 PUSH1 0x4 DUP1 CALLDATASIZE SUB DUP2 ADD SWAP1 PUSH2 0x4D SWAP2 SWAP1 PUSH2 0x9CC JUMP JUMPDEST PUSH2 0x98 JUMP JUMPDEST PUSH1 0x40 MLOAD PUSH2 0x5F SWAP2 SWAP1 PUSH2 0xA67 JUMP JUMPDEST PUSH1 0x40 MLOAD DUP1 SWAP2 SUB SWAP1 RETURN JUMPDEST PUSH2 0x82 PUSH1 0x4 DUP1 CALLDATASIZE SUB DUP2 ADD SWAP1 PUSH2 0x7D SWAP2 SWAP1 PUSH2 0xBB3 JUMP JUMPDEST PUSH2 0x697 JUMP JUMPDEST PUSH1 0x40 MLOAD PUSH2 0x8F SWAP2 SWAP1 PUSH2 0xC09 JUMP JUMPDEST PUSH1 0x40 MLOAD DUP1 SWAP2 SUB SWAP1 RETURN JUMPDEST PUSH1 0x60 PUSH0 DUP3 GT DUP1 ISZERO PUSH2 0xAA JUMPI POP PUSH2 0xFA0 DUP3 LT JUMPDEST PUSH2 0xE9 JUMPI PUSH1 0x40 MLOAD PUSH32 0x8C379A000000000000000000000000000000000000000000000000000000000 DUP2 MSTORE PUSH1 0x4 ADD PUSH2 0xE0 SWAP1 PUSH2 0xC6C JUMP JUMPDEST PUSH1 0x40 MLOAD DUP1 SWAP2 SUB SWAP1 REVERT JUMPDEST PUSH0 PUSH1 0x40 MLOAD DUP1 PUSH2 0x1A0 ADD PUSH1 0x40 MSTORE DUP1 PUSH2 0x3E8 DUP2 MSTORE PUSH1 0x20 ADD PUSH2 0x384 DUP2 MSTORE PUSH1 0x20 ADD PUSH2 0x1F4 DUP2 MSTORE PUSH1 0x20 ADD PUSH2 0x190 DUP2 MSTORE PUSH1 0x20 ADD PUSH1 0x64 DUP2 MSTORE PUSH1 0x20 ADD PUSH1 0x5A DUP2 MSTORE PUSH1 0x20 ADD PUSH1 0x32 DUP2 MSTORE PUSH1 0x20 ADD PUSH1 0x28 DUP2 MSTORE PUSH1 0x20 ADD PUSH1 0xA DUP2 MSTORE PUSH1 0x20 ADD PUSH1 0x9 DUP2 MSTORE PUSH1 0x20 ADD PUSH1 0x5 DUP2 MSTORE PUSH1 0x20 ADD PUSH1 0x4 DUP2 MSTORE PUSH1 0x20 ADD PUSH1 0x1 DUP2 MSTORE POP SWAP1 POP PUSH0 PUSH1 0x40 MLOAD DUP1 PUSH2 0x1A0 ADD PUSH1 0x40 MSTORE DUP1 PUSH1 0x40 MLOAD DUP1 PUSH1 0x40 ADD PUSH1 0x40 MSTORE DUP1 PUSH1 0x1 DUP2 MSTORE PUSH1 0x20 ADD PUSH32 0x4D00000000000000000000000000000000000000000000000000000000000000 DUP2 MSTORE POP DUP2 MSTORE PUSH1 0x20 ADD PUSH1 0x40 MLOAD DUP1 PUSH1 0x40 ADD PUSH1 0x40 MSTORE DUP1 PUSH1 0x2 DUP2 MSTORE PUSH1 0x20 ADD PUSH32 0x434D000000000000000000000000000000000000000000000000000000000000 DUP2 MSTORE POP DUP2 MSTORE PUSH1 0x20 ADD PUSH1 0x40 MLOAD DUP1 PUSH1 0x40 ADD PUSH1 0x40 MSTORE DUP1 PUSH1 0x1 DUP2 MSTORE PUSH1 0x20 ADD PUSH32 0x4400000000000000000000000000000000000000000000000000000000000000 DUP2 MSTORE POP DUP2 MSTORE PUSH1 0x20 ADD PUSH1 0x40 MLOAD DUP1 PUSH1 0x40 ADD PUSH1 0x40 MSTORE DUP1 PUSH1 0x2 DUP2 MSTORE PUSH1 0x20 ADD PUSH32 0x4344000000000000000000000000000000000000000000000000000000000000 DUP2 MSTORE POP DUP2 MSTORE PUSH1 0x20 ADD PUSH1 0x40 MLOAD DUP1 PUSH1 0x40 ADD PUSH1 0x40 MSTORE DUP1 PUSH1 0x1 DUP2 MSTORE PUSH1 0x20 ADD PUSH32 0x4300000000000000000000000000000000000000000000000000000000000000 DUP2 MSTORE POP DUP2 MSTORE PUSH1 0x20 ADD PUSH1 0x40 MLOAD DUP1 PUSH1 0x40 ADD PUSH1 0x40 MSTORE DUP1 PUSH1 0x2 DUP2 MSTORE PUSH1 0x20 ADD PUSH32 0x5843000000000000000000000000000000000000000000000000000000000000 DUP2 MSTORE POP DUP2 MSTORE PUSH1 0x20 ADD PUSH1 0x40 MLOAD DUP1 PUSH1 0x40 ADD PUSH1 0x40 MSTORE DUP1 PUSH1 0x1 DUP2 MSTORE PUSH1 0x20 ADD PUSH32 0x4C00000000000000000000000000000000000000000000000000000000000000 DUP2 MSTORE POP DUP2 MSTORE PUSH1 0x20 ADD PUSH1 0x40 MLOAD DUP1 PUSH1 0x40 ADD PUSH1 0x40 MSTORE DUP1 PUSH1 0x2 DUP2 MSTORE PUSH1 0x20 ADD PUSH32 0x584C000000000000000000000000000000000000000000000000000000000000 DUP2 MSTORE POP DUP2 MSTORE PUSH1 0x20 ADD PUSH1 0x40 MLOAD DUP1 PUSH1 0x40 ADD PUSH1 0x40 MSTORE DUP1 PUSH1 0x1 DUP2 MSTORE PUSH1 0x20 ADD PUSH32 0x5800000000000000000000000000000000000000000000000000000000000000 DUP2 MSTORE POP DUP2 MSTORE PUSH1 0x20 ADD PUSH1 0x40 MLOAD DUP1 PUSH1 0x40 ADD PUSH1 0x40 MSTORE DUP1 PUSH1 0x2 DUP2 MSTORE PUSH1 0x20 ADD PUSH32 0x4958000000000000000000000000000000000000000000000000000000000000 DUP2 MSTORE POP DUP2 MSTORE PUSH1 0x20 ADD PUSH1 0x40 MLOAD DUP1 PUSH1 0x40 ADD PUSH1 0x40 MSTORE DUP1 PUSH1 0x1 DUP2 MSTORE PUSH1 0x20 ADD PUSH32 0x5600000000000000000000000000000000000000000000000000000000000000 DUP2 MSTORE POP DUP2 MSTORE PUSH1 0x20 ADD PUSH1 0x40 MLOAD DUP1 PUSH1 0x40 ADD PUSH1 0x40 MSTORE DUP1 PUSH1 0x2 DUP2 MSTORE PUSH1 0x20 ADD PUSH32 0x4956000000000000000000000000000000000000000000000000000000000000 DUP2 MSTORE POP DUP2 MSTORE PUSH1 0x20 ADD PUSH1 0x40 MLOAD DUP1 PUSH1 0x40 ADD PUSH1 0x40 MSTORE DUP1 PUSH1 0x1 DUP2 MSTORE PUSH1 0x20 ADD PUSH32 0x4900000000000000000000000000000000000000000000000000000000000000 DUP2 MSTORE POP DUP2 MSTORE POP SWAP1 POP PUSH0 PUSH1 0xF PUSH8 0xFFFFFFFFFFFFFFFF DUP2 GT ISZERO PUSH2 0x47D JUMPI PUSH2 0x47C PUSH2 0xA8F JUMP JUMPDEST JUMPDEST PUSH1 0x40 MLOAD SWAP1 DUP1 DUP3 MSTORE DUP1 PUSH1 0x1F ADD PUSH1 0x1F NOT AND PUSH1 0x20 ADD DUP3 ADD PUSH1 0x40 MSTORE DUP1 ISZERO PUSH2 0x4AF JUMPI DUP2 PUSH1 0x20 ADD PUSH1 0x1 DUP3 MUL DUP1 CALLDATASIZE DUP4 CALLDATACOPY DUP1 DUP3 ADD SWAP2 POP POP SWAP1 POP JUMPDEST POP SWAP1 POP PUSH0 PUSH0 SWAP1 POP PUSH0 PUSH0 SWAP1 POP JUMPDEST PUSH1 0xD DUP2 LT ISZERO PUSH2 0x5BF JUMPI JUMPDEST DUP5 DUP2 PUSH1 0xD DUP2 LT PUSH2 0x4D8 JUMPI PUSH2 0x4D7 PUSH2 0xC8A JUMP JUMPDEST JUMPDEST PUSH1 0x20 MUL ADD MLOAD DUP8 LT PUSH2 0x5B2 JUMPI DUP5 DUP2 PUSH1 0xD DUP2 LT PUSH2 0x4F6 JUMPI PUSH2 0x4F5 PUSH2 0xC8A JUMP JUMPDEST JUMPDEST PUSH1 0x20 MUL ADD MLOAD DUP8 PUSH2 0x506 SWAP2 SWAP1 PUSH2 0xCE4 JUMP JUMPDEST SWAP7 POP PUSH0 DUP5 DUP3 PUSH1 0xD DUP2 LT PUSH2 0x51C JUMPI PUSH2 0x51B PUSH2 0xC8A JUMP JUMPDEST JUMPDEST PUSH1 0x20 MUL ADD MLOAD SWAP1 POP PUSH0 PUSH0 SWAP1 POP JUMPDEST DUP2 MLOAD DUP2 LT ISZERO PUSH2 0x5AB JUMPI DUP2 DUP2 DUP2 MLOAD DUP2 LT PUSH2 0x544 JUMPI PUSH2 0x543 PUSH2 0xC8A JUMP JUMPDEST JUMPDEST PUSH1 0x20 ADD ADD MLOAD PUSH1 0xF8 SHR PUSH1 0xF8 SHL DUP6 DUP6 DUP2 MLOAD DUP2 LT PUSH2 0x562 JUMPI PUSH2 0x561 PUSH2 0xC8A JUMP JUMPDEST JUMPDEST PUSH1 0x20 ADD ADD SWAP1 PUSH31 0xFFFFFFFFFFFFFFFFFFFFFFFFFFFFFFFFFFFFFFFFFFFFFFFFFFFFFFFFFFFFFF NOT AND SWAP1 DUP2 PUSH0 BYTE SWAP1 MSTORE8 POP DUP4 DUP1 PUSH2 0x59B SWAP1 PUSH2 0xD17 JUMP JUMPDEST SWAP5 POP POP DUP1 DUP1 PUSH1 0x1 ADD SWAP2 POP POP PUSH2 0x528 JUMP JUMPDEST POP POP PUSH2 0x4C5 JUMP JUMPDEST DUP1 DUP1 PUSH1 0x1 ADD SWAP2 POP POP PUSH2 0x4BB JUMP JUMPDEST POP PUSH0 DUP2 PUSH8 0xFFFFFFFFFFFFFFFF DUP2 GT ISZERO PUSH2 0x5DB JUMPI PUSH2 0x5DA PUSH2 0xA8F JUMP JUMPDEST JUMPDEST PUSH1 0x40 MLOAD SWAP1 DUP1 DUP3 MSTORE DUP1 PUSH1 0x1F ADD PUSH1 0x1F NOT AND PUSH1 0x20 ADD DUP3 ADD PUSH1 0x40 MSTORE DUP1 ISZERO PUSH2 0x60D JUMPI DUP2 PUSH1 0x20 ADD PUSH1 0x1 DUP3 MUL DUP1 CALLDATASIZE DUP4 CALLDATACOPY DUP1 DUP3 ADD SWAP2 POP POP SWAP1 POP JUMPDEST POP SWAP1 POP PUSH0 PUSH0 SWAP1 POP JUMPDEST DUP3 DUP2 LT ISZERO PUSH2 0x689 JUMPI DUP4 DUP2 DUP2 MLOAD DUP2 LT PUSH2 0x630 JUMPI PUSH2 0x62F PUSH2 0xC8A JUMP JUMPDEST JUMPDEST PUSH1 0x20 ADD ADD MLOAD PUSH1 0xF8 SHR PUSH1 0xF8 SHL DUP3 DUP3 DUP2 MLOAD DUP2 LT PUSH2 0x64E JUMPI PUSH2 0x64D PUSH2 0xC8A JUMP JUMPDEST JUMPDEST PUSH1 0x20 ADD ADD SWAP1 PUSH31 0xFFFFFFFFFFFFFFFFFFFFFFFFFFFFFFFFFFFFFFFFFFFFFFFFFFFFFFFFFFFFFF NOT AND SWAP1 DUP2 PUSH0 BYTE SWAP1 MSTORE8 POP DUP1 DUP1 PUSH1 0x1 ADD SWAP2 POP POP PUSH2 0x615 JUMP JUMPDEST POP DUP1 SWAP6 POP POP POP POP POP POP SWAP2 SWAP1 POP JUMP JUMPDEST PUSH0 PUSH0 DUP3 SWAP1 POP PUSH0 DUP2 MLOAD SWAP1 POP PUSH0 PUSH0 SWAP1 POP PUSH0 PUSH0 SWAP1 POP PUSH0 PUSH0 SWAP1 POP JUMPDEST DUP4 DUP2 LT ISZERO PUSH2 0x731 JUMPI PUSH0 PUSH2 0x6F4 DUP7 DUP4 PUSH1 0x1 DUP9 PUSH2 0x6C9 SWAP2 SWAP1 PUSH2 0xCE4 JUMP JUMPDEST PUSH2 0x6D3 SWAP2 SWAP1 PUSH2 0xCE4 JUMP JUMPDEST DUP2 MLOAD DUP2 LT PUSH2 0x6E4 JUMPI PUSH2 0x6E3 PUSH2 0xC8A JUMP JUMPDEST JUMPDEST PUSH1 0x20 ADD ADD MLOAD PUSH1 0xF8 SHR PUSH1 0xF8 SHL PUSH2 0x73E JUMP JUMPDEST SWAP1 POP DUP4 DUP2 LT ISZERO PUSH2 0x711 JUMPI DUP1 DUP4 PUSH2 0x70A SWAP2 SWAP1 PUSH2 0xCE4 JUMP JUMPDEST SWAP3 POP PUSH2 0x720 JUMP JUMPDEST DUP1 DUP4 PUSH2 0x71D SWAP2 SWAP1 PUSH2 0xD5E JUMP JUMPDEST SWAP3 POP JUMPDEST DUP1 SWAP4 POP POP DUP1 DUP1 PUSH1 0x1 ADD SWAP2 POP POP PUSH2 0x6AE JUMP JUMPDEST POP DUP1 SWAP5 POP POP POP POP POP SWAP2 SWAP1 POP JUMP JUMPDEST PUSH0 PUSH32 0x4900000000000000000000000000000000000000000000000000000000000000 DUP3 PUSH31 0xFFFFFFFFFFFFFFFFFFFFFFFFFFFFFFFFFFFFFFFFFFFFFFFFFFFFFFFFFFFFFF NOT AND SUB PUSH2 0x791 JUMPI PUSH1 0x1 SWAP1 POP PUSH2 0x983 JUMP JUMPDEST PUSH32 0x5600000000000000000000000000000000000000000000000000000000000000 DUP3 PUSH31 0xFFFFFFFFFFFFFFFFFFFFFFFFFFFFFFFFFFFFFFFFFFFFFFFFFFFFFFFFFFFFFF NOT AND SUB PUSH2 0x7E3 JUMPI PUSH1 0x5 SWAP1 POP PUSH2 0x983 JUMP JUMPDEST PUSH32 0x5800000000000000000000000000000000000000000000000000000000000000 DUP3 PUSH31 0xFFFFFFFFFFFFFFFFFFFFFFFFFFFFFFFFFFFFFFFFFFFFFFFFFFFFFFFFFFFFFF NOT AND SUB PUSH2 0x835 JUMPI PUSH1 0xA SWAP1 POP PUSH2 0x983 JUMP JUMPDEST PUSH32 0x4C00000000000000000000000000000000000000000000000000000000000000 DUP3 PUSH31 0xFFFFFFFFFFFFFFFFFFFFFFFFFFFFFFFFFFFFFFFFFFFFFFFFFFFFFFFFFFFFFF NOT AND SUB PUSH2 0x887 JUMPI PUSH1 0x32 SWAP1 POP PUSH2 0x983 JUMP JUMPDEST PUSH32 0x4300000000000000000000000000000000000000000000000000000000000000 DUP3 PUSH31 0xFFFFFFFFFFFFFFFFFFFFFFFFFFFFFFFFFFFFFFFFFFFFFFFFFFFFFFFFFFFFFF NOT AND SUB PUSH2 0x8D9 JUMPI PUSH1 0x64 SWAP1 POP PUSH2 0x983 JUMP JUMPDEST PUSH32 0x4400000000000000000000000000000000000000000000000000000000000000 DUP3 PUSH31 0xFFFFFFFFFFFFFFFFFFFFFFFFFFFFFFFFFFFFFFFFFFFFFFFFFFFFFFFFFFFFFF NOT AND SUB PUSH2 0x92C JUMPI PUSH2 0x1F4 SWAP1 POP PUSH2 0x983 JUMP JUMPDEST PUSH32 0x4D00000000000000000000000000000000000000000000000000000000000000 DUP3 PUSH31 0xFFFFFFFFFFFFFFFFFFFFFFFFFFFFFFFFFFFFFFFFFFFFFFFFFFFFFFFFFFFFFF NOT AND SUB PUSH2 0x97F JUMPI PUSH2 0x3E8 SWAP1 POP PUSH2 0x983 JUMP JUMPDEST PUSH0 SWAP1 POP JUMPDEST SWAP2 SWAP1 POP JUMP JUMPDEST PUSH0 PUSH1 0x40 MLOAD SWAP1 POP SWAP1 JUMP JUMPDEST PUSH0 PUSH0 REVERT JUMPDEST PUSH0 PUSH0 REVERT JUMPDEST PUSH0 DUP2 SWAP1 POP SWAP2 SWAP1 POP JUMP JUMPDEST PUSH2 0x9AB DUP2 PUSH2 0x999 JUMP JUMPDEST DUP2 EQ PUSH2 0x9B5 JUMPI PUSH0 PUSH0 REVERT JUMPDEST POP JUMP JUMPDEST PUSH0 DUP2 CALLDATALOAD SWAP1 POP PUSH2 0x9C6 DUP2 PUSH2 0x9A2 JUMP JUMPDEST SWAP3 SWAP2 POP POP JUMP JUMPDEST PUSH0 PUSH1 0x20 DUP3 DUP5 SUB SLT ISZERO PUSH2 0x9E1 JUMPI PUSH2 0x9E0 PUSH2 0x991 JUMP JUMPDEST JUMPDEST PUSH0 PUSH2 0x9EE DUP5 DUP3 DUP6 ADD PUSH2 0x9B8 JUMP JUMPDEST SWAP2 POP POP SWAP3 SWAP2 POP POP JUMP JUMPDEST PUSH0 DUP2 MLOAD SWAP1 POP SWAP2 SWAP1 POP JUMP JUMPDEST PUSH0 DUP3 DUP3 MSTORE PUSH1 0x20 DUP3 ADD SWAP1 POP SWAP3 SWAP2 POP POP JUMP JUMPDEST DUP3 DUP2 DUP4 MCOPY PUSH0 DUP4 DUP4 ADD MSTORE POP POP POP JUMP JUMPDEST PUSH0 PUSH1 0x1F NOT PUSH1 0x1F DUP4 ADD AND SWAP1 POP SWAP2 SWAP1 POP JUMP JUMPDEST PUSH0 PUSH2 0xA39 DUP3 PUSH2 0x9F7 JUMP JUMPDEST PUSH2 0xA43 DUP2 DUP6 PUSH2 0xA01 JUMP JUMPDEST SWAP4 POP PUSH2 0xA53 DUP2 DUP6 PUSH1 0x20 DUP7 ADD PUSH2 0xA11 JUMP JUMPDEST PUSH2 0xA5C DUP2 PUSH2 0xA1F JUMP JUMPDEST DUP5 ADD SWAP2 POP POP SWAP3 SWAP2 POP POP JUMP JUMPDEST PUSH0 PUSH1 0x20 DUP3 ADD SWAP1 POP DUP2 DUP2 SUB PUSH0 DUP4 ADD MSTORE PUSH2 0xA7F DUP2 DUP5 PUSH2 0xA2F JUMP JUMPDEST SWAP1 POP SWAP3 SWAP2 POP POP JUMP JUMPDEST PUSH0 PUSH0 REVERT JUMPDEST PUSH0 PUSH0 REVERT JUMPDEST PUSH32 0x4E487B7100000000000000000000000000000000000000000000000000000000 PUSH0 MSTORE PUSH1 0x41 PUSH1 0x4 MSTORE PUSH1 0x24 PUSH0 REVERT JUMPDEST PUSH2 0xAC5 DUP3 PUSH2 0xA1F JUMP JUMPDEST DUP2 ADD DUP2 DUP2 LT PUSH8 0xFFFFFFFFFFFFFFFF DUP3 GT OR ISZERO PUSH2 0xAE4 JUMPI PUSH2 0xAE3 PUSH2 0xA8F JUMP JUMPDEST JUMPDEST DUP1 PUSH1 0x40 MSTORE POP POP POP JUMP JUMPDEST PUSH0 PUSH2 0xAF6 PUSH2 0x988 JUMP JUMPDEST SWAP1 POP PUSH2 0xB02 DUP3 DUP3 PUSH2 0xABC JUMP JUMPDEST SWAP2 SWAP1 POP JUMP JUMPDEST PUSH0 PUSH8 0xFFFFFFFFFFFFFFFF DUP3 GT ISZERO PUSH2 0xB21 JUMPI PUSH2 0xB20 PUSH2 0xA8F JUMP JUMPDEST JUMPDEST PUSH2 0xB2A DUP3 PUSH2 0xA1F JUMP JUMPDEST SWAP1 POP PUSH1 0x20 DUP2 ADD SWAP1 POP SWAP2 SWAP1 POP JUMP JUMPDEST DUP3 DUP2 DUP4 CALLDATACOPY PUSH0 DUP4 DUP4 ADD MSTORE POP POP POP JUMP JUMPDEST PUSH0 PUSH2 0xB57 PUSH2 0xB52 DUP5 PUSH2 0xB07 JUMP JUMPDEST PUSH2 0xAED JUMP JUMPDEST SWAP1 POP DUP3 DUP2 MSTORE PUSH1 0x20 DUP2 ADD DUP5 DUP5 DUP5 ADD GT ISZERO PUSH2 0xB73 JUMPI PUSH2 0xB72 PUSH2 0xA8B JUMP JUMPDEST JUMPDEST PUSH2 0xB7E DUP5 DUP3 DUP6 PUSH2 0xB37 JUMP JUMPDEST POP SWAP4 SWAP3 POP POP POP JUMP JUMPDEST PUSH0 DUP3 PUSH1 0x1F DUP4 ADD SLT PUSH2 0xB9A JUMPI PUSH2 0xB99 PUSH2 0xA87 JUMP JUMPDEST JUMPDEST DUP2 CALLDATALOAD PUSH2 0xBAA DUP5 DUP3 PUSH1 0x20 DUP7 ADD PUSH2 0xB45 JUMP JUMPDEST SWAP2 POP POP SWAP3 SWAP2 POP POP JUMP JUMPDEST PUSH0 PUSH1 0x20 DUP3 DUP5 SUB SLT ISZERO PUSH2 0xBC8 JUMPI PUSH2 0xBC7 PUSH2 0x991 JUMP JUMPDEST JUMPDEST PUSH0 DUP3 ADD CALLDATALOAD PUSH8 0xFFFFFFFFFFFFFFFF DUP2 GT ISZERO PUSH2 0xBE5 JUMPI PUSH2 0xBE4 PUSH2 0x995 JUMP JUMPDEST JUMPDEST PUSH2 0xBF1 DUP5 DUP3 DUP6 ADD PUSH2 0xB86 JUMP JUMPDEST SWAP2 POP POP SWAP3 SWAP2 POP POP JUMP JUMPDEST PUSH2 0xC03 DUP2 PUSH2 0x999 JUMP JUMPDEST DUP3 MSTORE POP POP JUMP JUMPDEST PUSH0 PUSH1 0x20 DUP3 ADD SWAP1 POP PUSH2 0xC1C PUSH0 DUP4 ADD DUP5 PUSH2 0xBFA JUMP JUMPDEST SWAP3 SWAP2 POP POP JUMP JUMPDEST PUSH32 0x53686F756C64206265206265747765656E203120616E6420333939392E000000 PUSH0 DUP3 ADD MSTORE POP JUMP JUMPDEST PUSH0 PUSH2 0xC56 PUSH1 0x1D DUP4 PUSH2 0xA01 JUMP JUMPDEST SWAP2 POP PUSH2 0xC61 DUP3 PUSH2 0xC22 JUMP JUMPDEST PUSH1 0x20 DUP3 ADD SWAP1 POP SWAP2 SWAP1 POP JUMP JUMPDEST PUSH0 PUSH1 0x20 DUP3 ADD SWAP1 POP DUP2 DUP2 SUB PUSH0 DUP4 ADD MSTORE PUSH2 0xC83 DUP2 PUSH2 0xC4A JUMP JUMPDEST SWAP1 POP SWAP2 SWAP1 POP JUMP JUMPDEST PUSH32 0x4E487B7100000000000000000000000000000000000000000000000000000000 PUSH0 MSTORE PUSH1 0x32 PUSH1 0x4 MSTORE PUSH1 0x24 PUSH0 REVERT JUMPDEST PUSH32 0x4E487B7100000000000000000000000000000000000000000000000000000000 PUSH0 MSTORE PUSH1 0x11 PUSH1 0x4 MSTORE PUSH1 0x24 PUSH0 REVERT JUMPDEST PUSH0 PUSH2 0xCEE DUP3 PUSH2 0x999 JUMP JUMPDEST SWAP2 POP PUSH2 0xCF9 DUP4 PUSH2 0x999 JUMP JUMPDEST SWAP3 POP DUP3 DUP3 SUB SWAP1 POP DUP2 DUP2 GT ISZERO PUSH2 0xD11 JUMPI PUSH2 0xD10 PUSH2 0xCB7 JUMP JUMPDEST JUMPDEST SWAP3 SWAP2 POP POP JUMP JUMPDEST PUSH0 PUSH2 0xD21 DUP3 PUSH2 0x999 JUMP JUMPDEST SWAP2 POP PUSH32 0xFFFFFFFFFFFFFFFFFFFFFFFFFFFFFFFFFFFFFFFFFFFFFFFFFFFFFFFFFFFFFFFF DUP3 SUB PUSH2 0xD53 JUMPI PUSH2 0xD52 PUSH2 0xCB7 JUMP JUMPDEST JUMPDEST PUSH1 0x1 DUP3 ADD SWAP1 POP SWAP2 SWAP1 POP JUMP JUMPDEST PUSH0 PUSH2 0xD68 DUP3 PUSH2 0x999 JUMP JUMPDEST SWAP2 POP PUSH2 0xD73 DUP4 PUSH2 0x999 JUMP JUMPDEST SWAP3 POP DUP3 DUP3 ADD SWAP1 POP DUP1 DUP3 GT ISZERO PUSH2 0xD8B JUMPI PUSH2 0xD8A PUSH2 0xCB7 JUMP JUMPDEST JUMPDEST SWAP3 SWAP2 POP POP JUMP INVALID LOG2 PUSH5 0x6970667358 0x22 SLT KECCAK256 MULMOD MOD 0x24 SHL 0x25 0xBF 0xD4 0xCD STOP PUSH11 0xBDDEAC6E9F6C89BFE271BD PUSH3 0xA5E310 0x23 0x25 0xB9 SWAP9 PUSH24 0x266764736F6C634300081E00330000000000000000000000 "
				},
				"gasEstimates": {
					"creation": {
						"codeDepositCost": "705400",
						"executionCost": "739",
						"totalCost": "706139"
					},
					"external": {
						"intToRoman(uint256)": "infinite",
						"romanToInt(string)": "infinite"
					},
					"internal": {
						"_getRomanValue(bytes1)": "262"
					}
				},
				"methodIdentifiers": {
					"intToRoman(uint256)": "0cbc513a",
					"romanToInt(string)": "cb159dfe"
				}
			},
			"storageLayout": {
				"storage": [],
				"types": null
			},
			"userdoc": {
				"kind": "user",
				"methods": {},
				"version": 1
			}
		}
	}
}