{
	"contracts/voting.sol": {
		"Voting": {
			"abi": [
				{
					"inputs": [
						{
							"internalType": "address",
							"name": "candidate",
							"type": "address"
						}
					],
					"name": "getVotes",
					"outputs": [
						{
							"internalType": "uint256",
							"name": "",
							"type": "uint256"
						}
					],
					"stateMutability": "view",
					"type": "function"
				},
				{
					"inputs": [],
					"name": "resetVotes",
					"outputs": [],
					"stateMutability": "nonpayable",
					"type": "function"
				},
				{
					"inputs": [
						{
							"internalType": "string",
							"name": "s",
							"type": "string"
						}
					],
					"name": "reverseString",
					"outputs": [
						{
							"internalType": "string",
							"name": "",
							"type": "string"
						}
					],
					"stateMutability": "pure",
					"type": "function"
				},
				{
					"inputs": [
						{
							"internalType": "address",
							"name": "candidate",
							"type": "address"
						}
					],
					"name": "vote",
					"outputs": [],
					"stateMutability": "nonpayable",
					"type": "function"
				}
			],
			"devdoc": {
				"kind": "dev",
				"methods": {},
				"version": 1
			},
			"evm": {
				"assembly": "    /* \"contracts/voting.sol\":60:1016  contract Voting {... */\n  mstore(0x40, 0x80)\n  callvalue\n  dup1\n  iszero\n  tag_1\n  jumpi\n  revert(0x00, 0x00)\ntag_1:\n  pop\n  dataSize(sub_0)\n  dup1\n  dataOffset(sub_0)\n  0x00\n  codecopy\n  0x00\n  return\nstop\n\nsub_0: assembly {\n        /* \"contracts/voting.sol\":60:1016  contract Voting {... */\n      mstore(0x40, 0x80)\n      callvalue\n      dup1\n      iszero\n      tag_1\n      jumpi\n      revert(0x00, 0x00)\n    tag_1:\n      pop\n      jumpi(tag_2, lt(calldatasize, 0x04))\n      shr(0xe0, calldataload(0x00))\n      dup1\n      0x5729c211\n      eq\n      tag_3\n      jumpi\n      dup1\n      0x6dd7d8ea\n      eq\n      tag_4\n      jumpi\n      dup1\n      0x9ab24eb0\n      eq\n      tag_5\n      jumpi\n      dup1\n      0xb9830ff1\n      eq\n      tag_6\n      jumpi\n    tag_2:\n      revert(0x00, 0x00)\n        /* \"contracts/voting.sol\":657:1013  function reverseString(string memory s) public pure returns (string memory) {... */\n    tag_3:\n      tag_7\n      0x04\n      dup1\n      calldatasize\n      sub\n      dup2\n      add\n      swap1\n      tag_8\n      swap2\n      swap1\n      tag_9\n      jump\t// in\n    tag_8:\n      tag_10\n      jump\t// in\n    tag_7:\n      mload(0x40)\n      tag_11\n      swap2\n      swap1\n      tag_12\n      jump\t// in\n    tag_11:\n      mload(0x40)\n      dup1\n      swap2\n      sub\n      swap1\n      return\n        /* \"contracts/voting.sol\":164:344  function vote(address candidate) public {... */\n    tag_4:\n      tag_13\n      0x04\n      dup1\n      calldatasize\n      sub\n      dup2\n      add\n      swap1\n      tag_14\n      swap2\n      swap1\n      tag_15\n      jump\t// in\n    tag_14:\n      tag_16\n      jump\t// in\n    tag_13:\n      stop\n        /* \"contracts/voting.sol\":352:469  function getVotes(address candidate) public view returns (uint256) {... */\n    tag_5:\n      tag_17\n      0x04\n      dup1\n      calldatasize\n      sub\n      dup2\n      add\n      swap1\n      tag_18\n      swap2\n      swap1\n      tag_15\n      jump\t// in\n    tag_18:\n      tag_19\n      jump\t// in\n    tag_17:\n      mload(0x40)\n      tag_20\n      swap2\n      swap1\n      tag_21\n      jump\t// in\n    tag_20:\n      mload(0x40)\n      dup1\n      swap2\n      sub\n      swap1\n      return\n        /* \"contracts/voting.sol\":477:625  function resetVotes() public {... */\n    tag_6:\n      tag_22\n      tag_23\n      jump\t// in\n    tag_22:\n      stop\n        /* \"contracts/voting.sol\":657:1013  function reverseString(string memory s) public pure returns (string memory) {... */\n    tag_10:\n        /* \"contracts/voting.sol\":718:731  string memory */\n      0x60\n        /* \"contracts/voting.sol\":744:763  bytes memory sBytes */\n      0x00\n        /* \"contracts/voting.sol\":772:773  s */\n      dup3\n        /* \"contracts/voting.sol\":744:774  bytes memory sBytes = bytes(s) */\n      swap1\n      pop\n        /* \"contracts/voting.sol\":789:798  uint256 i */\n      0x00\n        /* \"contracts/voting.sol\":801:802  0 */\n      0x00\n        /* \"contracts/voting.sol\":789:802  uint256 i = 0 */\n      swap1\n      pop\n        /* \"contracts/voting.sol\":785:987  for(uint256 i = 0; i < sBytes.length / 2; i++) {... */\n    tag_25:\n        /* \"contracts/voting.sol\":824:825  2 */\n      0x02\n        /* \"contracts/voting.sol\":808:814  sBytes */\n      dup3\n        /* \"contracts/voting.sol\":808:821  sBytes.length */\n      mload\n        /* \"contracts/voting.sol\":808:825  sBytes.length / 2 */\n      tag_28\n      swap2\n      swap1\n      tag_29\n      jump\t// in\n    tag_28:\n        /* \"contracts/voting.sol\":804:805  i */\n      dup2\n        /* \"contracts/voting.sol\":804:825  i < sBytes.length / 2 */\n      lt\n        /* \"contracts/voting.sol\":785:987  for(uint256 i = 0; i < sBytes.length / 2; i++) {... */\n      iszero\n      tag_26\n      jumpi\n        /* \"contracts/voting.sol\":847:858  bytes1 temp */\n      0x00\n        /* \"contracts/voting.sol\":861:867  sBytes */\n      dup3\n        /* \"contracts/voting.sol\":868:869  i */\n      dup3\n        /* \"contracts/voting.sol\":861:870  sBytes[i] */\n      dup2\n      mload\n      dup2\n      lt\n      tag_30\n      jumpi\n      tag_31\n      tag_32\n      jump\t// in\n    tag_31:\n    tag_30:\n      0x20\n      add\n      add\n      mload\n      0xf8\n      shr\n      0xf8\n      shl\n        /* \"contracts/voting.sol\":847:870  bytes1 temp = sBytes[i] */\n      swap1\n      pop\n        /* \"contracts/voting.sol\":897:903  sBytes */\n      dup3\n        /* \"contracts/voting.sol\":923:924  i */\n      dup3\n        /* \"contracts/voting.sol\":920:921  1 */\n      0x01\n        /* \"contracts/voting.sol\":904:910  sBytes */\n      dup6\n        /* \"contracts/voting.sol\":904:917  sBytes.length */\n      mload\n        /* \"contracts/voting.sol\":904:921  sBytes.length - 1 */\n      tag_33\n      swap2\n      swap1\n      tag_34\n      jump\t// in\n    tag_33:\n        /* \"contracts/voting.sol\":904:924  sBytes.length - 1 -i */\n      tag_35\n      swap2\n      swap1\n      tag_34\n      jump\t// in\n    tag_35:\n        /* \"contracts/voting.sol\":897:925  sBytes[sBytes.length - 1 -i] */\n      dup2\n      mload\n      dup2\n      lt\n      tag_36\n      jumpi\n      tag_37\n      tag_32\n      jump\t// in\n    tag_37:\n    tag_36:\n      0x20\n      add\n      add\n      mload\n      0xf8\n      shr\n      0xf8\n      shl\n        /* \"contracts/voting.sol\":885:891  sBytes */\n      dup4\n        /* \"contracts/voting.sol\":892:893  i */\n      dup4\n        /* \"contracts/voting.sol\":885:894  sBytes[i] */\n      dup2\n      mload\n      dup2\n      lt\n      tag_38\n      jumpi\n      tag_39\n      tag_32\n      jump\t// in\n    tag_39:\n    tag_38:\n      0x20\n      add\n      add\n        /* \"contracts/voting.sol\":885:925  sBytes[i] = sBytes[sBytes.length - 1 -i] */\n      swap1\n      not(0xffffffffffffffffffffffffffffffffffffffffffffffffffffffffffffff)\n      and\n      swap1\n      dup2\n      0x00\n      byte\n      swap1\n      mstore8\n      pop\n        /* \"contracts/voting.sol\":971:975  temp */\n      dup1\n        /* \"contracts/voting.sol\":940:946  sBytes */\n      dup4\n        /* \"contracts/voting.sol\":966:967  i */\n      dup4\n        /* \"contracts/voting.sol\":963:964  1 */\n      0x01\n        /* \"contracts/voting.sol\":947:953  sBytes */\n      dup7\n        /* \"contracts/voting.sol\":947:960  sBytes.length */\n      mload\n        /* \"contracts/voting.sol\":947:964  sBytes.length - 1 */\n      tag_40\n      swap2\n      swap1\n      tag_34\n      jump\t// in\n    tag_40:\n        /* \"contracts/voting.sol\":947:967  sBytes.length - 1 -i */\n      tag_41\n      swap2\n      swap1\n      tag_34\n      jump\t// in\n    tag_41:\n        /* \"contracts/voting.sol\":940:968  sBytes[sBytes.length - 1 -i] */\n      dup2\n      mload\n      dup2\n      lt\n      tag_42\n      jumpi\n      tag_43\n      tag_32\n      jump\t// in\n    tag_43:\n    tag_42:\n      0x20\n      add\n      add\n        /* \"contracts/voting.sol\":940:975  sBytes[sBytes.length - 1 -i] = temp */\n      swap1\n      not(0xffffffffffffffffffffffffffffffffffffffffffffffffffffffffffffff)\n      and\n      swap1\n      dup2\n      0x00\n      byte\n      swap1\n      mstore8\n      pop\n        /* \"contracts/voting.sol\":832:987  {... */\n      pop\n        /* \"contracts/voting.sol\":827:830  i++ */\n      dup1\n      dup1\n      0x01\n      add\n      swap2\n      pop\n      pop\n        /* \"contracts/voting.sol\":785:987  for(uint256 i = 0; i < sBytes.length / 2; i++) {... */\n      jump(tag_25)\n    tag_26:\n      pop\n        /* \"contracts/voting.sol\":1004:1005  s */\n      dup3\n        /* \"contracts/voting.sol\":997:1005  return s */\n      swap2\n      pop\n      pop\n        /* \"contracts/voting.sol\":657:1013  function reverseString(string memory s) public pure returns (string memory) {... */\n      swap2\n      swap1\n      pop\n      jump\t// out\n        /* \"contracts/voting.sol\":164:344  function vote(address candidate) public {... */\n    tag_16:\n        /* \"contracts/voting.sol\":215:228  votesReceived */\n      0x00\n        /* \"contracts/voting.sol\":215:239  votesReceived[candidate] */\n      0x00\n        /* \"contracts/voting.sol\":229:238  candidate */\n      dup3\n        /* \"contracts/voting.sol\":215:239  votesReceived[candidate] */\n      0xffffffffffffffffffffffffffffffffffffffff\n      and\n      0xffffffffffffffffffffffffffffffffffffffff\n      and\n      dup2\n      mstore\n      0x20\n      add\n      swap1\n      dup2\n      mstore\n      0x20\n      add\n      0x00\n      keccak256\n      0x00\n        /* \"contracts/voting.sol\":215:241  votesReceived[candidate]++ */\n      dup2\n      sload\n      dup1\n      swap3\n      swap2\n      swap1\n      tag_45\n      swap1\n      tag_46\n      jump\t// in\n    tag_45:\n      swap2\n      swap1\n      pop\n      sstore\n      pop\n        /* \"contracts/voting.sol\":284:285  1 */\n      0x01\n        /* \"contracts/voting.sol\":255:268  votesReceived */\n      0x00\n        /* \"contracts/voting.sol\":255:280  votesReceived[msg.sender] */\n      0x00\n        /* \"contracts/voting.sol\":269:279  msg.sender */\n      caller\n        /* \"contracts/voting.sol\":255:280  votesReceived[msg.sender] */\n      0xffffffffffffffffffffffffffffffffffffffff\n      and\n      0xffffffffffffffffffffffffffffffffffffffff\n      and\n      dup2\n      mstore\n      0x20\n      add\n      swap1\n      dup2\n      mstore\n      0x20\n      add\n      0x00\n      keccak256\n      sload\n        /* \"contracts/voting.sol\":255:285  votesReceived[msg.sender] == 1 */\n      sub\n        /* \"contracts/voting.sol\":252:337  if(votesReceived[msg.sender] == 1) {... */\n      tag_47\n      jumpi\n        /* \"contracts/voting.sol\":302:308  voters */\n      0x01\n        /* \"contracts/voting.sol\":314:324  msg.sender */\n      caller\n        /* \"contracts/voting.sol\":302:325  voters.push(msg.sender) */\n      swap1\n      dup1\n      0x01\n      dup2\n      sload\n      add\n      dup1\n      dup3\n      sstore\n      dup1\n      swap2\n      pop\n      pop\n      0x01\n      swap1\n      sub\n      swap1\n      0x00\n      mstore\n      keccak256(0x00, 0x20)\n      add\n      0x00\n      swap1\n      swap2\n      swap1\n      swap2\n      swap1\n      swap2\n      0x0100\n      exp\n      dup2\n      sload\n      dup2\n      0xffffffffffffffffffffffffffffffffffffffff\n      mul\n      not\n      and\n      swap1\n      dup4\n      0xffffffffffffffffffffffffffffffffffffffff\n      and\n      mul\n      or\n      swap1\n      sstore\n      pop\n        /* \"contracts/voting.sol\":252:337  if(votesReceived[msg.sender] == 1) {... */\n    tag_47:\n        /* \"contracts/voting.sol\":164:344  function vote(address candidate) public {... */\n      pop\n      jump\t// out\n        /* \"contracts/voting.sol\":352:469  function getVotes(address candidate) public view returns (uint256) {... */\n    tag_19:\n        /* \"contracts/voting.sol\":410:417  uint256 */\n      0x00\n        /* \"contracts/voting.sol\":437:450  votesReceived */\n      0x00\n        /* \"contracts/voting.sol\":437:461  votesReceived[candidate] */\n      0x00\n        /* \"contracts/voting.sol\":451:460  candidate */\n      dup4\n        /* \"contracts/voting.sol\":437:461  votesReceived[candidate] */\n      0xffffffffffffffffffffffffffffffffffffffff\n      and\n      0xffffffffffffffffffffffffffffffffffffffff\n      and\n      dup2\n      mstore\n      0x20\n      add\n      swap1\n      dup2\n      mstore\n      0x20\n      add\n      0x00\n      keccak256\n      sload\n        /* \"contracts/voting.sol\":430:461  return votesReceived[candidate] */\n      swap1\n      pop\n        /* \"contracts/voting.sol\":352:469  function getVotes(address candidate) public view returns (uint256) {... */\n      swap2\n      swap1\n      pop\n      jump\t// out\n        /* \"contracts/voting.sol\":477:625  function resetVotes() public {... */\n    tag_23:\n        /* \"contracts/voting.sol\":521:530  uint256 i */\n      0x00\n        /* \"contracts/voting.sol\":533:534  0 */\n      0x00\n        /* \"contracts/voting.sol\":521:534  uint256 i = 0 */\n      swap1\n      pop\n        /* \"contracts/voting.sol\":517:618  for(uint256 i = 0; i < voters.length; i++) {... */\n    tag_51:\n        /* \"contracts/voting.sol\":540:546  voters */\n      0x01\n        /* \"contracts/voting.sol\":540:553  voters.length */\n      dup1\n      sload\n      swap1\n      pop\n        /* \"contracts/voting.sol\":536:537  i */\n      dup2\n        /* \"contracts/voting.sol\":536:553  i < voters.length */\n      lt\n        /* \"contracts/voting.sol\":517:618  for(uint256 i = 0; i < voters.length; i++) {... */\n      iszero\n      tag_52\n      jumpi\n        /* \"contracts/voting.sol\":582:595  votesReceived */\n      0x00\n        /* \"contracts/voting.sol\":582:606  votesReceived[voters[i]] */\n      0x00\n        /* \"contracts/voting.sol\":596:602  voters */\n      0x01\n        /* \"contracts/voting.sol\":603:604  i */\n      dup4\n        /* \"contracts/voting.sol\":596:605  voters[i] */\n      dup2\n      sload\n      dup2\n      lt\n      tag_54\n      jumpi\n      tag_55\n      tag_32\n      jump\t// in\n    tag_55:\n    tag_54:\n      swap1\n      0x00\n      mstore\n      keccak256(0x00, 0x20)\n      add\n      0x00\n      swap1\n      sload\n      swap1\n      0x0100\n      exp\n      swap1\n      div\n      0xffffffffffffffffffffffffffffffffffffffff\n      and\n        /* \"contracts/voting.sol\":582:606  votesReceived[voters[i]] */\n      0xffffffffffffffffffffffffffffffffffffffff\n      and\n      0xffffffffffffffffffffffffffffffffffffffff\n      and\n      dup2\n      mstore\n      0x20\n      add\n      swap1\n      dup2\n      mstore\n      0x20\n      add\n      0x00\n      keccak256\n        /* \"contracts/voting.sol\":575:606  delete votesReceived[voters[i]] */\n      0x00\n      swap1\n      sstore\n        /* \"contracts/voting.sol\":555:558  i++ */\n      dup1\n      dup1\n      0x01\n      add\n      swap2\n      pop\n      pop\n        /* \"contracts/voting.sol\":517:618  for(uint256 i = 0; i < voters.length; i++) {... */\n      jump(tag_51)\n    tag_52:\n      pop\n        /* \"contracts/voting.sol\":477:625  function resetVotes() public {... */\n      jump\t// out\n        /* \"#utility.yul\":7:82   */\n    tag_57:\n        /* \"#utility.yul\":40:46   */\n      0x00\n        /* \"#utility.yul\":73:75   */\n      0x40\n        /* \"#utility.yul\":67:76   */\n      mload\n        /* \"#utility.yul\":57:76   */\n      swap1\n      pop\n        /* \"#utility.yul\":7:82   */\n      swap1\n      jump\t// out\n        /* \"#utility.yul\":88:205   */\n    tag_58:\n        /* \"#utility.yul\":197:198   */\n      0x00\n        /* \"#utility.yul\":194:195   */\n      0x00\n        /* \"#utility.yul\":187:199   */\n      revert\n        /* \"#utility.yul\":211:328   */\n    tag_59:\n        /* \"#utility.yul\":320:321   */\n      0x00\n        /* \"#utility.yul\":317:318   */\n      0x00\n        /* \"#utility.yul\":310:322   */\n      revert\n        /* \"#utility.yul\":334:451   */\n    tag_60:\n        /* \"#utility.yul\":443:444   */\n      0x00\n        /* \"#utility.yul\":440:441   */\n      0x00\n        /* \"#utility.yul\":433:445   */\n      revert\n        /* \"#utility.yul\":457:574   */\n    tag_61:\n        /* \"#utility.yul\":566:567   */\n      0x00\n        /* \"#utility.yul\":563:564   */\n      0x00\n        /* \"#utility.yul\":556:568   */\n      revert\n        /* \"#utility.yul\":580:682   */\n    tag_62:\n        /* \"#utility.yul\":621:627   */\n      0x00\n        /* \"#utility.yul\":672:674   */\n      0x1f\n        /* \"#utility.yul\":668:675   */\n      not\n        /* \"#utility.yul\":663:665   */\n      0x1f\n        /* \"#utility.yul\":656:661   */\n      dup4\n        /* \"#utility.yul\":652:666   */\n      add\n        /* \"#utility.yul\":648:676   */\n      and\n        /* \"#utility.yul\":638:676   */\n      swap1\n      pop\n        /* \"#utility.yul\":580:682   */\n      swap2\n      swap1\n      pop\n      jump\t// out\n        /* \"#utility.yul\":688:868   */\n    tag_63:\n        /* \"#utility.yul\":736:813   */\n      0x4e487b7100000000000000000000000000000000000000000000000000000000\n        /* \"#utility.yul\":733:734   */\n      0x00\n        /* \"#utility.yul\":726:814   */\n      mstore\n        /* \"#utility.yul\":833:837   */\n      0x41\n        /* \"#utility.yul\":830:831   */\n      0x04\n        /* \"#utility.yul\":823:838   */\n      mstore\n        /* \"#utility.yul\":857:861   */\n      0x24\n        /* \"#utility.yul\":854:855   */\n      0x00\n        /* \"#utility.yul\":847:862   */\n      revert\n        /* \"#utility.yul\":874:1155   */\n    tag_64:\n        /* \"#utility.yul\":957:984   */\n      tag_91\n        /* \"#utility.yul\":979:983   */\n      dup3\n        /* \"#utility.yul\":957:984   */\n      tag_62\n      jump\t// in\n    tag_91:\n        /* \"#utility.yul\":949:955   */\n      dup2\n        /* \"#utility.yul\":945:985   */\n      add\n        /* \"#utility.yul\":1087:1093   */\n      dup2\n        /* \"#utility.yul\":1075:1085   */\n      dup2\n        /* \"#utility.yul\":1072:1094   */\n      lt\n        /* \"#utility.yul\":1051:1069   */\n      0xffffffffffffffff\n        /* \"#utility.yul\":1039:1049   */\n      dup3\n        /* \"#utility.yul\":1036:1070   */\n      gt\n        /* \"#utility.yul\":1033:1095   */\n      or\n        /* \"#utility.yul\":1030:1118   */\n      iszero\n      tag_92\n      jumpi\n        /* \"#utility.yul\":1098:1116   */\n      tag_93\n      tag_63\n      jump\t// in\n    tag_93:\n        /* \"#utility.yul\":1030:1118   */\n    tag_92:\n        /* \"#utility.yul\":1138:1148   */\n      dup1\n        /* \"#utility.yul\":1134:1136   */\n      0x40\n        /* \"#utility.yul\":1127:1149   */\n      mstore\n        /* \"#utility.yul\":917:1155   */\n      pop\n        /* \"#utility.yul\":874:1155   */\n      pop\n      pop\n      jump\t// out\n        /* \"#utility.yul\":1161:1290   */\n    tag_65:\n        /* \"#utility.yul\":1195:1201   */\n      0x00\n        /* \"#utility.yul\":1222:1242   */\n      tag_95\n      tag_57\n      jump\t// in\n    tag_95:\n        /* \"#utility.yul\":1212:1242   */\n      swap1\n      pop\n        /* \"#utility.yul\":1251:1284   */\n      tag_96\n        /* \"#utility.yul\":1279:1283   */\n      dup3\n        /* \"#utility.yul\":1271:1277   */\n      dup3\n        /* \"#utility.yul\":1251:1284   */\n      tag_64\n      jump\t// in\n    tag_96:\n        /* \"#utility.yul\":1161:1290   */\n      swap2\n      swap1\n      pop\n      jump\t// out\n        /* \"#utility.yul\":1296:1604   */\n    tag_66:\n        /* \"#utility.yul\":1358:1362   */\n      0x00\n        /* \"#utility.yul\":1448:1466   */\n      0xffffffffffffffff\n        /* \"#utility.yul\":1440:1446   */\n      dup3\n        /* \"#utility.yul\":1437:1467   */\n      gt\n        /* \"#utility.yul\":1434:1490   */\n      iszero\n      tag_98\n      jumpi\n        /* \"#utility.yul\":1470:1488   */\n      tag_99\n      tag_63\n      jump\t// in\n    tag_99:\n        /* \"#utility.yul\":1434:1490   */\n    tag_98:\n        /* \"#utility.yul\":1508:1537   */\n      tag_100\n        /* \"#utility.yul\":1530:1536   */\n      dup3\n        /* \"#utility.yul\":1508:1537   */\n      tag_62\n      jump\t// in\n    tag_100:\n        /* \"#utility.yul\":1500:1537   */\n      swap1\n      pop\n        /* \"#utility.yul\":1592:1596   */\n      0x20\n        /* \"#utility.yul\":1586:1590   */\n      dup2\n        /* \"#utility.yul\":1582:1597   */\n      add\n        /* \"#utility.yul\":1574:1597   */\n      swap1\n      pop\n        /* \"#utility.yul\":1296:1604   */\n      swap2\n      swap1\n      pop\n      jump\t// out\n        /* \"#utility.yul\":1610:1758   */\n    tag_67:\n        /* \"#utility.yul\":1708:1714   */\n      dup3\n        /* \"#utility.yul\":1703:1706   */\n      dup2\n        /* \"#utility.yul\":1698:1701   */\n      dup4\n        /* \"#utility.yul\":1685:1715   */\n      calldatacopy\n        /* \"#utility.yul\":1749:1750   */\n      0x00\n        /* \"#utility.yul\":1740:1746   */\n      dup4\n        /* \"#utility.yul\":1735:1738   */\n      dup4\n        /* \"#utility.yul\":1731:1747   */\n      add\n        /* \"#utility.yul\":1724:1751   */\n      mstore\n        /* \"#utility.yul\":1610:1758   */\n      pop\n      pop\n      pop\n      jump\t// out\n        /* \"#utility.yul\":1764:2189   */\n    tag_68:\n        /* \"#utility.yul\":1842:1847   */\n      0x00\n        /* \"#utility.yul\":1867:1933   */\n      tag_103\n        /* \"#utility.yul\":1883:1932   */\n      tag_104\n        /* \"#utility.yul\":1925:1931   */\n      dup5\n        /* \"#utility.yul\":1883:1932   */\n      tag_66\n      jump\t// in\n    tag_104:\n        /* \"#utility.yul\":1867:1933   */\n      tag_65\n      jump\t// in\n    tag_103:\n        /* \"#utility.yul\":1858:1933   */\n      swap1\n      pop\n        /* \"#utility.yul\":1956:1962   */\n      dup3\n        /* \"#utility.yul\":1949:1954   */\n      dup2\n        /* \"#utility.yul\":1942:1963   */\n      mstore\n        /* \"#utility.yul\":1994:1998   */\n      0x20\n        /* \"#utility.yul\":1987:1992   */\n      dup2\n        /* \"#utility.yul\":1983:1999   */\n      add\n        /* \"#utility.yul\":2032:2035   */\n      dup5\n        /* \"#utility.yul\":2023:2029   */\n      dup5\n        /* \"#utility.yul\":2018:2021   */\n      dup5\n        /* \"#utility.yul\":2014:2030   */\n      add\n        /* \"#utility.yul\":2011:2036   */\n      gt\n        /* \"#utility.yul\":2008:2120   */\n      iszero\n      tag_105\n      jumpi\n        /* \"#utility.yul\":2039:2118   */\n      tag_106\n      tag_61\n      jump\t// in\n    tag_106:\n        /* \"#utility.yul\":2008:2120   */\n    tag_105:\n        /* \"#utility.yul\":2129:2183   */\n      tag_107\n        /* \"#utility.yul\":2176:2182   */\n      dup5\n        /* \"#utility.yul\":2171:2174   */\n      dup3\n        /* \"#utility.yul\":2166:2169   */\n      dup6\n        /* \"#utility.yul\":2129:2183   */\n      tag_67\n      jump\t// in\n    tag_107:\n        /* \"#utility.yul\":1848:2189   */\n      pop\n        /* \"#utility.yul\":1764:2189   */\n      swap4\n      swap3\n      pop\n      pop\n      pop\n      jump\t// out\n        /* \"#utility.yul\":2209:2549   */\n    tag_69:\n        /* \"#utility.yul\":2265:2270   */\n      0x00\n        /* \"#utility.yul\":2314:2317   */\n      dup3\n        /* \"#utility.yul\":2307:2311   */\n      0x1f\n        /* \"#utility.yul\":2299:2305   */\n      dup4\n        /* \"#utility.yul\":2295:2312   */\n      add\n        /* \"#utility.yul\":2291:2318   */\n      slt\n        /* \"#utility.yul\":2281:2403   */\n      tag_109\n      jumpi\n        /* \"#utility.yul\":2322:2401   */\n      tag_110\n      tag_60\n      jump\t// in\n    tag_110:\n        /* \"#utility.yul\":2281:2403   */\n    tag_109:\n        /* \"#utility.yul\":2439:2445   */\n      dup2\n        /* \"#utility.yul\":2426:2446   */\n      calldataload\n        /* \"#utility.yul\":2464:2543   */\n      tag_111\n        /* \"#utility.yul\":2539:2542   */\n      dup5\n        /* \"#utility.yul\":2531:2537   */\n      dup3\n        /* \"#utility.yul\":2524:2528   */\n      0x20\n        /* \"#utility.yul\":2516:2522   */\n      dup7\n        /* \"#utility.yul\":2512:2529   */\n      add\n        /* \"#utility.yul\":2464:2543   */\n      tag_68\n      jump\t// in\n    tag_111:\n        /* \"#utility.yul\":2455:2543   */\n      swap2\n      pop\n        /* \"#utility.yul\":2271:2549   */\n      pop\n        /* \"#utility.yul\":2209:2549   */\n      swap3\n      swap2\n      pop\n      pop\n      jump\t// out\n        /* \"#utility.yul\":2555:3064   */\n    tag_9:\n        /* \"#utility.yul\":2624:2630   */\n      0x00\n        /* \"#utility.yul\":2673:2675   */\n      0x20\n        /* \"#utility.yul\":2661:2670   */\n      dup3\n        /* \"#utility.yul\":2652:2659   */\n      dup5\n        /* \"#utility.yul\":2648:2671   */\n      sub\n        /* \"#utility.yul\":2644:2676   */\n      slt\n        /* \"#utility.yul\":2641:2760   */\n      iszero\n      tag_113\n      jumpi\n        /* \"#utility.yul\":2679:2758   */\n      tag_114\n      tag_58\n      jump\t// in\n    tag_114:\n        /* \"#utility.yul\":2641:2760   */\n    tag_113:\n        /* \"#utility.yul\":2827:2828   */\n      0x00\n        /* \"#utility.yul\":2816:2825   */\n      dup3\n        /* \"#utility.yul\":2812:2829   */\n      add\n        /* \"#utility.yul\":2799:2830   */\n      calldataload\n        /* \"#utility.yul\":2857:2875   */\n      0xffffffffffffffff\n        /* \"#utility.yul\":2849:2855   */\n      dup2\n        /* \"#utility.yul\":2846:2876   */\n      gt\n        /* \"#utility.yul\":2843:2960   */\n      iszero\n      tag_115\n      jumpi\n        /* \"#utility.yul\":2879:2958   */\n      tag_116\n      tag_59\n      jump\t// in\n    tag_116:\n        /* \"#utility.yul\":2843:2960   */\n    tag_115:\n        /* \"#utility.yul\":2984:3047   */\n      tag_117\n        /* \"#utility.yul\":3039:3046   */\n      dup5\n        /* \"#utility.yul\":3030:3036   */\n      dup3\n        /* \"#utility.yul\":3019:3028   */\n      dup6\n        /* \"#utility.yul\":3015:3037   */\n      add\n        /* \"#utility.yul\":2984:3047   */\n      tag_69\n      jump\t// in\n    tag_117:\n        /* \"#utility.yul\":2974:3047   */\n      swap2\n      pop\n        /* \"#utility.yul\":2770:3057   */\n      pop\n        /* \"#utility.yul\":2555:3064   */\n      swap3\n      swap2\n      pop\n      pop\n      jump\t// out\n        /* \"#utility.yul\":3070:3169   */\n    tag_70:\n        /* \"#utility.yul\":3122:3128   */\n      0x00\n        /* \"#utility.yul\":3156:3161   */\n      dup2\n        /* \"#utility.yul\":3150:3162   */\n      mload\n        /* \"#utility.yul\":3140:3162   */\n      swap1\n      pop\n        /* \"#utility.yul\":3070:3169   */\n      swap2\n      swap1\n      pop\n      jump\t// out\n        /* \"#utility.yul\":3175:3344   */\n    tag_71:\n        /* \"#utility.yul\":3259:3270   */\n      0x00\n        /* \"#utility.yul\":3293:3299   */\n      dup3\n        /* \"#utility.yul\":3288:3291   */\n      dup3\n        /* \"#utility.yul\":3281:3300   */\n      mstore\n        /* \"#utility.yul\":3333:3337   */\n      0x20\n        /* \"#utility.yul\":3328:3331   */\n      dup3\n        /* \"#utility.yul\":3324:3338   */\n      add\n        /* \"#utility.yul\":3309:3338   */\n      swap1\n      pop\n        /* \"#utility.yul\":3175:3344   */\n      swap3\n      swap2\n      pop\n      pop\n      jump\t// out\n        /* \"#utility.yul\":3350:3489   */\n    tag_72:\n        /* \"#utility.yul\":3439:3445   */\n      dup3\n        /* \"#utility.yul\":3434:3437   */\n      dup2\n        /* \"#utility.yul\":3429:3432   */\n      dup4\n        /* \"#utility.yul\":3423:3446   */\n      mcopy\n        /* \"#utility.yul\":3480:3481   */\n      0x00\n        /* \"#utility.yul\":3471:3477   */\n      dup4\n        /* \"#utility.yul\":3466:3469   */\n      dup4\n        /* \"#utility.yul\":3462:3478   */\n      add\n        /* \"#utility.yul\":3455:3482   */\n      mstore\n        /* \"#utility.yul\":3350:3489   */\n      pop\n      pop\n      pop\n      jump\t// out\n        /* \"#utility.yul\":3495:3872   */\n    tag_73:\n        /* \"#utility.yul\":3583:3586   */\n      0x00\n        /* \"#utility.yul\":3611:3650   */\n      tag_122\n        /* \"#utility.yul\":3644:3649   */\n      dup3\n        /* \"#utility.yul\":3611:3650   */\n      tag_70\n      jump\t// in\n    tag_122:\n        /* \"#utility.yul\":3666:3737   */\n      tag_123\n        /* \"#utility.yul\":3730:3736   */\n      dup2\n        /* \"#utility.yul\":3725:3728   */\n      dup6\n        /* \"#utility.yul\":3666:3737   */\n      tag_71\n      jump\t// in\n    tag_123:\n        /* \"#utility.yul\":3659:3737   */\n      swap4\n      pop\n        /* \"#utility.yul\":3746:3811   */\n      tag_124\n        /* \"#utility.yul\":3804:3810   */\n      dup2\n        /* \"#utility.yul\":3799:3802   */\n      dup6\n        /* \"#utility.yul\":3792:3796   */\n      0x20\n        /* \"#utility.yul\":3785:3790   */\n      dup7\n        /* \"#utility.yul\":3781:3797   */\n      add\n        /* \"#utility.yul\":3746:3811   */\n      tag_72\n      jump\t// in\n    tag_124:\n        /* \"#utility.yul\":3836:3865   */\n      tag_125\n        /* \"#utility.yul\":3858:3864   */\n      dup2\n        /* \"#utility.yul\":3836:3865   */\n      tag_62\n      jump\t// in\n    tag_125:\n        /* \"#utility.yul\":3831:3834   */\n      dup5\n        /* \"#utility.yul\":3827:3866   */\n      add\n        /* \"#utility.yul\":3820:3866   */\n      swap2\n      pop\n        /* \"#utility.yul\":3587:3872   */\n      pop\n        /* \"#utility.yul\":3495:3872   */\n      swap3\n      swap2\n      pop\n      pop\n      jump\t// out\n        /* \"#utility.yul\":3878:4191   */\n    tag_12:\n        /* \"#utility.yul\":3991:3995   */\n      0x00\n        /* \"#utility.yul\":4029:4031   */\n      0x20\n        /* \"#utility.yul\":4018:4027   */\n      dup3\n        /* \"#utility.yul\":4014:4032   */\n      add\n        /* \"#utility.yul\":4006:4032   */\n      swap1\n      pop\n        /* \"#utility.yul\":4078:4087   */\n      dup2\n        /* \"#utility.yul\":4072:4076   */\n      dup2\n        /* \"#utility.yul\":4068:4088   */\n      sub\n        /* \"#utility.yul\":4064:4065   */\n      0x00\n        /* \"#utility.yul\":4053:4062   */\n      dup4\n        /* \"#utility.yul\":4049:4066   */\n      add\n        /* \"#utility.yul\":4042:4089   */\n      mstore\n        /* \"#utility.yul\":4106:4184   */\n      tag_127\n        /* \"#utility.yul\":4179:4183   */\n      dup2\n        /* \"#utility.yul\":4170:4176   */\n      dup5\n        /* \"#utility.yul\":4106:4184   */\n      tag_73\n      jump\t// in\n    tag_127:\n        /* \"#utility.yul\":4098:4184   */\n      swap1\n      pop\n        /* \"#utility.yul\":3878:4191   */\n      swap3\n      swap2\n      pop\n      pop\n      jump\t// out\n        /* \"#utility.yul\":4197:4323   */\n    tag_74:\n        /* \"#utility.yul\":4234:4241   */\n      0x00\n        /* \"#utility.yul\":4274:4316   */\n      0xffffffffffffffffffffffffffffffffffffffff\n        /* \"#utility.yul\":4267:4272   */\n      dup3\n        /* \"#utility.yul\":4263:4317   */\n      and\n        /* \"#utility.yul\":4252:4317   */\n      swap1\n      pop\n        /* \"#utility.yul\":4197:4323   */\n      swap2\n      swap1\n      pop\n      jump\t// out\n        /* \"#utility.yul\":4329:4425   */\n    tag_75:\n        /* \"#utility.yul\":4366:4373   */\n      0x00\n        /* \"#utility.yul\":4395:4419   */\n      tag_130\n        /* \"#utility.yul\":4413:4418   */\n      dup3\n        /* \"#utility.yul\":4395:4419   */\n      tag_74\n      jump\t// in\n    tag_130:\n        /* \"#utility.yul\":4384:4419   */\n      swap1\n      pop\n        /* \"#utility.yul\":4329:4425   */\n      swap2\n      swap1\n      pop\n      jump\t// out\n        /* \"#utility.yul\":4431:4553   */\n    tag_76:\n        /* \"#utility.yul\":4504:4528   */\n      tag_132\n        /* \"#utility.yul\":4522:4527   */\n      dup2\n        /* \"#utility.yul\":4504:4528   */\n      tag_75\n      jump\t// in\n    tag_132:\n        /* \"#utility.yul\":4497:4502   */\n      dup2\n        /* \"#utility.yul\":4494:4529   */\n      eq\n        /* \"#utility.yul\":4484:4547   */\n      tag_133\n      jumpi\n        /* \"#utility.yul\":4543:4544   */\n      0x00\n        /* \"#utility.yul\":4540:4541   */\n      0x00\n        /* \"#utility.yul\":4533:4545   */\n      revert\n        /* \"#utility.yul\":4484:4547   */\n    tag_133:\n        /* \"#utility.yul\":4431:4553   */\n      pop\n      jump\t// out\n        /* \"#utility.yul\":4559:4698   */\n    tag_77:\n        /* \"#utility.yul\":4605:4610   */\n      0x00\n        /* \"#utility.yul\":4643:4649   */\n      dup2\n        /* \"#utility.yul\":4630:4650   */\n      calldataload\n        /* \"#utility.yul\":4621:4650   */\n      swap1\n      pop\n        /* \"#utility.yul\":4659:4692   */\n      tag_135\n        /* \"#utility.yul\":4686:4691   */\n      dup2\n        /* \"#utility.yul\":4659:4692   */\n      tag_76\n      jump\t// in\n    tag_135:\n        /* \"#utility.yul\":4559:4698   */\n      swap3\n      swap2\n      pop\n      pop\n      jump\t// out\n        /* \"#utility.yul\":4704:5033   */\n    tag_15:\n        /* \"#utility.yul\":4763:4769   */\n      0x00\n        /* \"#utility.yul\":4812:4814   */\n      0x20\n        /* \"#utility.yul\":4800:4809   */\n      dup3\n        /* \"#utility.yul\":4791:4798   */\n      dup5\n        /* \"#utility.yul\":4787:4810   */\n      sub\n        /* \"#utility.yul\":4783:4815   */\n      slt\n        /* \"#utility.yul\":4780:4899   */\n      iszero\n      tag_137\n      jumpi\n        /* \"#utility.yul\":4818:4897   */\n      tag_138\n      tag_58\n      jump\t// in\n    tag_138:\n        /* \"#utility.yul\":4780:4899   */\n    tag_137:\n        /* \"#utility.yul\":4938:4939   */\n      0x00\n        /* \"#utility.yul\":4963:5016   */\n      tag_139\n        /* \"#utility.yul\":5008:5015   */\n      dup5\n        /* \"#utility.yul\":4999:5005   */\n      dup3\n        /* \"#utility.yul\":4988:4997   */\n      dup6\n        /* \"#utility.yul\":4984:5006   */\n      add\n        /* \"#utility.yul\":4963:5016   */\n      tag_77\n      jump\t// in\n    tag_139:\n        /* \"#utility.yul\":4953:5016   */\n      swap2\n      pop\n        /* \"#utility.yul\":4909:5026   */\n      pop\n        /* \"#utility.yul\":4704:5033   */\n      swap3\n      swap2\n      pop\n      pop\n      jump\t// out\n        /* \"#utility.yul\":5039:5116   */\n    tag_78:\n        /* \"#utility.yul\":5076:5083   */\n      0x00\n        /* \"#utility.yul\":5105:5110   */\n      dup2\n        /* \"#utility.yul\":5094:5110   */\n      swap1\n      pop\n        /* \"#utility.yul\":5039:5116   */\n      swap2\n      swap1\n      pop\n      jump\t// out\n        /* \"#utility.yul\":5122:5240   */\n    tag_79:\n        /* \"#utility.yul\":5209:5233   */\n      tag_142\n        /* \"#utility.yul\":5227:5232   */\n      dup2\n        /* \"#utility.yul\":5209:5233   */\n      tag_78\n      jump\t// in\n    tag_142:\n        /* \"#utility.yul\":5204:5207   */\n      dup3\n        /* \"#utility.yul\":5197:5234   */\n      mstore\n        /* \"#utility.yul\":5122:5240   */\n      pop\n      pop\n      jump\t// out\n        /* \"#utility.yul\":5246:5468   */\n    tag_21:\n        /* \"#utility.yul\":5339:5343   */\n      0x00\n        /* \"#utility.yul\":5377:5379   */\n      0x20\n        /* \"#utility.yul\":5366:5375   */\n      dup3\n        /* \"#utility.yul\":5362:5380   */\n      add\n        /* \"#utility.yul\":5354:5380   */\n      swap1\n      pop\n        /* \"#utility.yul\":5390:5461   */\n      tag_144\n        /* \"#utility.yul\":5458:5459   */\n      0x00\n        /* \"#utility.yul\":5447:5456   */\n      dup4\n        /* \"#utility.yul\":5443:5460   */\n      add\n        /* \"#utility.yul\":5434:5440   */\n      dup5\n        /* \"#utility.yul\":5390:5461   */\n      tag_79\n      jump\t// in\n    tag_144:\n        /* \"#utility.yul\":5246:5468   */\n      swap3\n      swap2\n      pop\n      pop\n      jump\t// out\n        /* \"#utility.yul\":5474:5654   */\n    tag_80:\n        /* \"#utility.yul\":5522:5599   */\n      0x4e487b7100000000000000000000000000000000000000000000000000000000\n        /* \"#utility.yul\":5519:5520   */\n      0x00\n        /* \"#utility.yul\":5512:5600   */\n      mstore\n        /* \"#utility.yul\":5619:5623   */\n      0x12\n        /* \"#utility.yul\":5616:5617   */\n      0x04\n        /* \"#utility.yul\":5609:5624   */\n      mstore\n        /* \"#utility.yul\":5643:5647   */\n      0x24\n        /* \"#utility.yul\":5640:5641   */\n      0x00\n        /* \"#utility.yul\":5633:5648   */\n      revert\n        /* \"#utility.yul\":5660:5840   */\n    tag_81:\n        /* \"#utility.yul\":5708:5785   */\n      0x4e487b7100000000000000000000000000000000000000000000000000000000\n        /* \"#utility.yul\":5705:5706   */\n      0x00\n        /* \"#utility.yul\":5698:5786   */\n      mstore\n        /* \"#utility.yul\":5805:5809   */\n      0x11\n        /* \"#utility.yul\":5802:5803   */\n      0x04\n        /* \"#utility.yul\":5795:5810   */\n      mstore\n        /* \"#utility.yul\":5829:5833   */\n      0x24\n        /* \"#utility.yul\":5826:5827   */\n      0x00\n        /* \"#utility.yul\":5819:5834   */\n      revert\n        /* \"#utility.yul\":5846:6031   */\n    tag_29:\n        /* \"#utility.yul\":5886:5887   */\n      0x00\n        /* \"#utility.yul\":5903:5923   */\n      tag_148\n        /* \"#utility.yul\":5921:5922   */\n      dup3\n        /* \"#utility.yul\":5903:5923   */\n      tag_78\n      jump\t// in\n    tag_148:\n        /* \"#utility.yul\":5898:5923   */\n      swap2\n      pop\n        /* \"#utility.yul\":5937:5957   */\n      tag_149\n        /* \"#utility.yul\":5955:5956   */\n      dup4\n        /* \"#utility.yul\":5937:5957   */\n      tag_78\n      jump\t// in\n    tag_149:\n        /* \"#utility.yul\":5932:5957   */\n      swap3\n      pop\n        /* \"#utility.yul\":5976:5977   */\n      dup3\n        /* \"#utility.yul\":5966:6001   */\n      tag_150\n      jumpi\n        /* \"#utility.yul\":5981:5999   */\n      tag_151\n      tag_80\n      jump\t// in\n    tag_151:\n        /* \"#utility.yul\":5966:6001   */\n    tag_150:\n        /* \"#utility.yul\":6023:6024   */\n      dup3\n        /* \"#utility.yul\":6020:6021   */\n      dup3\n        /* \"#utility.yul\":6016:6025   */\n      div\n        /* \"#utility.yul\":6011:6025   */\n      swap1\n      pop\n        /* \"#utility.yul\":5846:6031   */\n      swap3\n      swap2\n      pop\n      pop\n      jump\t// out\n        /* \"#utility.yul\":6037:6217   */\n    tag_32:\n        /* \"#utility.yul\":6085:6162   */\n      0x4e487b7100000000000000000000000000000000000000000000000000000000\n        /* \"#utility.yul\":6082:6083   */\n      0x00\n        /* \"#utility.yul\":6075:6163   */\n      mstore\n        /* \"#utility.yul\":6182:6186   */\n      0x32\n        /* \"#utility.yul\":6179:6180   */\n      0x04\n        /* \"#utility.yul\":6172:6187   */\n      mstore\n        /* \"#utility.yul\":6206:6210   */\n      0x24\n        /* \"#utility.yul\":6203:6204   */\n      0x00\n        /* \"#utility.yul\":6196:6211   */\n      revert\n        /* \"#utility.yul\":6223:6417   */\n    tag_34:\n        /* \"#utility.yul\":6263:6267   */\n      0x00\n        /* \"#utility.yul\":6283:6303   */\n      tag_154\n        /* \"#utility.yul\":6301:6302   */\n      dup3\n        /* \"#utility.yul\":6283:6303   */\n      tag_78\n      jump\t// in\n    tag_154:\n        /* \"#utility.yul\":6278:6303   */\n      swap2\n      pop\n        /* \"#utility.yul\":6317:6337   */\n      tag_155\n        /* \"#utility.yul\":6335:6336   */\n      dup4\n        /* \"#utility.yul\":6317:6337   */\n      tag_78\n      jump\t// in\n    tag_155:\n        /* \"#utility.yul\":6312:6337   */\n      swap3\n      pop\n        /* \"#utility.yul\":6361:6362   */\n      dup3\n        /* \"#utility.yul\":6358:6359   */\n      dup3\n        /* \"#utility.yul\":6354:6363   */\n      sub\n        /* \"#utility.yul\":6346:6363   */\n      swap1\n      pop\n        /* \"#utility.yul\":6385:6386   */\n      dup2\n        /* \"#utility.yul\":6379:6383   */\n      dup2\n        /* \"#utility.yul\":6376:6387   */\n      gt\n        /* \"#utility.yul\":6373:6410   */\n      iszero\n      tag_156\n      jumpi\n        /* \"#utility.yul\":6390:6408   */\n      tag_157\n      tag_81\n      jump\t// in\n    tag_157:\n        /* \"#utility.yul\":6373:6410   */\n    tag_156:\n        /* \"#utility.yul\":6223:6417   */\n      swap3\n      swap2\n      pop\n      pop\n      jump\t// out\n        /* \"#utility.yul\":6423:6656   */\n    tag_46:\n        /* \"#utility.yul\":6462:6465   */\n      0x00\n        /* \"#utility.yul\":6485:6509   */\n      tag_159\n        /* \"#utility.yul\":6503:6508   */\n      dup3\n        /* \"#utility.yul\":6485:6509   */\n      tag_78\n      jump\t// in\n    tag_159:\n        /* \"#utility.yul\":6476:6509   */\n      swap2\n      pop\n        /* \"#utility.yul\":6531:6597   */\n      0xffffffffffffffffffffffffffffffffffffffffffffffffffffffffffffffff\n        /* \"#utility.yul\":6524:6529   */\n      dup3\n        /* \"#utility.yul\":6521:6598   */\n      sub\n        /* \"#utility.yul\":6518:6621   */\n      tag_160\n      jumpi\n        /* \"#utility.yul\":6601:6619   */\n      tag_161\n      tag_81\n      jump\t// in\n    tag_161:\n        /* \"#utility.yul\":6518:6621   */\n    tag_160:\n        /* \"#utility.yul\":6648:6649   */\n      0x01\n        /* \"#utility.yul\":6641:6646   */\n      dup3\n        /* \"#utility.yul\":6637:6650   */\n      add\n        /* \"#utility.yul\":6630:6650   */\n      swap1\n      pop\n        /* \"#utility.yul\":6423:6656   */\n      swap2\n      swap1\n      pop\n      jump\t// out\n\n    auxdata: 0xa264697066735822122099f23da870b3c5339e1892f91a1791782f2eae86069e8cf9a7461be07943f42064736f6c634300081e0033\n}\n",
				"bytecode": {
					"linkReferences": {},
					"object": "6080604052348015600e575f5ffd5b506108098061001c5f395ff3fe608060405234801561000f575f5ffd5b506004361061004a575f3560e01c80635729c2111461004e5780636dd7d8ea1461007e5780639ab24eb01461009a578063b9830ff1146100ca575b5f5ffd5b61006860048036038101906100639190610525565b6100d4565b60405161007591906105cc565b60405180910390f35b61009860048036038101906100939190610646565b6101fe565b005b6100b460048036038101906100af9190610646565b6102f7565b6040516100c19190610689565b60405180910390f35b6100d261033c565b005b60605f8290505f5f90505b600282516100ed91906106fc565b8110156101f4575f8282815181106101085761010761072c565b5b602001015160f81c60f81b90508282600185516101259190610759565b61012f9190610759565b815181106101405761013f61072c565b5b602001015160f81c60f81b83838151811061015e5761015d61072c565b5b60200101907effffffffffffffffffffffffffffffffffffffffffffffffffffffffffffff191690815f1a9053508083836001865161019d9190610759565b6101a79190610759565b815181106101b8576101b761072c565b5b60200101907effffffffffffffffffffffffffffffffffffffffffffffffffffffffffffff191690815f1a9053505080806001019150506100df565b5082915050919050565b5f5f8273ffffffffffffffffffffffffffffffffffffffff1673ffffffffffffffffffffffffffffffffffffffff1681526020019081526020015f205f81548092919061024a9061078c565b919050555060015f5f3373ffffffffffffffffffffffffffffffffffffffff1673ffffffffffffffffffffffffffffffffffffffff1681526020019081526020015f2054036102f457600133908060018154018082558091505060019003905f5260205f20015f9091909190916101000a81548173ffffffffffffffffffffffffffffffffffffffff021916908373ffffffffffffffffffffffffffffffffffffffff1602179055505b50565b5f5f5f8373ffffffffffffffffffffffffffffffffffffffff1673ffffffffffffffffffffffffffffffffffffffff1681526020019081526020015f20549050919050565b5f5f90505b6001805490508110156103d5575f5f600183815481106103645761036361072c565b5b905f5260205f20015f9054906101000a900473ffffffffffffffffffffffffffffffffffffffff1673ffffffffffffffffffffffffffffffffffffffff1673ffffffffffffffffffffffffffffffffffffffff1681526020019081526020015f205f90558080600101915050610341565b50565b5f604051905090565b5f5ffd5b5f5ffd5b5f5ffd5b5f5ffd5b5f601f19601f8301169050919050565b7f4e487b71000000000000000000000000000000000000000000000000000000005f52604160045260245ffd5b610437826103f1565b810181811067ffffffffffffffff8211171561045657610455610401565b5b80604052505050565b5f6104686103d8565b9050610474828261042e565b919050565b5f67ffffffffffffffff82111561049357610492610401565b5b61049c826103f1565b9050602081019050919050565b828183375f83830152505050565b5f6104c96104c484610479565b61045f565b9050828152602081018484840111156104e5576104e46103ed565b5b6104f08482856104a9565b509392505050565b5f82601f83011261050c5761050b6103e9565b5b813561051c8482602086016104b7565b91505092915050565b5f6020828403121561053a576105396103e1565b5b5f82013567ffffffffffffffff811115610557576105566103e5565b5b610563848285016104f8565b91505092915050565b5f81519050919050565b5f82825260208201905092915050565b8281835e5f83830152505050565b5f61059e8261056c565b6105a88185610576565b93506105b8818560208601610586565b6105c1816103f1565b840191505092915050565b5f6020820190508181035f8301526105e48184610594565b905092915050565b5f73ffffffffffffffffffffffffffffffffffffffff82169050919050565b5f610615826105ec565b9050919050565b6106258161060b565b811461062f575f5ffd5b50565b5f813590506106408161061c565b92915050565b5f6020828403121561065b5761065a6103e1565b5b5f61066884828501610632565b91505092915050565b5f819050919050565b61068381610671565b82525050565b5f60208201905061069c5f83018461067a565b92915050565b7f4e487b71000000000000000000000000000000000000000000000000000000005f52601260045260245ffd5b7f4e487b71000000000000000000000000000000000000000000000000000000005f52601160045260245ffd5b5f61070682610671565b915061071183610671565b925082610721576107206106a2565b5b828204905092915050565b7f4e487b71000000000000000000000000000000000000000000000000000000005f52603260045260245ffd5b5f61076382610671565b915061076e83610671565b9250828203905081811115610786576107856106cf565b5b92915050565b5f61079682610671565b91507fffffffffffffffffffffffffffffffffffffffffffffffffffffffffffffffff82036107c8576107c76106cf565b5b60018201905091905056fea264697066735822122099f23da870b3c5339e1892f91a1791782f2eae86069e8cf9a7461be07943f42064736f6c634300081e0033",
					"opcodes": "PUSH1 0x80 PUSH1 0x40 MSTORE CALLVALUE DUP1 ISZERO PUSH1 0xE JUMPI PUSH0 PUSH0 REVERT JUMPDEST POP PUSH2 0x809 DUP1 PUSH2 0x1C PUSH0 CODECOPY PUSH0 RETURN INVALID PUSH1 0x80 PUSH1 0x40 MSTORE CALLVALUE DUP1 ISZERO PUSH2 0xF JUMPI PUSH0 PUSH0 REVERT JUMPDEST POP PUSH1 0x4 CALLDATASIZE LT PUSH2 0x4A JUMPI PUSH0 CALLDATALOAD PUSH1 0xE0 SHR DUP1 PUSH4 0x5729C211 EQ PUSH2 0x4E JUMPI DUP1 PUSH4 0x6DD7D8EA EQ PUSH2 0x7E JUMPI DUP1 PUSH4 0x9AB24EB0 EQ PUSH2 0x9A JUMPI DUP1 PUSH4 0xB9830FF1 EQ PUSH2 0xCA JUMPI JUMPDEST PUSH0 PUSH0 REVERT JUMPDEST PUSH2 0x68 PUSH1 0x4 DUP1 CALLDATASIZE SUB DUP2 ADD SWAP1 PUSH2 0x63 SWAP2 SWAP1 PUSH2 0x525 JUMP JUMPDEST PUSH2 0xD4 JUMP JUMPDEST PUSH1 0x40 MLOAD PUSH2 0x75 SWAP2 SWAP1 PUSH2 0x5CC JUMP JUMPDEST PUSH1 0x40 MLOAD DUP1 SWAP2 SUB SWAP1 RETURN JUMPDEST PUSH2 0x98 PUSH1 0x4 DUP1 CALLDATASIZE SUB DUP2 ADD SWAP1 PUSH2 0x93 SWAP2 SWAP1 PUSH2 0x646 JUMP JUMPDEST PUSH2 0x1FE JUMP JUMPDEST STOP JUMPDEST PUSH2 0xB4 PUSH1 0x4 DUP1 CALLDATASIZE SUB DUP2 ADD SWAP1 PUSH2 0xAF SWAP2 SWAP1 PUSH2 0x646 JUMP JUMPDEST PUSH2 0x2F7 JUMP JUMPDEST PUSH1 0x40 MLOAD PUSH2 0xC1 SWAP2 SWAP1 PUSH2 0x689 JUMP JUMPDEST PUSH1 0x40 MLOAD DUP1 SWAP2 SUB SWAP1 RETURN JUMPDEST PUSH2 0xD2 PUSH2 0x33C JUMP JUMPDEST STOP JUMPDEST PUSH1 0x60 PUSH0 DUP3 SWAP1 POP PUSH0 PUSH0 SWAP1 POP JUMPDEST PUSH1 0x2 DUP3 MLOAD PUSH2 0xED SWAP2 SWAP1 PUSH2 0x6FC JUMP JUMPDEST DUP2 LT ISZERO PUSH2 0x1F4 JUMPI PUSH0 DUP3 DUP3 DUP2 MLOAD DUP2 LT PUSH2 0x108 JUMPI PUSH2 0x107 PUSH2 0x72C JUMP JUMPDEST JUMPDEST PUSH1 0x20 ADD ADD MLOAD PUSH1 0xF8 SHR PUSH1 0xF8 SHL SWAP1 POP DUP3 DUP3 PUSH1 0x1 DUP6 MLOAD PUSH2 0x125 SWAP2 SWAP1 PUSH2 0x759 JUMP JUMPDEST PUSH2 0x12F SWAP2 SWAP1 PUSH2 0x759 JUMP JUMPDEST DUP2 MLOAD DUP2 LT PUSH2 0x140 JUMPI PUSH2 0x13F PUSH2 0x72C JUMP JUMPDEST JUMPDEST PUSH1 0x20 ADD ADD MLOAD PUSH1 0xF8 SHR PUSH1 0xF8 SHL DUP4 DUP4 DUP2 MLOAD DUP2 LT PUSH2 0x15E JUMPI PUSH2 0x15D PUSH2 0x72C JUMP JUMPDEST JUMPDEST PUSH1 0x20 ADD ADD SWAP1 PUSH31 0xFFFFFFFFFFFFFFFFFFFFFFFFFFFFFFFFFFFFFFFFFFFFFFFFFFFFFFFFFFFFFF NOT AND SWAP1 DUP2 PUSH0 BYTE SWAP1 MSTORE8 POP DUP1 DUP4 DUP4 PUSH1 0x1 DUP7 MLOAD PUSH2 0x19D SWAP2 SWAP1 PUSH2 0x759 JUMP JUMPDEST PUSH2 0x1A7 SWAP2 SWAP1 PUSH2 0x759 JUMP JUMPDEST DUP2 MLOAD DUP2 LT PUSH2 0x1B8 JUMPI PUSH2 0x1B7 PUSH2 0x72C JUMP JUMPDEST JUMPDEST PUSH1 0x20 ADD ADD SWAP1 PUSH31 0xFFFFFFFFFFFFFFFFFFFFFFFFFFFFFFFFFFFFFFFFFFFFFFFFFFFFFFFFFFFFFF NOT AND SWAP1 DUP2 PUSH0 BYTE SWAP1 MSTORE8 POP POP DUP1 DUP1 PUSH1 0x1 ADD SWAP2 POP POP PUSH2 0xDF JUMP JUMPDEST POP DUP3 SWAP2 POP POP SWAP2 SWAP1 POP JUMP JUMPDEST PUSH0 PUSH0 DUP3 PUSH20 0xFFFFFFFFFFFFFFFFFFFFFFFFFFFFFFFFFFFFFFFF AND PUSH20 0xFFFFFFFFFFFFFFFFFFFFFFFFFFFFFFFFFFFFFFFF AND DUP2 MSTORE PUSH1 0x20 ADD SWAP1 DUP2 MSTORE PUSH1 0x20 ADD PUSH0 KECCAK256 PUSH0 DUP2 SLOAD DUP1 SWAP3 SWAP2 SWAP1 PUSH2 0x24A SWAP1 PUSH2 0x78C JUMP JUMPDEST SWAP2 SWAP1 POP SSTORE POP PUSH1 0x1 PUSH0 PUSH0 CALLER PUSH20 0xFFFFFFFFFFFFFFFFFFFFFFFFFFFFFFFFFFFFFFFF AND PUSH20 0xFFFFFFFFFFFFFFFFFFFFFFFFFFFFFFFFFFFFFFFF AND DUP2 MSTORE PUSH1 0x20 ADD SWAP1 DUP2 MSTORE PUSH1 0x20 ADD PUSH0 KECCAK256 SLOAD SUB PUSH2 0x2F4 JUMPI PUSH1 0x1 CALLER SWAP1 DUP1 PUSH1 0x1 DUP2 SLOAD ADD DUP1 DUP3 SSTORE DUP1 SWAP2 POP POP PUSH1 0x1 SWAP1 SUB SWAP1 PUSH0 MSTORE PUSH1 0x20 PUSH0 KECCAK256 ADD PUSH0 SWAP1 SWAP2 SWAP1 SWAP2 SWAP1 SWAP2 PUSH2 0x100 EXP DUP2 SLOAD DUP2 PUSH20 0xFFFFFFFFFFFFFFFFFFFFFFFFFFFFFFFFFFFFFFFF MUL NOT AND SWAP1 DUP4 PUSH20 0xFFFFFFFFFFFFFFFFFFFFFFFFFFFFFFFFFFFFFFFF AND MUL OR SWAP1 SSTORE POP JUMPDEST POP JUMP JUMPDEST PUSH0 PUSH0 PUSH0 DUP4 PUSH20 0xFFFFFFFFFFFFFFFFFFFFFFFFFFFFFFFFFFFFFFFF AND PUSH20 0xFFFFFFFFFFFFFFFFFFFFFFFFFFFFFFFFFFFFFFFF AND DUP2 MSTORE PUSH1 0x20 ADD SWAP1 DUP2 MSTORE PUSH1 0x20 ADD PUSH0 KECCAK256 SLOAD SWAP1 POP SWAP2 SWAP1 POP JUMP JUMPDEST PUSH0 PUSH0 SWAP1 POP JUMPDEST PUSH1 0x1 DUP1 SLOAD SWAP1 POP DUP2 LT ISZERO PUSH2 0x3D5 JUMPI PUSH0 PUSH0 PUSH1 0x1 DUP4 DUP2 SLOAD DUP2 LT PUSH2 0x364 JUMPI PUSH2 0x363 PUSH2 0x72C JUMP JUMPDEST JUMPDEST SWAP1 PUSH0 MSTORE PUSH1 0x20 PUSH0 KECCAK256 ADD PUSH0 SWAP1 SLOAD SWAP1 PUSH2 0x100 EXP SWAP1 DIV PUSH20 0xFFFFFFFFFFFFFFFFFFFFFFFFFFFFFFFFFFFFFFFF AND PUSH20 0xFFFFFFFFFFFFFFFFFFFFFFFFFFFFFFFFFFFFFFFF AND PUSH20 0xFFFFFFFFFFFFFFFFFFFFFFFFFFFFFFFFFFFFFFFF AND DUP2 MSTORE PUSH1 0x20 ADD SWAP1 DUP2 MSTORE PUSH1 0x20 ADD PUSH0 KECCAK256 PUSH0 SWAP1 SSTORE DUP1 DUP1 PUSH1 0x1 ADD SWAP2 POP POP PUSH2 0x341 JUMP JUMPDEST POP JUMP JUMPDEST PUSH0 PUSH1 0x40 MLOAD SWAP1 POP SWAP1 JUMP JUMPDEST PUSH0 PUSH0 REVERT JUMPDEST PUSH0 PUSH0 REVERT JUMPDEST PUSH0 PUSH0 REVERT JUMPDEST PUSH0 PUSH0 REVERT JUMPDEST PUSH0 PUSH1 0x1F NOT PUSH1 0x1F DUP4 ADD AND SWAP1 POP SWAP2 SWAP1 POP JUMP JUMPDEST PUSH32 0x4E487B7100000000000000000000000000000000000000000000000000000000 PUSH0 MSTORE PUSH1 0x41 PUSH1 0x4 MSTORE PUSH1 0x24 PUSH0 REVERT JUMPDEST PUSH2 0x437 DUP3 PUSH2 0x3F1 JUMP JUMPDEST DUP2 ADD DUP2 DUP2 LT PUSH8 0xFFFFFFFFFFFFFFFF DUP3 GT OR ISZERO PUSH2 0x456 JUMPI PUSH2 0x455 PUSH2 0x401 JUMP JUMPDEST JUMPDEST DUP1 PUSH1 0x40 MSTORE POP POP POP JUMP JUMPDEST PUSH0 PUSH2 0x468 PUSH2 0x3D8 JUMP JUMPDEST SWAP1 POP PUSH2 0x474 DUP3 DUP3 PUSH2 0x42E JUMP JUMPDEST SWAP2 SWAP1 POP JUMP JUMPDEST PUSH0 PUSH8 0xFFFFFFFFFFFFFFFF DUP3 GT ISZERO PUSH2 0x493 JUMPI PUSH2 0x492 PUSH2 0x401 JUMP JUMPDEST JUMPDEST PUSH2 0x49C DUP3 PUSH2 0x3F1 JUMP JUMPDEST SWAP1 POP PUSH1 0x20 DUP2 ADD SWAP1 POP SWAP2 SWAP1 POP JUMP JUMPDEST DUP3 DUP2 DUP4 CALLDATACOPY PUSH0 DUP4 DUP4 ADD MSTORE POP POP POP JUMP JUMPDEST PUSH0 PUSH2 0x4C9 PUSH2 0x4C4 DUP5 PUSH2 0x479 JUMP JUMPDEST PUSH2 0x45F JUMP JUMPDEST SWAP1 POP DUP3 DUP2 MSTORE PUSH1 0x20 DUP2 ADD DUP5 DUP5 DUP5 ADD GT ISZERO PUSH2 0x4E5 JUMPI PUSH2 0x4E4 PUSH2 0x3ED JUMP JUMPDEST JUMPDEST PUSH2 0x4F0 DUP5 DUP3 DUP6 PUSH2 0x4A9 JUMP JUMPDEST POP SWAP4 SWAP3 POP POP POP JUMP JUMPDEST PUSH0 DUP3 PUSH1 0x1F DUP4 ADD SLT PUSH2 0x50C JUMPI PUSH2 0x50B PUSH2 0x3E9 JUMP JUMPDEST JUMPDEST DUP2 CALLDATALOAD PUSH2 0x51C DUP5 DUP3 PUSH1 0x20 DUP7 ADD PUSH2 0x4B7 JUMP JUMPDEST SWAP2 POP POP SWAP3 SWAP2 POP POP JUMP JUMPDEST PUSH0 PUSH1 0x20 DUP3 DUP5 SUB SLT ISZERO PUSH2 0x53A JUMPI PUSH2 0x539 PUSH2 0x3E1 JUMP JUMPDEST JUMPDEST PUSH0 DUP3 ADD CALLDATALOAD PUSH8 0xFFFFFFFFFFFFFFFF DUP2 GT ISZERO PUSH2 0x557 JUMPI PUSH2 0x556 PUSH2 0x3E5 JUMP JUMPDEST JUMPDEST PUSH2 0x563 DUP5 DUP3 DUP6 ADD PUSH2 0x4F8 JUMP JUMPDEST SWAP2 POP POP SWAP3 SWAP2 POP POP JUMP JUMPDEST PUSH0 DUP2 MLOAD SWAP1 POP SWAP2 SWAP1 POP JUMP JUMPDEST PUSH0 DUP3 DUP3 MSTORE PUSH1 0x20 DUP3 ADD SWAP1 POP SWAP3 SWAP2 POP POP JUMP JUMPDEST DUP3 DUP2 DUP4 MCOPY PUSH0 DUP4 DUP4 ADD MSTORE POP POP POP JUMP JUMPDEST PUSH0 PUSH2 0x59E DUP3 PUSH2 0x56C JUMP JUMPDEST PUSH2 0x5A8 DUP2 DUP6 PUSH2 0x576 JUMP JUMPDEST SWAP4 POP PUSH2 0x5B8 DUP2 DUP6 PUSH1 0x20 DUP7 ADD PUSH2 0x586 JUMP JUMPDEST PUSH2 0x5C1 DUP2 PUSH2 0x3F1 JUMP JUMPDEST DUP5 ADD SWAP2 POP POP SWAP3 SWAP2 POP POP JUMP JUMPDEST PUSH0 PUSH1 0x20 DUP3 ADD SWAP1 POP DUP2 DUP2 SUB PUSH0 DUP4 ADD MSTORE PUSH2 0x5E4 DUP2 DUP5 PUSH2 0x594 JUMP JUMPDEST SWAP1 POP SWAP3 SWAP2 POP POP JUMP JUMPDEST PUSH0 PUSH20 0xFFFFFFFFFFFFFFFFFFFFFFFFFFFFFFFFFFFFFFFF DUP3 AND SWAP1 POP SWAP2 SWAP1 POP JUMP JUMPDEST PUSH0 PUSH2 0x615 DUP3 PUSH2 0x5EC JUMP JUMPDEST SWAP1 POP SWAP2 SWAP1 POP JUMP JUMPDEST PUSH2 0x625 DUP2 PUSH2 0x60B JUMP JUMPDEST DUP2 EQ PUSH2 0x62F JUMPI PUSH0 PUSH0 REVERT JUMPDEST POP JUMP JUMPDEST PUSH0 DUP2 CALLDATALOAD SWAP1 POP PUSH2 0x640 DUP2 PUSH2 0x61C JUMP JUMPDEST SWAP3 SWAP2 POP POP JUMP JUMPDEST PUSH0 PUSH1 0x20 DUP3 DUP5 SUB SLT ISZERO PUSH2 0x65B JUMPI PUSH2 0x65A PUSH2 0x3E1 JUMP JUMPDEST JUMPDEST PUSH0 PUSH2 0x668 DUP5 DUP3 DUP6 ADD PUSH2 0x632 JUMP JUMPDEST SWAP2 POP POP SWAP3 SWAP2 POP POP JUMP JUMPDEST PUSH0 DUP2 SWAP1 POP SWAP2 SWAP1 POP JUMP JUMPDEST PUSH2 0x683 DUP2 PUSH2 0x671 JUMP JUMPDEST DUP3 MSTORE POP POP JUMP JUMPDEST PUSH0 PUSH1 0x20 DUP3 ADD SWAP1 POP PUSH2 0x69C PUSH0 DUP4 ADD DUP5 PUSH2 0x67A JUMP JUMPDEST SWAP3 SWAP2 POP POP JUMP JUMPDEST PUSH32 0x4E487B7100000000000000000000000000000000000000000000000000000000 PUSH0 MSTORE PUSH1 0x12 PUSH1 0x4 MSTORE PUSH1 0x24 PUSH0 REVERT JUMPDEST PUSH32 0x4E487B7100000000000000000000000000000000000000000000000000000000 PUSH0 MSTORE PUSH1 0x11 PUSH1 0x4 MSTORE PUSH1 0x24 PUSH0 REVERT JUMPDEST PUSH0 PUSH2 0x706 DUP3 PUSH2 0x671 JUMP JUMPDEST SWAP2 POP PUSH2 0x711 DUP4 PUSH2 0x671 JUMP JUMPDEST SWAP3 POP DUP3 PUSH2 0x721 JUMPI PUSH2 0x720 PUSH2 0x6A2 JUMP JUMPDEST JUMPDEST DUP3 DUP3 DIV SWAP1 POP SWAP3 SWAP2 POP POP JUMP JUMPDEST PUSH32 0x4E487B7100000000000000000000000000000000000000000000000000000000 PUSH0 MSTORE PUSH1 0x32 PUSH1 0x4 MSTORE PUSH1 0x24 PUSH0 REVERT JUMPDEST PUSH0 PUSH2 0x763 DUP3 PUSH2 0x671 JUMP JUMPDEST SWAP2 POP PUSH2 0x76E DUP4 PUSH2 0x671 JUMP JUMPDEST SWAP3 POP DUP3 DUP3 SUB SWAP1 POP DUP2 DUP2 GT ISZERO PUSH2 0x786 JUMPI PUSH2 0x785 PUSH2 0x6CF JUMP JUMPDEST JUMPDEST SWAP3 SWAP2 POP POP JUMP JUMPDEST PUSH0 PUSH2 0x796 DUP3 PUSH2 0x671 JUMP JUMPDEST SWAP2 POP PUSH32 0xFFFFFFFFFFFFFFFFFFFFFFFFFFFFFFFFFFFFFFFFFFFFFFFFFFFFFFFFFFFFFFFF DUP3 SUB PUSH2 0x7C8 JUMPI PUSH2 0x7C7 PUSH2 0x6CF JUMP JUMPDEST JUMPDEST PUSH1 0x1 DUP3 ADD SWAP1 POP SWAP2 SWAP1 POP JUMP INVALID LOG2 PUSH5 0x6970667358 0x22 SLT KECCAK256 SWAP10 CALLCODE RETURNDATASIZE 0xA8 PUSH17 0xB3C5339E1892F91A1791782F2EAE86069E DUP13 EXTDELEGATECALL 0xA7 CHAINID SHL RJUMP 0x7943 DELEGATECALL KECCAK256 PUSH5 0x736F6C6343 STOP ADDMOD 0x1E STOP CALLER "
				},
				"gasEstimates": {
					"creation": {
						"codeDepositCost": "411400",
						"executionCost": "447",
						"totalCost": "411847"
					},
					"external": {
						"getVotes(address)": "2850",
						"resetVotes()": "infinite",
						"reverseString(string)": "infinite",
						"vote(address)": "75674"
					}
				},
				"methodIdentifiers": {
					"getVotes(address)": "9ab24eb0",
					"resetVotes()": "b9830ff1",
					"reverseString(string)": "5729c211",
					"vote(address)": "6dd7d8ea"
				}
			},
			"storageLayout": {
				"storage": [
					{
						"astId": 5,
						"contract": "contracts/voting.sol:Voting",
						"label": "votesReceived",
						"offset": 0,
						"slot": "0",
						"type": "t_mapping(t_address,t_uint256)"
					},
					{
						"astId": 8,
						"contract": "contracts/voting.sol:Voting",
						"label": "voters",
						"offset": 0,
						"slot": "1",
						"type": "t_array(t_address)dyn_storage"
					}
				],
				"types": {
					"t_address": {
						"encoding": "inplace",
						"label": "address",
						"numberOfBytes": "20"
					},
					"t_array(t_address)dyn_storage": {
						"base": "t_address",
						"encoding": "dynamic_array",
						"label": "address[]",
						"numberOfBytes": "32"
					},
					"t_mapping(t_address,t_uint256)": {
						"encoding": "mapping",
						"key": "t_address",
						"label": "mapping(address => uint256)",
						"numberOfBytes": "32",
						"value": "t_uint256"
					},
					"t_uint256": {
						"encoding": "inplace",
						"label": "uint256",
						"numberOfBytes": "32"
					}
				}
			},
			"userdoc": {
				"kind": "user",
				"methods": {},
				"version": 1
			}
		}
	}
}