{
	"data": {
		"bytecode": {
			"linkReferences": {},
			"object": "6080604052348015600e575f5ffd5b5061091a8061001c5f395ff3fe608060405234801561000f575f5ffd5b5060043610610034575f3560e01c8063f032219814610038578063f435370614610068575b5f5ffd5b610052600480360381019061004d91906105a8565b610098565b60405161005f91906106d5565b60405180910390f35b610082600480360381019061007d91906106f5565b6102db565b60405161008f9190610767565b60405180910390f35b60605f835190505f835190505f81836100b191906107ad565b90505f8167ffffffffffffffff8111156100ce576100cd610439565b5b6040519080825280602002602001820160405280156100fc5781602001602082028036833780820191505090505b5090505f5f90505f5f90505f5f90505b868310801561011a57508582105b1561020357888281518110610132576101316107e0565b5b60200260200101518a848151811061014d5761014c6107e0565b5b6020026020010151136101a75789838151811061016d5761016c6107e0565b5b6020026020010151848281518110610188576101876107e0565b5b602002602001018181525050828061019f9061080d565b9350506101f0565b8882815181106101ba576101b96107e0565b5b60200260200101518482815181106101d5576101d46107e0565b5b60200260200101818152505081806101ec9061080d565b9250505b80806101fb9061080d565b91505061010c565b5b868310156102675789838151811061021f5761021e6107e0565b5b602002602001015184828151811061023a576102396107e0565b5b60200260200101818152505082806102519061080d565b935050808061025f9061080d565b915050610204565b5b858210156102cb57888281518110610283576102826107e0565b5b602002602001015184828151811061029e5761029d6107e0565b5b60200260200101818152505081806102b59061080d565b92505080806102c39061080d565b915050610268565b8397505050505050505092915050565b5f5f835190505f8103610311577fffffffffffffffffffffffffffffffffffffffffffffffffffffffffffffffff91505061040e565b5f5f90505f6001836103239190610854565b90505f5f90505b8183116103e6576002828461033f91906107ad565b61034991906108b4565b905086818151811061035e5761035d6107e0565b5b60200260200101518603610378578094505050505061040e565b86818151811061038b5761038a6107e0565b5b60200260200101518613156103ae576001816103a791906107ad565b92506103e1565b8681815181106103c1576103c06107e0565b5b60200260200101518612156103e0576001816103dd9190610854565b91505b5b61032a565b7fffffffffffffffffffffffffffffffffffffffffffffffffffffffffffffffff9450505050505b92915050565b5f604051905090565b5f5ffd5b5f5ffd5b5f5ffd5b5f601f19601f8301169050919050565b7f4e487b71000000000000000000000000000000000000000000000000000000005f52604160045260245ffd5b61046f82610429565b810181811067ffffffffffffffff8211171561048e5761048d610439565b5b80604052505050565b5f6104a0610414565b90506104ac8282610466565b919050565b5f67ffffffffffffffff8211156104cb576104ca610439565b5b602082029050602081019050919050565b5f5ffd5b5f819050919050565b6104f2816104e0565b81146104fc575f5ffd5b50565b5f8135905061050d816104e9565b92915050565b5f610525610520846104b1565b610497565b90508083825260208201905060208402830185811115610548576105476104dc565b5b835b81811015610571578061055d88826104ff565b84526020840193505060208101905061054a565b5050509392505050565b5f82601f83011261058f5761058e610425565b5b813561059f848260208601610513565b91505092915050565b5f5f604083850312156105be576105bd61041d565b5b5f83013567ffffffffffffffff8111156105db576105da610421565b5b6105e78582860161057b565b925050602083013567ffffffffffffffff81111561060857610607610421565b5b6106148582860161057b565b9150509250929050565b5f81519050919050565b5f82825260208201905092915050565b5f819050602082019050919050565b610650816104e0565b82525050565b5f6106618383610647565b60208301905092915050565b5f602082019050919050565b5f6106838261061e565b61068d8185610628565b935061069883610638565b805f5b838110156106c85781516106af8882610656565b97506106ba8361066d565b92505060018101905061069b565b5085935050505092915050565b5f6020820190508181035f8301526106ed8184610679565b905092915050565b5f5f6040838503121561070b5761070a61041d565b5b5f83013567ffffffffffffffff81111561072857610727610421565b5b6107348582860161057b565b9250506020610745858286016104ff565b9150509250929050565b5f819050919050565b6107618161074f565b82525050565b5f60208201905061077a5f830184610758565b92915050565b7f4e487b71000000000000000000000000000000000000000000000000000000005f52601160045260245ffd5b5f6107b78261074f565b91506107c28361074f565b92508282019050808211156107da576107d9610780565b5b92915050565b7f4e487b71000000000000000000000000000000000000000000000000000000005f52603260045260245ffd5b5f6108178261074f565b91507fffffffffffffffffffffffffffffffffffffffffffffffffffffffffffffffff820361084957610848610780565b5b600182019050919050565b5f61085e8261074f565b91506108698361074f565b925082820390508181111561088157610880610780565b5b92915050565b7f4e487b71000000000000000000000000000000000000000000000000000000005f52601260045260245ffd5b5f6108be8261074f565b91506108c98361074f565b9250826108d9576108d8610887565b5b82820490509291505056fea2646970667358221220e845c5991c3ca8c25f5f338f709884726f284baff7501242527d357103f24f5764736f6c634300081e0033",
			"opcodes": "PUSH1 0x80 PUSH1 0x40 MSTORE CALLVALUE DUP1 ISZERO PUSH1 0xE JUMPI PUSH0 PUSH0 REVERT JUMPDEST POP PUSH2 0x91A DUP1 PUSH2 0x1C PUSH0 CODECOPY PUSH0 RETURN INVALID PUSH1 0x80 PUSH1 0x40 MSTORE CALLVALUE DUP1 ISZERO PUSH2 0xF JUMPI PUSH0 PUSH0 REVERT JUMPDEST POP PUSH1 0x4 CALLDATASIZE LT PUSH2 0x34 JUMPI PUSH0 CALLDATALOAD PUSH1 0xE0 SHR DUP1 PUSH4 0xF0322198 EQ PUSH2 0x38 JUMPI DUP1 PUSH4 0xF4353706 EQ PUSH2 0x68 JUMPI JUMPDEST PUSH0 PUSH0 REVERT JUMPDEST PUSH2 0x52 PUSH1 0x4 DUP1 CALLDATASIZE SUB DUP2 ADD SWAP1 PUSH2 0x4D SWAP2 SWAP1 PUSH2 0x5A8 JUMP JUMPDEST PUSH2 0x98 JUMP JUMPDEST PUSH1 0x40 MLOAD PUSH2 0x5F SWAP2 SWAP1 PUSH2 0x6D5 JUMP JUMPDEST PUSH1 0x40 MLOAD DUP1 SWAP2 SUB SWAP1 RETURN JUMPDEST PUSH2 0x82 PUSH1 0x4 DUP1 CALLDATASIZE SUB DUP2 ADD SWAP1 PUSH2 0x7D SWAP2 SWAP1 PUSH2 0x6F5 JUMP JUMPDEST PUSH2 0x2DB JUMP JUMPDEST PUSH1 0x40 MLOAD PUSH2 0x8F SWAP2 SWAP1 PUSH2 0x767 JUMP JUMPDEST PUSH1 0x40 MLOAD DUP1 SWAP2 SUB SWAP1 RETURN JUMPDEST PUSH1 0x60 PUSH0 DUP4 MLOAD SWAP1 POP PUSH0 DUP4 MLOAD SWAP1 POP PUSH0 DUP2 DUP4 PUSH2 0xB1 SWAP2 SWAP1 PUSH2 0x7AD JUMP JUMPDEST SWAP1 POP PUSH0 DUP2 PUSH8 0xFFFFFFFFFFFFFFFF DUP2 GT ISZERO PUSH2 0xCE JUMPI PUSH2 0xCD PUSH2 0x439 JUMP JUMPDEST JUMPDEST PUSH1 0x40 MLOAD SWAP1 DUP1 DUP3 MSTORE DUP1 PUSH1 0x20 MUL PUSH1 0x20 ADD DUP3 ADD PUSH1 0x40 MSTORE DUP1 ISZERO PUSH2 0xFC JUMPI DUP2 PUSH1 0x20 ADD PUSH1 0x20 DUP3 MUL DUP1 CALLDATASIZE DUP4 CALLDATACOPY DUP1 DUP3 ADD SWAP2 POP POP SWAP1 POP JUMPDEST POP SWAP1 POP PUSH0 PUSH0 SWAP1 POP PUSH0 PUSH0 SWAP1 POP PUSH0 PUSH0 SWAP1 POP JUMPDEST DUP7 DUP4 LT DUP1 ISZERO PUSH2 0x11A JUMPI POP DUP6 DUP3 LT JUMPDEST ISZERO PUSH2 0x203 JUMPI DUP9 DUP3 DUP2 MLOAD DUP2 LT PUSH2 0x132 JUMPI PUSH2 0x131 PUSH2 0x7E0 JUMP JUMPDEST JUMPDEST PUSH1 0x20 MUL PUSH1 0x20 ADD ADD MLOAD DUP11 DUP5 DUP2 MLOAD DUP2 LT PUSH2 0x14D JUMPI PUSH2 0x14C PUSH2 0x7E0 JUMP JUMPDEST JUMPDEST PUSH1 0x20 MUL PUSH1 0x20 ADD ADD MLOAD SGT PUSH2 0x1A7 JUMPI DUP10 DUP4 DUP2 MLOAD DUP2 LT PUSH2 0x16D JUMPI PUSH2 0x16C PUSH2 0x7E0 JUMP JUMPDEST JUMPDEST PUSH1 0x20 MUL PUSH1 0x20 ADD ADD MLOAD DUP5 DUP3 DUP2 MLOAD DUP2 LT PUSH2 0x188 JUMPI PUSH2 0x187 PUSH2 0x7E0 JUMP JUMPDEST JUMPDEST PUSH1 0x20 MUL PUSH1 0x20 ADD ADD DUP2 DUP2 MSTORE POP POP DUP3 DUP1 PUSH2 0x19F SWAP1 PUSH2 0x80D JUMP JUMPDEST SWAP4 POP POP PUSH2 0x1F0 JUMP JUMPDEST DUP9 DUP3 DUP2 MLOAD DUP2 LT PUSH2 0x1BA JUMPI PUSH2 0x1B9 PUSH2 0x7E0 JUMP JUMPDEST JUMPDEST PUSH1 0x20 MUL PUSH1 0x20 ADD ADD MLOAD DUP5 DUP3 DUP2 MLOAD DUP2 LT PUSH2 0x1D5 JUMPI PUSH2 0x1D4 PUSH2 0x7E0 JUMP JUMPDEST JUMPDEST PUSH1 0x20 MUL PUSH1 0x20 ADD ADD DUP2 DUP2 MSTORE POP POP DUP2 DUP1 PUSH2 0x1EC SWAP1 PUSH2 0x80D JUMP JUMPDEST SWAP3 POP POP JUMPDEST DUP1 DUP1 PUSH2 0x1FB SWAP1 PUSH2 0x80D JUMP JUMPDEST SWAP2 POP POP PUSH2 0x10C JUMP JUMPDEST JUMPDEST DUP7 DUP4 LT ISZERO PUSH2 0x267 JUMPI DUP10 DUP4 DUP2 MLOAD DUP2 LT PUSH2 0x21F JUMPI PUSH2 0x21E PUSH2 0x7E0 JUMP JUMPDEST JUMPDEST PUSH1 0x20 MUL PUSH1 0x20 ADD ADD MLOAD DUP5 DUP3 DUP2 MLOAD DUP2 LT PUSH2 0x23A JUMPI PUSH2 0x239 PUSH2 0x7E0 JUMP JUMPDEST JUMPDEST PUSH1 0x20 MUL PUSH1 0x20 ADD ADD DUP2 DUP2 MSTORE POP POP DUP3 DUP1 PUSH2 0x251 SWAP1 PUSH2 0x80D JUMP JUMPDEST SWAP4 POP POP DUP1 DUP1 PUSH2 0x25F SWAP1 PUSH2 0x80D JUMP JUMPDEST SWAP2 POP POP PUSH2 0x204 JUMP JUMPDEST JUMPDEST DUP6 DUP3 LT ISZERO PUSH2 0x2CB JUMPI DUP9 DUP3 DUP2 MLOAD DUP2 LT PUSH2 0x283 JUMPI PUSH2 0x282 PUSH2 0x7E0 JUMP JUMPDEST JUMPDEST PUSH1 0x20 MUL PUSH1 0x20 ADD ADD MLOAD DUP5 DUP3 DUP2 MLOAD DUP2 LT PUSH2 0x29E JUMPI PUSH2 0x29D PUSH2 0x7E0 JUMP JUMPDEST JUMPDEST PUSH1 0x20 MUL PUSH1 0x20 ADD ADD DUP2 DUP2 MSTORE POP POP DUP2 DUP1 PUSH2 0x2B5 SWAP1 PUSH2 0x80D JUMP JUMPDEST SWAP3 POP POP DUP1 DUP1 PUSH2 0x2C3 SWAP1 PUSH2 0x80D JUMP JUMPDEST SWAP2 POP POP PUSH2 0x268 JUMP JUMPDEST DUP4 SWAP8 POP POP POP POP POP POP POP POP SWAP3 SWAP2 POP POP JUMP JUMPDEST PUSH0 PUSH0 DUP4 MLOAD SWAP1 POP PUSH0 DUP2 SUB PUSH2 0x311 JUMPI PUSH32 0xFFFFFFFFFFFFFFFFFFFFFFFFFFFFFFFFFFFFFFFFFFFFFFFFFFFFFFFFFFFFFFFF SWAP2 POP POP PUSH2 0x40E JUMP JUMPDEST PUSH0 PUSH0 SWAP1 POP PUSH0 PUSH1 0x1 DUP4 PUSH2 0x323 SWAP2 SWAP1 PUSH2 0x854 JUMP JUMPDEST SWAP1 POP PUSH0 PUSH0 SWAP1 POP JUMPDEST DUP2 DUP4 GT PUSH2 0x3E6 JUMPI PUSH1 0x2 DUP3 DUP5 PUSH2 0x33F SWAP2 SWAP1 PUSH2 0x7AD JUMP JUMPDEST PUSH2 0x349 SWAP2 SWAP1 PUSH2 0x8B4 JUMP JUMPDEST SWAP1 POP DUP7 DUP2 DUP2 MLOAD DUP2 LT PUSH2 0x35E JUMPI PUSH2 0x35D PUSH2 0x7E0 JUMP JUMPDEST JUMPDEST PUSH1 0x20 MUL PUSH1 0x20 ADD ADD MLOAD DUP7 SUB PUSH2 0x378 JUMPI DUP1 SWAP5 POP POP POP POP POP PUSH2 0x40E JUMP JUMPDEST DUP7 DUP2 DUP2 MLOAD DUP2 LT PUSH2 0x38B JUMPI PUSH2 0x38A PUSH2 0x7E0 JUMP JUMPDEST JUMPDEST PUSH1 0x20 MUL PUSH1 0x20 ADD ADD MLOAD DUP7 SGT ISZERO PUSH2 0x3AE JUMPI PUSH1 0x1 DUP2 PUSH2 0x3A7 SWAP2 SWAP1 PUSH2 0x7AD JUMP JUMPDEST SWAP3 POP PUSH2 0x3E1 JUMP JUMPDEST DUP7 DUP2 DUP2 MLOAD DUP2 LT PUSH2 0x3C1 JUMPI PUSH2 0x3C0 PUSH2 0x7E0 JUMP JUMPDEST JUMPDEST PUSH1 0x20 MUL PUSH1 0x20 ADD ADD MLOAD DUP7 SLT ISZERO PUSH2 0x3E0 JUMPI PUSH1 0x1 DUP2 PUSH2 0x3DD SWAP2 SWAP1 PUSH2 0x854 JUMP JUMPDEST SWAP2 POP JUMPDEST JUMPDEST PUSH2 0x32A JUMP JUMPDEST PUSH32 0xFFFFFFFFFFFFFFFFFFFFFFFFFFFFFFFFFFFFFFFFFFFFFFFFFFFFFFFFFFFFFFFF SWAP5 POP POP POP POP POP JUMPDEST SWAP3 SWAP2 POP POP JUMP JUMPDEST PUSH0 PUSH1 0x40 MLOAD SWAP1 POP SWAP1 JUMP JUMPDEST PUSH0 PUSH0 REVERT JUMPDEST PUSH0 PUSH0 REVERT JUMPDEST PUSH0 PUSH0 REVERT JUMPDEST PUSH0 PUSH1 0x1F NOT PUSH1 0x1F DUP4 ADD AND SWAP1 POP SWAP2 SWAP1 POP JUMP JUMPDEST PUSH32 0x4E487B7100000000000000000000000000000000000000000000000000000000 PUSH0 MSTORE PUSH1 0x41 PUSH1 0x4 MSTORE PUSH1 0x24 PUSH0 REVERT JUMPDEST PUSH2 0x46F DUP3 PUSH2 0x429 JUMP JUMPDEST DUP2 ADD DUP2 DUP2 LT PUSH8 0xFFFFFFFFFFFFFFFF DUP3 GT OR ISZERO PUSH2 0x48E JUMPI PUSH2 0x48D PUSH2 0x439 JUMP JUMPDEST JUMPDEST DUP1 PUSH1 0x40 MSTORE POP POP POP JUMP JUMPDEST PUSH0 PUSH2 0x4A0 PUSH2 0x414 JUMP JUMPDEST SWAP1 POP PUSH2 0x4AC DUP3 DUP3 PUSH2 0x466 JUMP JUMPDEST SWAP2 SWAP1 POP JUMP JUMPDEST PUSH0 PUSH8 0xFFFFFFFFFFFFFFFF DUP3 GT ISZERO PUSH2 0x4CB JUMPI PUSH2 0x4CA PUSH2 0x439 JUMP JUMPDEST JUMPDEST PUSH1 0x20 DUP3 MUL SWAP1 POP PUSH1 0x20 DUP2 ADD SWAP1 POP SWAP2 SWAP1 POP JUMP JUMPDEST PUSH0 PUSH0 REVERT JUMPDEST PUSH0 DUP2 SWAP1 POP SWAP2 SWAP1 POP JUMP JUMPDEST PUSH2 0x4F2 DUP2 PUSH2 0x4E0 JUMP JUMPDEST DUP2 EQ PUSH2 0x4FC JUMPI PUSH0 PUSH0 REVERT JUMPDEST POP JUMP JUMPDEST PUSH0 DUP2 CALLDATALOAD SWAP1 POP PUSH2 0x50D DUP2 PUSH2 0x4E9 JUMP JUMPDEST SWAP3 SWAP2 POP POP JUMP JUMPDEST PUSH0 PUSH2 0x525 PUSH2 0x520 DUP5 PUSH2 0x4B1 JUMP JUMPDEST PUSH2 0x497 JUMP JUMPDEST SWAP1 POP DUP1 DUP4 DUP3 MSTORE PUSH1 0x20 DUP3 ADD SWAP1 POP PUSH1 0x20 DUP5 MUL DUP4 ADD DUP6 DUP2 GT ISZERO PUSH2 0x548 JUMPI PUSH2 0x547 PUSH2 0x4DC JUMP JUMPDEST JUMPDEST DUP4 JUMPDEST DUP2 DUP2 LT ISZERO PUSH2 0x571 JUMPI DUP1 PUSH2 0x55D DUP9 DUP3 PUSH2 0x4FF JUMP JUMPDEST DUP5 MSTORE PUSH1 0x20 DUP5 ADD SWAP4 POP POP PUSH1 0x20 DUP2 ADD SWAP1 POP PUSH2 0x54A JUMP JUMPDEST POP POP POP SWAP4 SWAP3 POP POP POP JUMP JUMPDEST PUSH0 DUP3 PUSH1 0x1F DUP4 ADD SLT PUSH2 0x58F JUMPI PUSH2 0x58E PUSH2 0x425 JUMP JUMPDEST JUMPDEST DUP2 CALLDATALOAD PUSH2 0x59F DUP5 DUP3 PUSH1 0x20 DUP7 ADD PUSH2 0x513 JUMP JUMPDEST SWAP2 POP POP SWAP3 SWAP2 POP POP JUMP JUMPDEST PUSH0 PUSH0 PUSH1 0x40 DUP4 DUP6 SUB SLT ISZERO PUSH2 0x5BE JUMPI PUSH2 0x5BD PUSH2 0x41D JUMP JUMPDEST JUMPDEST PUSH0 DUP4 ADD CALLDATALOAD PUSH8 0xFFFFFFFFFFFFFFFF DUP2 GT ISZERO PUSH2 0x5DB JUMPI PUSH2 0x5DA PUSH2 0x421 JUMP JUMPDEST JUMPDEST PUSH2 0x5E7 DUP6 DUP3 DUP7 ADD PUSH2 0x57B JUMP JUMPDEST SWAP3 POP POP PUSH1 0x20 DUP4 ADD CALLDATALOAD PUSH8 0xFFFFFFFFFFFFFFFF DUP2 GT ISZERO PUSH2 0x608 JUMPI PUSH2 0x607 PUSH2 0x421 JUMP JUMPDEST JUMPDEST PUSH2 0x614 DUP6 DUP3 DUP7 ADD PUSH2 0x57B JUMP JUMPDEST SWAP2 POP POP SWAP3 POP SWAP3 SWAP1 POP JUMP JUMPDEST PUSH0 DUP2 MLOAD SWAP1 POP SWAP2 SWAP1 POP JUMP JUMPDEST PUSH0 DUP3 DUP3 MSTORE PUSH1 0x20 DUP3 ADD SWAP1 POP SWAP3 SWAP2 POP POP JUMP JUMPDEST PUSH0 DUP2 SWAP1 POP PUSH1 0x20 DUP3 ADD SWAP1 POP SWAP2 SWAP1 POP JUMP JUMPDEST PUSH2 0x650 DUP2 PUSH2 0x4E0 JUMP JUMPDEST DUP3 MSTORE POP POP JUMP JUMPDEST PUSH0 PUSH2 0x661 DUP4 DUP4 PUSH2 0x647 JUMP JUMPDEST PUSH1 0x20 DUP4 ADD SWAP1 POP SWAP3 SWAP2 POP POP JUMP JUMPDEST PUSH0 PUSH1 0x20 DUP3 ADD SWAP1 POP SWAP2 SWAP1 POP JUMP JUMPDEST PUSH0 PUSH2 0x683 DUP3 PUSH2 0x61E JUMP JUMPDEST PUSH2 0x68D DUP2 DUP6 PUSH2 0x628 JUMP JUMPDEST SWAP4 POP PUSH2 0x698 DUP4 PUSH2 0x638 JUMP JUMPDEST DUP1 PUSH0 JUMPDEST DUP4 DUP2 LT ISZERO PUSH2 0x6C8 JUMPI DUP2 MLOAD PUSH2 0x6AF DUP9 DUP3 PUSH2 0x656 JUMP JUMPDEST SWAP8 POP PUSH2 0x6BA DUP4 PUSH2 0x66D JUMP JUMPDEST SWAP3 POP POP PUSH1 0x1 DUP2 ADD SWAP1 POP PUSH2 0x69B JUMP JUMPDEST POP DUP6 SWAP4 POP POP POP POP SWAP3 SWAP2 POP POP JUMP JUMPDEST PUSH0 PUSH1 0x20 DUP3 ADD SWAP1 POP DUP2 DUP2 SUB PUSH0 DUP4 ADD MSTORE PUSH2 0x6ED DUP2 DUP5 PUSH2 0x679 JUMP JUMPDEST SWAP1 POP SWAP3 SWAP2 POP POP JUMP JUMPDEST PUSH0 PUSH0 PUSH1 0x40 DUP4 DUP6 SUB SLT ISZERO PUSH2 0x70B JUMPI PUSH2 0x70A PUSH2 0x41D JUMP JUMPDEST JUMPDEST PUSH0 DUP4 ADD CALLDATALOAD PUSH8 0xFFFFFFFFFFFFFFFF DUP2 GT ISZERO PUSH2 0x728 JUMPI PUSH2 0x727 PUSH2 0x421 JUMP JUMPDEST JUMPDEST PUSH2 0x734 DUP6 DUP3 DUP7 ADD PUSH2 0x57B JUMP JUMPDEST SWAP3 POP POP PUSH1 0x20 PUSH2 0x745 DUP6 DUP3 DUP7 ADD PUSH2 0x4FF JUMP JUMPDEST SWAP2 POP POP SWAP3 POP SWAP3 SWAP1 POP JUMP JUMPDEST PUSH0 DUP2 SWAP1 POP SWAP2 SWAP1 POP JUMP JUMPDEST PUSH2 0x761 DUP2 PUSH2 0x74F JUMP JUMPDEST DUP3 MSTORE POP POP JUMP JUMPDEST PUSH0 PUSH1 0x20 DUP3 ADD SWAP1 POP PUSH2 0x77A PUSH0 DUP4 ADD DUP5 PUSH2 0x758 JUMP JUMPDEST SWAP3 SWAP2 POP POP JUMP JUMPDEST PUSH32 0x4E487B7100000000000000000000000000000000000000000000000000000000 PUSH0 MSTORE PUSH1 0x11 PUSH1 0x4 MSTORE PUSH1 0x24 PUSH0 REVERT JUMPDEST PUSH0 PUSH2 0x7B7 DUP3 PUSH2 0x74F JUMP JUMPDEST SWAP2 POP PUSH2 0x7C2 DUP4 PUSH2 0x74F JUMP JUMPDEST SWAP3 POP DUP3 DUP3 ADD SWAP1 POP DUP1 DUP3 GT ISZERO PUSH2 0x7DA JUMPI PUSH2 0x7D9 PUSH2 0x780 JUMP JUMPDEST JUMPDEST SWAP3 SWAP2 POP POP JUMP JUMPDEST PUSH32 0x4E487B7100000000000000000000000000000000000000000000000000000000 PUSH0 MSTORE PUSH1 0x32 PUSH1 0x4 MSTORE PUSH1 0x24 PUSH0 REVERT JUMPDEST PUSH0 PUSH2 0x817 DUP3 PUSH2 0x74F JUMP JUMPDEST SWAP2 POP PUSH32 0xFFFFFFFFFFFFFFFFFFFFFFFFFFFFFFFFFFFFFFFFFFFFFFFFFFFFFFFFFFFFFFFF DUP3 SUB PUSH2 0x849 JUMPI PUSH2 0x848 PUSH2 0x780 JUMP JUMPDEST JUMPDEST PUSH1 0x1 DUP3 ADD SWAP1 POP SWAP2 SWAP1 POP JUMP JUMPDEST PUSH0 PUSH2 0x85E DUP3 PUSH2 0x74F JUMP JUMPDEST SWAP2 POP PUSH2 0x869 DUP4 PUSH2 0x74F JUMP JUMPDEST SWAP3 POP DUP3 DUP3 SUB SWAP1 POP DUP2 DUP2 GT ISZERO PUSH2 0x881 JUMPI PUSH2 0x880 PUSH2 0x780 JUMP JUMPDEST JUMPDEST SWAP3 SWAP2 POP POP JUMP JUMPDEST PUSH32 0x4E487B7100000000000000000000000000000000000000000000000000000000 PUSH0 MSTORE PUSH1 0x12 PUSH1 0x4 MSTORE PUSH1 0x24 PUSH0 REVERT JUMPDEST PUSH0 PUSH2 0x8BE DUP3 PUSH2 0x74F JUMP JUMPDEST SWAP2 POP PUSH2 0x8C9 DUP4 PUSH2 0x74F JUMP JUMPDEST SWAP3 POP DUP3 PUSH2 0x8D9 JUMPI PUSH2 0x8D8 PUSH2 0x887 JUMP JUMPDEST JUMPDEST DUP3 DUP3 DIV SWAP1 POP SWAP3 SWAP2 POP POP JUMP INVALID LOG2 PUSH5 0x6970667358 0x22 SLT KECCAK256 0xE8 GASLIMIT 0xC5 SWAP10 SHR EXTCODECOPY 0xA8 0xC2 PUSH0 PUSH0 CALLER DUP16 PUSH17 0x9884726F284BAFF7501242527D357103F2 0x4F JUMPI PUSH5 0x736F6C6343 STOP ADDMOD 0x1E STOP CALLER "
		},
		"gasEstimates": {
			"creation": {
				"codeDepositCost": "466000",
				"executionCost": "497",
				"totalCost": "466497"
			},
			"external": {
				"binarySearch(int256[],int256)": "infinite",
				"mergeSortedArray(int256[],int256[])": "infinite"
			}
		},
		"methodIdentifiers": {
			"binarySearch(int256[],int256)": "f4353706",
			"mergeSortedArray(int256[],int256[])": "f0322198"
		}
	},
	"abi": [
		{
			"inputs": [
				{
					"internalType": "int256[]",
					"name": "arr",
					"type": "int256[]"
				},
				{
					"internalType": "int256",
					"name": "dest",
					"type": "int256"
				}
			],
			"name": "binarySearch",
			"outputs": [
				{
					"internalType": "uint256",
					"name": "",
					"type": "uint256"
				}
			],
			"stateMutability": "pure",
			"type": "function"
		},
		{
			"inputs": [
				{
					"internalType": "int256[]",
					"name": "arr1",
					"type": "int256[]"
				},
				{
					"internalType": "int256[]",
					"name": "arr2",
					"type": "int256[]"
				}
			],
			"name": "mergeSortedArray",
			"outputs": [
				{
					"internalType": "int256[]",
					"name": "",
					"type": "int256[]"
				}
			],
			"stateMutability": "pure",
			"type": "function"
		}
	]
}